Archive member included because of file (symbol)

/home/stm/tools/stm/gcc-arm-none-eabi/gcc-arm-none-eabi-4_9-2015q3/bin/../lib/gcc/arm-none-eabi/4.9.3/../../../../arm-none-eabi/lib/armv7e-m/fpu/libc_nano.a(lib_a-atoi.o)
                              build/usart.o (atoi)
/home/stm/tools/stm/gcc-arm-none-eabi/gcc-arm-none-eabi-4_9-2015q3/bin/../lib/gcc/arm-none-eabi/4.9.3/../../../../arm-none-eabi/lib/armv7e-m/fpu/libc_nano.a(lib_a-errno.o)
                              build/syscalls.o (__errno)
/home/stm/tools/stm/gcc-arm-none-eabi/gcc-arm-none-eabi-4_9-2015q3/bin/../lib/gcc/arm-none-eabi/4.9.3/../../../../arm-none-eabi/lib/armv7e-m/fpu/libc_nano.a(lib_a-exit.o)
                              /home/stm/tools/stm/gcc-arm-none-eabi/gcc-arm-none-eabi-4_9-2015q3/bin/../lib/gcc/arm-none-eabi/4.9.3/../../../../arm-none-eabi/lib/armv7e-m/fpu/crt0.o (exit)
/home/stm/tools/stm/gcc-arm-none-eabi/gcc-arm-none-eabi-4_9-2015q3/bin/../lib/gcc/arm-none-eabi/4.9.3/../../../../arm-none-eabi/lib/armv7e-m/fpu/libc_nano.a(lib_a-impure.o)
                              /home/stm/tools/stm/gcc-arm-none-eabi/gcc-arm-none-eabi-4_9-2015q3/bin/../lib/gcc/arm-none-eabi/4.9.3/../../../../arm-none-eabi/lib/armv7e-m/fpu/libc_nano.a(lib_a-exit.o) (_global_impure_ptr)
/home/stm/tools/stm/gcc-arm-none-eabi/gcc-arm-none-eabi-4_9-2015q3/bin/../lib/gcc/arm-none-eabi/4.9.3/../../../../arm-none-eabi/lib/armv7e-m/fpu/libc_nano.a(lib_a-init.o)
                              /home/stm/tools/stm/gcc-arm-none-eabi/gcc-arm-none-eabi-4_9-2015q3/bin/../lib/gcc/arm-none-eabi/4.9.3/../../../../arm-none-eabi/lib/armv7e-m/fpu/crt0.o (__libc_init_array)
/home/stm/tools/stm/gcc-arm-none-eabi/gcc-arm-none-eabi-4_9-2015q3/bin/../lib/gcc/arm-none-eabi/4.9.3/../../../../arm-none-eabi/lib/armv7e-m/fpu/libc_nano.a(lib_a-itoa.o)
                              build/usart.o (itoa)
/home/stm/tools/stm/gcc-arm-none-eabi/gcc-arm-none-eabi-4_9-2015q3/bin/../lib/gcc/arm-none-eabi/4.9.3/../../../../arm-none-eabi/lib/armv7e-m/fpu/libc_nano.a(lib_a-malloc.o)
                              build/usart.o (malloc)
/home/stm/tools/stm/gcc-arm-none-eabi/gcc-arm-none-eabi-4_9-2015q3/bin/../lib/gcc/arm-none-eabi/4.9.3/../../../../arm-none-eabi/lib/armv7e-m/fpu/libc_nano.a(lib_a-memset.o)
                              /home/stm/tools/stm/gcc-arm-none-eabi/gcc-arm-none-eabi-4_9-2015q3/bin/../lib/gcc/arm-none-eabi/4.9.3/../../../../arm-none-eabi/lib/armv7e-m/fpu/crt0.o (memset)
/home/stm/tools/stm/gcc-arm-none-eabi/gcc-arm-none-eabi-4_9-2015q3/bin/../lib/gcc/arm-none-eabi/4.9.3/../../../../arm-none-eabi/lib/armv7e-m/fpu/libc_nano.a(lib_a-nano-freer.o)
                              /home/stm/tools/stm/gcc-arm-none-eabi/gcc-arm-none-eabi-4_9-2015q3/bin/../lib/gcc/arm-none-eabi/4.9.3/../../../../arm-none-eabi/lib/armv7e-m/fpu/libc_nano.a(lib_a-malloc.o) (_free_r)
/home/stm/tools/stm/gcc-arm-none-eabi/gcc-arm-none-eabi-4_9-2015q3/bin/../lib/gcc/arm-none-eabi/4.9.3/../../../../arm-none-eabi/lib/armv7e-m/fpu/libc_nano.a(lib_a-nano-mallocr.o)
                              /home/stm/tools/stm/gcc-arm-none-eabi/gcc-arm-none-eabi-4_9-2015q3/bin/../lib/gcc/arm-none-eabi/4.9.3/../../../../arm-none-eabi/lib/armv7e-m/fpu/libc_nano.a(lib_a-malloc.o) (_malloc_r)
/home/stm/tools/stm/gcc-arm-none-eabi/gcc-arm-none-eabi-4_9-2015q3/bin/../lib/gcc/arm-none-eabi/4.9.3/../../../../arm-none-eabi/lib/armv7e-m/fpu/libc_nano.a(lib_a-nano-vfprintf_float.o)
                              (_printf_float)
/home/stm/tools/stm/gcc-arm-none-eabi/gcc-arm-none-eabi-4_9-2015q3/bin/../lib/gcc/arm-none-eabi/4.9.3/../../../../arm-none-eabi/lib/armv7e-m/fpu/libc_nano.a(lib_a-nano-vfprintf_i.o)
                              /home/stm/tools/stm/gcc-arm-none-eabi/gcc-arm-none-eabi-4_9-2015q3/bin/../lib/gcc/arm-none-eabi/4.9.3/../../../../arm-none-eabi/lib/armv7e-m/fpu/libc_nano.a(lib_a-nano-vfprintf_float.o) (_printf_common)
/home/stm/tools/stm/gcc-arm-none-eabi/gcc-arm-none-eabi-4_9-2015q3/bin/../lib/gcc/arm-none-eabi/4.9.3/../../../../arm-none-eabi/lib/armv7e-m/fpu/libc_nano.a(lib_a-s_fpclassify.o)
                              /home/stm/tools/stm/gcc-arm-none-eabi/gcc-arm-none-eabi-4_9-2015q3/bin/../lib/gcc/arm-none-eabi/4.9.3/../../../../arm-none-eabi/lib/armv7e-m/fpu/libc_nano.a(lib_a-nano-vfprintf_float.o) (__fpclassifyd)
/home/stm/tools/stm/gcc-arm-none-eabi/gcc-arm-none-eabi-4_9-2015q3/bin/../lib/gcc/arm-none-eabi/4.9.3/../../../../arm-none-eabi/lib/armv7e-m/fpu/libc_nano.a(lib_a-sbrkr.o)
                              /home/stm/tools/stm/gcc-arm-none-eabi/gcc-arm-none-eabi-4_9-2015q3/bin/../lib/gcc/arm-none-eabi/4.9.3/../../../../arm-none-eabi/lib/armv7e-m/fpu/libc_nano.a(lib_a-nano-mallocr.o) (_sbrk_r)
/home/stm/tools/stm/gcc-arm-none-eabi/gcc-arm-none-eabi-4_9-2015q3/bin/../lib/gcc/arm-none-eabi/4.9.3/../../../../arm-none-eabi/lib/armv7e-m/fpu/libc_nano.a(lib_a-strlen.o)
                              build/usart.o (strlen)
/home/stm/tools/stm/gcc-arm-none-eabi/gcc-arm-none-eabi-4_9-2015q3/bin/../lib/gcc/arm-none-eabi/4.9.3/../../../../arm-none-eabi/lib/armv7e-m/fpu/libc_nano.a(lib_a-strstr.o)
                              build/usart.o (strstr)
/home/stm/tools/stm/gcc-arm-none-eabi/gcc-arm-none-eabi-4_9-2015q3/bin/../lib/gcc/arm-none-eabi/4.9.3/../../../../arm-none-eabi/lib/armv7e-m/fpu/libc_nano.a(lib_a-strtok.o)
                              build/usart.o (strtok)
/home/stm/tools/stm/gcc-arm-none-eabi/gcc-arm-none-eabi-4_9-2015q3/bin/../lib/gcc/arm-none-eabi/4.9.3/../../../../arm-none-eabi/lib/armv7e-m/fpu/libc_nano.a(lib_a-strtok_r.o)
                              /home/stm/tools/stm/gcc-arm-none-eabi/gcc-arm-none-eabi-4_9-2015q3/bin/../lib/gcc/arm-none-eabi/4.9.3/../../../../arm-none-eabi/lib/armv7e-m/fpu/libc_nano.a(lib_a-strtok.o) (__strtok_r)
/home/stm/tools/stm/gcc-arm-none-eabi/gcc-arm-none-eabi-4_9-2015q3/bin/../lib/gcc/arm-none-eabi/4.9.3/../../../../arm-none-eabi/lib/armv7e-m/fpu/libc_nano.a(lib_a-strtol.o)
                              /home/stm/tools/stm/gcc-arm-none-eabi/gcc-arm-none-eabi-4_9-2015q3/bin/../lib/gcc/arm-none-eabi/4.9.3/../../../../arm-none-eabi/lib/armv7e-m/fpu/libc_nano.a(lib_a-atoi.o) (_strtol_r)
/home/stm/tools/stm/gcc-arm-none-eabi/gcc-arm-none-eabi-4_9-2015q3/bin/../lib/gcc/arm-none-eabi/4.9.3/../../../../arm-none-eabi/lib/armv7e-m/fpu/libc_nano.a(lib_a-utoa.o)
                              /home/stm/tools/stm/gcc-arm-none-eabi/gcc-arm-none-eabi-4_9-2015q3/bin/../lib/gcc/arm-none-eabi/4.9.3/../../../../arm-none-eabi/lib/armv7e-m/fpu/libc_nano.a(lib_a-itoa.o) (__utoa)
/home/stm/tools/stm/gcc-arm-none-eabi/gcc-arm-none-eabi-4_9-2015q3/bin/../lib/gcc/arm-none-eabi/4.9.3/../../../../arm-none-eabi/lib/armv7e-m/fpu/libc_nano.a(lib_a-ctype_.o)
                              /home/stm/tools/stm/gcc-arm-none-eabi/gcc-arm-none-eabi-4_9-2015q3/bin/../lib/gcc/arm-none-eabi/4.9.3/../../../../arm-none-eabi/lib/armv7e-m/fpu/libc_nano.a(lib_a-strtol.o) (__ctype_ptr__)
/home/stm/tools/stm/gcc-arm-none-eabi/gcc-arm-none-eabi-4_9-2015q3/bin/../lib/gcc/arm-none-eabi/4.9.3/../../../../arm-none-eabi/lib/armv7e-m/fpu/libc_nano.a(lib_a-dtoa.o)
                              /home/stm/tools/stm/gcc-arm-none-eabi/gcc-arm-none-eabi-4_9-2015q3/bin/../lib/gcc/arm-none-eabi/4.9.3/../../../../arm-none-eabi/lib/armv7e-m/fpu/libc_nano.a(lib_a-nano-vfprintf_float.o) (_dtoa_r)
/home/stm/tools/stm/gcc-arm-none-eabi/gcc-arm-none-eabi-4_9-2015q3/bin/../lib/gcc/arm-none-eabi/4.9.3/../../../../arm-none-eabi/lib/armv7e-m/fpu/libc_nano.a(lib_a-locale.o)
                              /home/stm/tools/stm/gcc-arm-none-eabi/gcc-arm-none-eabi-4_9-2015q3/bin/../lib/gcc/arm-none-eabi/4.9.3/../../../../arm-none-eabi/lib/armv7e-m/fpu/libc_nano.a(lib_a-nano-vfprintf_float.o) (_localeconv_r)
/home/stm/tools/stm/gcc-arm-none-eabi/gcc-arm-none-eabi-4_9-2015q3/bin/../lib/gcc/arm-none-eabi/4.9.3/../../../../arm-none-eabi/lib/armv7e-m/fpu/libc_nano.a(lib_a-memchr.o)
                              /home/stm/tools/stm/gcc-arm-none-eabi/gcc-arm-none-eabi-4_9-2015q3/bin/../lib/gcc/arm-none-eabi/4.9.3/../../../../arm-none-eabi/lib/armv7e-m/fpu/libc_nano.a(lib_a-nano-vfprintf_i.o) (memchr)
/home/stm/tools/stm/gcc-arm-none-eabi/gcc-arm-none-eabi-4_9-2015q3/bin/../lib/gcc/arm-none-eabi/4.9.3/../../../../arm-none-eabi/lib/armv7e-m/fpu/libc_nano.a(lib_a-memcpy.o)
                              /home/stm/tools/stm/gcc-arm-none-eabi/gcc-arm-none-eabi-4_9-2015q3/bin/../lib/gcc/arm-none-eabi/4.9.3/../../../../arm-none-eabi/lib/armv7e-m/fpu/libc_nano.a(lib_a-dtoa.o) (memcpy)
/home/stm/tools/stm/gcc-arm-none-eabi/gcc-arm-none-eabi-4_9-2015q3/bin/../lib/gcc/arm-none-eabi/4.9.3/../../../../arm-none-eabi/lib/armv7e-m/fpu/libc_nano.a(lib_a-mprec.o)
                              /home/stm/tools/stm/gcc-arm-none-eabi/gcc-arm-none-eabi-4_9-2015q3/bin/../lib/gcc/arm-none-eabi/4.9.3/../../../../arm-none-eabi/lib/armv7e-m/fpu/libc_nano.a(lib_a-dtoa.o) (_Balloc)
/home/stm/tools/stm/gcc-arm-none-eabi/gcc-arm-none-eabi-4_9-2015q3/bin/../lib/gcc/arm-none-eabi/4.9.3/../../../../arm-none-eabi/lib/armv7e-m/fpu/libc_nano.a(lib_a-nano-callocr.o)
                              /home/stm/tools/stm/gcc-arm-none-eabi/gcc-arm-none-eabi-4_9-2015q3/bin/../lib/gcc/arm-none-eabi/4.9.3/../../../../arm-none-eabi/lib/armv7e-m/fpu/libc_nano.a(lib_a-mprec.o) (_calloc_r)
/home/stm/tools/stm/gcc-arm-none-eabi/gcc-arm-none-eabi-4_9-2015q3/bin/../lib/gcc/arm-none-eabi/4.9.3/../../../../arm-none-eabi/lib/armv7e-m/fpu/libc_nano.a(lib_a-reent.o)
                              /home/stm/tools/stm/gcc-arm-none-eabi/gcc-arm-none-eabi-4_9-2015q3/bin/../lib/gcc/arm-none-eabi/4.9.3/../../../../arm-none-eabi/lib/armv7e-m/fpu/libc_nano.a(lib_a-sbrkr.o) (errno)
/home/stm/tools/stm/gcc-arm-none-eabi/gcc-arm-none-eabi-4_9-2015q3/bin/../lib/gcc/arm-none-eabi/4.9.3/../../../../arm-none-eabi/lib/armv7e-m/fpu/libc_nano.a(lib_a-strcmp.o)
                              /home/stm/tools/stm/gcc-arm-none-eabi/gcc-arm-none-eabi-4_9-2015q3/bin/../lib/gcc/arm-none-eabi/4.9.3/../../../../arm-none-eabi/lib/armv7e-m/fpu/libc_nano.a(lib_a-locale.o) (strcmp)
/home/stm/tools/stm/gcc-arm-none-eabi/gcc-arm-none-eabi-4_9-2015q3/bin/../lib/gcc/arm-none-eabi/4.9.3/armv7e-m/fpu/libgcc.a(_arm_addsubdf3.o)
                              /home/stm/tools/stm/gcc-arm-none-eabi/gcc-arm-none-eabi-4_9-2015q3/bin/../lib/gcc/arm-none-eabi/4.9.3/../../../../arm-none-eabi/lib/armv7e-m/fpu/libc_nano.a(lib_a-dtoa.o) (__aeabi_dsub)
/home/stm/tools/stm/gcc-arm-none-eabi/gcc-arm-none-eabi-4_9-2015q3/bin/../lib/gcc/arm-none-eabi/4.9.3/armv7e-m/fpu/libgcc.a(_arm_muldivdf3.o)
                              /home/stm/tools/stm/gcc-arm-none-eabi/gcc-arm-none-eabi-4_9-2015q3/bin/../lib/gcc/arm-none-eabi/4.9.3/../../../../arm-none-eabi/lib/armv7e-m/fpu/libc_nano.a(lib_a-dtoa.o) (__aeabi_dmul)
/home/stm/tools/stm/gcc-arm-none-eabi/gcc-arm-none-eabi-4_9-2015q3/bin/../lib/gcc/arm-none-eabi/4.9.3/armv7e-m/fpu/libgcc.a(_arm_cmpdf2.o)
                              /home/stm/tools/stm/gcc-arm-none-eabi/gcc-arm-none-eabi-4_9-2015q3/bin/../lib/gcc/arm-none-eabi/4.9.3/../../../../arm-none-eabi/lib/armv7e-m/fpu/libc_nano.a(lib_a-nano-vfprintf_float.o) (__aeabi_dcmpeq)
/home/stm/tools/stm/gcc-arm-none-eabi/gcc-arm-none-eabi-4_9-2015q3/bin/../lib/gcc/arm-none-eabi/4.9.3/armv7e-m/fpu/libgcc.a(_arm_fixdfsi.o)
                              /home/stm/tools/stm/gcc-arm-none-eabi/gcc-arm-none-eabi-4_9-2015q3/bin/../lib/gcc/arm-none-eabi/4.9.3/../../../../arm-none-eabi/lib/armv7e-m/fpu/libc_nano.a(lib_a-dtoa.o) (__aeabi_d2iz)

Allocating common symbols
Common symbol       size              file

info                0x4               build/usart.o
errno               0x4               /home/stm/tools/stm/gcc-arm-none-eabi/gcc-arm-none-eabi-4_9-2015q3/bin/../lib/gcc/arm-none-eabi/4.9.3/../../../../arm-none-eabi/lib/armv7e-m/fpu/libc_nano.a(lib_a-reent.o)
hi2c1               0x4c              build/i2c.o
flag                0x1               build/main.o
uwTick              0x4               build/stm32f3xx_hal.o
pFlash              0x20              build/stm32f3xx_hal_flash.o
info2               0x100             build/usart.o
huart1              0x70              build/usart.o
buffer              0x4               build/usart.o
hspi1               0x64              build/spi.o

Discarded input sections

 .text          0x00000000        0x0 /home/stm/tools/stm/gcc-arm-none-eabi/gcc-arm-none-eabi-4_9-2015q3/bin/../lib/gcc/arm-none-eabi/4.9.3/armv7e-m/fpu/crti.o
 .data          0x00000000        0x0 /home/stm/tools/stm/gcc-arm-none-eabi/gcc-arm-none-eabi-4_9-2015q3/bin/../lib/gcc/arm-none-eabi/4.9.3/armv7e-m/fpu/crti.o
 .bss           0x00000000        0x0 /home/stm/tools/stm/gcc-arm-none-eabi/gcc-arm-none-eabi-4_9-2015q3/bin/../lib/gcc/arm-none-eabi/4.9.3/armv7e-m/fpu/crti.o
 .data          0x00000000        0x4 /home/stm/tools/stm/gcc-arm-none-eabi/gcc-arm-none-eabi-4_9-2015q3/bin/../lib/gcc/arm-none-eabi/4.9.3/armv7e-m/fpu/crtbegin.o
 .text          0x00000000       0x74 /home/stm/tools/stm/gcc-arm-none-eabi/gcc-arm-none-eabi-4_9-2015q3/bin/../lib/gcc/arm-none-eabi/4.9.3/../../../../arm-none-eabi/lib/armv7e-m/fpu/crt0.o
 .data          0x00000000        0x0 /home/stm/tools/stm/gcc-arm-none-eabi/gcc-arm-none-eabi-4_9-2015q3/bin/../lib/gcc/arm-none-eabi/4.9.3/../../../../arm-none-eabi/lib/armv7e-m/fpu/crt0.o
 .bss           0x00000000        0x0 /home/stm/tools/stm/gcc-arm-none-eabi/gcc-arm-none-eabi-4_9-2015q3/bin/../lib/gcc/arm-none-eabi/4.9.3/../../../../arm-none-eabi/lib/armv7e-m/fpu/crt0.o
 .ARM.extab     0x00000000        0x0 /home/stm/tools/stm/gcc-arm-none-eabi/gcc-arm-none-eabi-4_9-2015q3/bin/../lib/gcc/arm-none-eabi/4.9.3/../../../../arm-none-eabi/lib/armv7e-m/fpu/crt0.o
 .ARM.exidx     0x00000000        0x8 /home/stm/tools/stm/gcc-arm-none-eabi/gcc-arm-none-eabi-4_9-2015q3/bin/../lib/gcc/arm-none-eabi/4.9.3/../../../../arm-none-eabi/lib/armv7e-m/fpu/crt0.o
 .ARM.attributes
                0x00000000       0x20 /home/stm/tools/stm/gcc-arm-none-eabi/gcc-arm-none-eabi-4_9-2015q3/bin/../lib/gcc/arm-none-eabi/4.9.3/../../../../arm-none-eabi/lib/armv7e-m/fpu/crt0.o
 .text          0x00000000        0x0 build/main.o
 .data          0x00000000        0x0 build/main.o
 .bss           0x00000000        0x0 build/main.o
 .text          0x00000000        0x0 build/gpio.o
 .data          0x00000000        0x0 build/gpio.o
 .bss           0x00000000        0x0 build/gpio.o
 .text          0x00000000        0x0 build/i2c.o
Memory Configuration

Name             Origin             Length             Attributes
RAM              0x20000000         0x0000a000         xrw
CCMRAM           0x10000000         0x00002000         rw
FLASH            0x08000000         0x00040000         xr
*default*        0x00000000         0xffffffff

Linker script and memory map

LOAD /home/stm/tools/stm/gcc-arm-none-eabi/gcc-arm-none-eabi-4_9-2015q3/bin/../lib/gcc/arm-none-eabi/4.9.3/armv7e-m/fpu/crti.o
LOAD /home/stm/tools/stm/gcc-arm-none-eabi/gcc-arm-none-eabi-4_9-2015q3/bin/../lib/gcc/arm-none-eabi/4.9.3/armv7e-m/fpu/crtbegin.o
LOAD /home/stm/tools/stm/gcc-arm-none-eabi/gcc-arm-none-eabi-4_9-2015q3/bin/../lib/gcc/arm-none-eabi/4.9.3/../../../../arm-none-eabi/lib/armv7e-m/fpu/crt0.o
LOAD build/main.o
LOAD build/gpio.o
LOAD build/i2c.o
LOAD build/spi.o
LOAD build/usart.o
LOAD build/stm32f3xx_it.o
LOAD build/stm32f3xx_hal_msp.o
LOAD build/stm32f3xx_hal_i2c.o
LOAD build/stm32f3xx_hal_i2c_ex.o
LOAD build/stm32f3xx_hal_spi.o
LOAD build/stm32f3xx_hal_spi_ex.o
LOAD build/stm32f3xx_hal_tim.o
LOAD build/stm32f3xx_hal_tim_ex.o
LOAD build/stm32f3xx_hal_uart.o
LOAD build/stm32f3xx_hal_uart_ex.o
LOAD build/stm32f3xx_hal.o
LOAD build/stm32f3xx_hal_rcc.o
LOAD build/stm32f3xx_hal_rcc_ex.o
LOAD build/stm32f3xx_hal_gpio.o
LOAD build/stm32f3xx_hal_dma.o
LOAD build/stm32f3xx_hal_cortex.o
LOAD build/stm32f3xx_hal_pwr.o
LOAD build/stm32f3xx_hal_pwr_ex.o
LOAD build/stm32f3xx_hal_flash.o
LOAD build/stm32f3xx_hal_flash_ex.o
LOAD build/system_stm32f3xx.o
LOAD build/syscalls.o
LOAD build/acc_mag.o
LOAD build/gyro.o
LOAD build/startup_stm32f303xc.o
LOAD /home/stm/tools/stm/gcc-arm-none-eabi/gcc-arm-none-eabi-4_9-2015q3/bin/../lib/gcc/arm-none-eabi/4.9.3/../../../../arm-none-eabi/lib/armv7e-m/fpu/libc_nano.a
LOAD /home/stm/tools/stm/gcc-arm-none-eabi/gcc-arm-none-eabi-4_9-2015q3/bin/../lib/gcc/arm-none-eabi/4.9.3/../../../../arm-none-eabi/lib/armv7e-m/fpu/libm.a
LOAD /home/stm/tools/stm/gcc-arm-none-eabi/gcc-arm-none-eabi-4_9-2015q3/bin/../lib/gcc/arm-none-eabi/4.9.3/../../../../arm-none-eabi/lib/armv7e-m/fpu/libnosys.a
START GROUP
LOAD /home/stm/tools/stm/gcc-arm-none-eabi/gcc-arm-none-eabi-4_9-2015q3/bin/../lib/gcc/arm-none-eabi/4.9.3/armv7e-m/fpu/libgcc.a
LOAD /home/stm/tools/stm/gcc-arm-none-eabi/gcc-arm-none-eabi-4_9-2015q3/bin/../lib/gcc/arm-none-eabi/4.9.3/../../../../arm-none-eabi/lib/armv7e-m/fpu/libc_nano.a
END GROUP
START GROUP
LOAD /home/stm/tools/stm/gcc-arm-none-eabi/gcc-arm-none-eabi-4_9-2015q3/bin/../lib/gcc/arm-none-eabi/4.9.3/armv7e-m/fpu/libgcc.a
LOAD /home/stm/tools/stm/gcc-arm-none-eabi/gcc-arm-none-eabi-4_9-2015q3/bin/../lib/gcc/arm-none-eabi/4.9.3/../../../../arm-none-eabi/lib/armv7e-m/fpu/libc_nano.a
END GROUP
LOAD /home/stm/tools/stm/gcc-arm-none-eabi/gcc-arm-none-eabi-4_9-2015q3/bin/../lib/gcc/arm-none-eabi/4.9.3/armv7e-m/fpu/crtend.o
LOAD /home/stm/tools/stm/gcc-arm-none-eabi/gcc-arm-none-eabi-4_9-2015q3/bin/../lib/gcc/arm-none-eabi/4.9.3/armv7e-m/fpu/crtn.o
                0x2000a000                _estack = 0x2000a000
                0x00000200                _Min_Heap_Size = 0x200
                0x00000400                _Min_Stack_Size = 0x400

.isr_vector     0x08000000      0x188
                0x08000000                . = ALIGN (0x4)
 *(.isr_vector)
 .isr_vector    0x08000000      0x188 build/startup_stm32f303xc.o
                0x08000000                g_pfnVectors
                0x08000188                . = ALIGN (0x4)

.text           0x08000188     0x4f50
                0x08000188                . = ALIGN (0x4)
 *(.text)
 .text          0x08000188       0x5c /home/stm/tools/stm/gcc-arm-none-eabi/gcc-arm-none-eabi-4_9-2015q3/bin/../lib/gcc/arm-none-eabi/4.9.3/armv7e-m/fpu/crtbegin.o
 .text          0x080001e4      0x370 /home/stm/tools/stm/gcc-arm-none-eabi/gcc-arm-none-eabi-4_9-2015q3/bin/../lib/gcc/arm-none-eabi/4.9.3/armv7e-m/fpu/libgcc.a(_arm_addsubdf3.o)
                0x080001e4                __aeabi_drsub
                0x080001ec                __aeabi_dsub
                0x080001ec                __subdf3
                0x080001f0                __adddf3
                0x080001f0                __aeabi_dadd
                0x08000468                __aeabi_ui2d
                0x08000468                __floatunsidf
                0x08000488                __floatsidf
                0x08000488                __aeabi_i2d
                0x080004ac                __extendsfdf2
                0x080004ac                __aeabi_f2d
                0x080004e8                __aeabi_ul2d
                0x080004e8                __floatundidf
                0x080004f8                __floatdidf
                0x080004f8                __aeabi_l2d
 .text          0x08000554      0x424 /home/stm/tools/stm/gcc-arm-none-eabi/gcc-arm-none-eabi-4_9-2015q3/bin/../lib/gcc/arm-none-eabi/4.9.3/armv7e-m/fpu/libgcc.a(_arm_muldivdf3.o)
                0x08000554                __aeabi_dmul
                0x08000554                __muldf3
                0x080007a8                __aeabi_ddiv
                0x080007a8                __divdf3
 .text          0x08000978      0x110 /home/stm/tools/stm/gcc-arm-none-eabi/gcc-arm-none-eabi-4_9-2015q3/bin/../lib/gcc/arm-none-eabi/4.9.3/armv7e-m/fpu/libgcc.a(_arm_cmpdf2.o)
                0x08000978                __gtdf2
                0x08000978                __gedf2
                0x08000980                __ltdf2
                0x08000980                __ledf2
                0x08000988                __cmpdf2
                0x08000988                __eqdf2
                0x08000988                __nedf2
                0x08000a04                __aeabi_cdrcmple
                0x08000a14                __aeabi_cdcmple
                0x08000a14                __aeabi_cdcmpeq
                0x08000a24                __aeabi_dcmpeq
                0x08000a38                __aeabi_dcmplt
                0x08000a4c                __aeabi_dcmple
                0x08000a60                __aeabi_dcmpge
                0x08000a74                __aeabi_dcmpgt
 .text          0x08000a88       0x50 /home/stm/tools/stm/gcc-arm-none-eabi/gcc-arm-none-eabi-4_9-2015q3/bin/../lib/gcc/arm-none-eabi/4.9.3/armv7e-m/fpu/libgcc.a(_arm_fixdfsi.o)
                0x08000a88                __fixdfsi
                0x08000a88                __aeabi_d2iz
 *(.text*)
 .text._Error_Handler
                0x08000ad8        0x4 build/main.o
                0x08000ad8                _Error_Handler
 .text.SystemClock_Config
                0x08000adc       0xa8 build/main.o
                0x08000adc                SystemClock_Config
 .text.main     0x08000b84       0xa0 build/main.o
                0x08000b84                main
 .text.MX_GPIO_Init
                0x08000c24       0x40 build/gpio.o
                0x08000c24                MX_GPIO_Init
 .text.MX_GPIO_diod
                0x08000c64       0x2c build/gpio.o
                0x08000c64                MX_GPIO_diod
 .text.MX_GPIO_diods
                0x08000c90       0x4c build/gpio.o
                0x08000c90                MX_GPIO_diods
 .text.MX_GPIO_blink
                0x08000cdc       0x48 build/gpio.o
                0x08000cdc                MX_GPIO_blink
 .text.MX_GPIO_circle
                0x08000d24       0x68 build/gpio.o
                0x08000d24                MX_GPIO_circle
 .text.MX_I2C1_Init
                0x08000d8c        0x4 build/i2c.o
                0x08000d8c                MX_I2C1_Init
 .text.MX_SPI1_Init
                0x08000d90        0x4 build/spi.o
                0x08000d90                MX_SPI1_Init
 .text.MX_USART1_UART_Init
                0x08000d94       0x50 build/usart.o
                0x08000d94                MX_USART1_UART_Init
 .text.HAL_UART_MspInit
                0x08000de4       0x54 build/usart.o
                0x08000de4                HAL_UART_MspInit
 .text.compare  0x08000e38       0x2c build/usart.o
                0x08000e38                compare
 .text.handleDiods
                0x08000e64      0x258 build/usart.o
                0x08000e64                handleDiods
 .text.HAL_UART_RxCpltCallback
                0x080010bc      0x174 build/usart.o
                0x080010bc                HAL_UART_RxCpltCallback
 .text.SysTick_Handler
                0x08001230        0xc build/stm32f3xx_it.o
                0x08001230                SysTick_Handler
 .text.I2C1_EV_IRQHandler
                0x0800123c       0x10 build/stm32f3xx_it.o
                0x0800123c                I2C1_EV_IRQHandler
 .text.I2C1_ER_IRQHandler
                0x0800124c       0x10 build/stm32f3xx_it.o
                0x0800124c                I2C1_ER_IRQHandler
 .text.SPI1_IRQHandler
                0x0800125c       0x10 build/stm32f3xx_it.o
                0x0800125c                SPI1_IRQHandler
 .text.USART1_IRQHandler
                0x0800126c       0x10 build/stm32f3xx_it.o
                0x0800126c                USART1_IRQHandler
 .text.EXTI0_IRQHandler
                0x0800127c        0xc build/stm32f3xx_it.o
                0x0800127c                EXTI0_IRQHandler
 .text.HAL_MspInit
                0x08001288       0x90 build/stm32f3xx_hal_msp.o
                0x08001288                HAL_MspInit
 .text.I2C_Flush_TXDR
                0x08001318       0x24 build/stm32f3xx_hal_i2c.o
 .text.I2C_Disable_IRQ
                0x0800133c       0x7c build/stm32f3xx_hal_i2c.o
 .text.HAL_I2C_EV_IRQHandler
                0x080013b8       0x10 build/stm32f3xx_hal_i2c.o
                0x080013b8                HAL_I2C_EV_IRQHandler
 .text.HAL_I2C_SlaveTxCpltCallback
                0x080013c8        0x4 build/stm32f3xx_hal_i2c.o
                0x080013c8                HAL_I2C_SlaveTxCpltCallback
 .text.HAL_I2C_SlaveRxCpltCallback
                0x080013cc        0x4 build/stm32f3xx_hal_i2c.o
                0x080013cc                HAL_I2C_SlaveRxCpltCallback
 .text.I2C_ITSlaveSequentialCplt
                0x080013d0       0x5c build/stm32f3xx_hal_i2c.o
 .text.HAL_I2C_AddrCallback
                0x0800142c        0x4 build/stm32f3xx_hal_i2c.o
                0x0800142c                HAL_I2C_AddrCallback
 .text.I2C_ITAddrCplt
                0x08001430       0xa4 build/stm32f3xx_hal_i2c.o
 .text.HAL_I2C_ListenCpltCallback
                0x080014d4        0x4 build/stm32f3xx_hal_i2c.o
                0x080014d4                HAL_I2C_ListenCpltCallback
 .text.I2C_ITListenCplt
                0x080014d8       0x64 build/stm32f3xx_hal_i2c.o
 .text.HAL_I2C_ErrorCallback
                0x0800153c        0x4 build/stm32f3xx_hal_i2c.o
                0x0800153c                HAL_I2C_ErrorCallback
 .text.HAL_I2C_AbortCpltCallback
                0x08001540        0x4 build/stm32f3xx_hal_i2c.o
                0x08001540                HAL_I2C_AbortCpltCallback
 .text.I2C_ITError
                0x08001544       0xfc build/stm32f3xx_hal_i2c.o
 .text.I2C_ITSlaveCplt
                0x08001640      0x124 build/stm32f3xx_hal_i2c.o
 .text.I2C_Slave_ISR_IT
                0x08001764      0x148 build/stm32f3xx_hal_i2c.o
 .text.HAL_I2C_ER_IRQHandler
                0x080018ac       0x6c build/stm32f3xx_hal_i2c.o
                0x080018ac                HAL_I2C_ER_IRQHandler
 .text.I2C_DMAAbort
                0x08001918       0x34 build/stm32f3xx_hal_i2c.o
 .text.HAL_SPI_ErrorCallback
                0x0800194c        0x4 build/stm32f3xx_hal_spi.o
                0x0800194c                HAL_SPI_ErrorCallback
 .text.HAL_SPI_IRQHandler
                0x08001950      0x104 build/stm32f3xx_hal_spi.o
                0x08001950                HAL_SPI_IRQHandler
 .text.SPI_DMAAbortOnError
                0x08001a54       0x14 build/stm32f3xx_hal_spi.o
 .text.UART_EndRxTransfer
                0x08001a68       0x1c build/stm32f3xx_hal_uart.o
 .text.HAL_UART_Transmit_IT
                0x08001a84       0x4c build/stm32f3xx_hal_uart.o
                0x08001a84                HAL_UART_Transmit_IT
 .text.HAL_UART_Receive_IT
                0x08001ad0       0x94 build/stm32f3xx_hal_uart.o
                0x08001ad0                HAL_UART_Receive_IT
 .text.HAL_UART_TxCpltCallback
                0x08001b64        0x4 build/stm32f3xx_hal_uart.o
                0x08001b64                HAL_UART_TxCpltCallback
 .text.HAL_UART_ErrorCallback
                0x08001b68        0x4 build/stm32f3xx_hal_uart.o
                0x08001b68                HAL_UART_ErrorCallback
 .text.UART_DMAAbortOnError
                0x08001b6c       0x14 build/stm32f3xx_hal_uart.o
 .text.UART_SetConfig
                0x08001b80      0x2a0 build/stm32f3xx_hal_uart.o
                0x08001b80                UART_SetConfig
 .text.UART_AdvFeatureConfig
                0x08001e20       0xc8 build/stm32f3xx_hal_uart.o
                0x08001e20                UART_AdvFeatureConfig
 .text.UART_WaitOnFlagUntilTimeout
                0x08001ee8       0x68 build/stm32f3xx_hal_uart.o
                0x08001ee8                UART_WaitOnFlagUntilTimeout
 .text.HAL_UART_Transmit
                0x08001f50       0xd0 build/stm32f3xx_hal_uart.o
                0x08001f50                HAL_UART_Transmit
 .text.UART_CheckIdleState
                0x08002020       0x6c build/stm32f3xx_hal_uart.o
                0x08002020                UART_CheckIdleState
 .text.HAL_UART_Init
                0x0800208c       0x6c build/stm32f3xx_hal_uart.o
                0x0800208c                HAL_UART_Init
 .text.UART_Transmit_IT
                0x080020f8       0x6c build/stm32f3xx_hal_uart.o
                0x080020f8                UART_Transmit_IT
 .text.UART_EndTransmit_IT
                0x08002164       0x1c build/stm32f3xx_hal_uart.o
                0x08002164                UART_EndTransmit_IT
 .text.UART_Receive_IT
                0x08002180       0x7c build/stm32f3xx_hal_uart.o
                0x08002180                UART_Receive_IT
 .text.HAL_UART_IRQHandler
                0x080021fc      0x158 build/stm32f3xx_hal_uart.o
                0x080021fc                HAL_UART_IRQHandler
 .text.HAL_UARTEx_WakeupCallback
                0x08002354        0x4 build/stm32f3xx_hal_uart_ex.o
                0x08002354                HAL_UARTEx_WakeupCallback
 .text.HAL_InitTick
                0x08002358       0x4c build/stm32f3xx_hal.o
                0x08002358                HAL_InitTick
 .text.HAL_Init
                0x080023a4       0x24 build/stm32f3xx_hal.o
                0x080023a4                HAL_Init
 .text.HAL_IncTick
                0x080023c8       0x18 build/stm32f3xx_hal.o
                0x080023c8                HAL_IncTick
 .text.HAL_GetTick
                0x080023e0        0xc build/stm32f3xx_hal.o
                0x080023e0                HAL_GetTick
 .text.HAL_Delay
                0x080023ec       0x28 build/stm32f3xx_hal.o
                0x080023ec                HAL_Delay
 .text.HAL_RCC_OscConfig
                0x08002414      0x628 build/stm32f3xx_hal_rcc.o
                0x08002414                HAL_RCC_OscConfig
 .text.HAL_RCC_GetSysClockFreq
                0x08002a3c       0x70 build/stm32f3xx_hal_rcc.o
                0x08002a3c                HAL_RCC_GetSysClockFreq
 .text.HAL_RCC_ClockConfig
                0x08002aac      0x1a4 build/stm32f3xx_hal_rcc.o
                0x08002aac                HAL_RCC_ClockConfig
 .text.HAL_RCC_GetHCLKFreq
                0x08002c50        0xc build/stm32f3xx_hal_rcc.o
                0x08002c50                HAL_RCC_GetHCLKFreq
 .text.HAL_RCC_GetPCLK1Freq
                0x08002c5c       0x2c build/stm32f3xx_hal_rcc.o
                0x08002c5c                HAL_RCC_GetPCLK1Freq
 .text.HAL_RCC_GetPCLK2Freq
                0x08002c88       0x2c build/stm32f3xx_hal_rcc.o
                0x08002c88                HAL_RCC_GetPCLK2Freq
 .text.HAL_RCCEx_PeriphCLKConfig
                0x08002cb4      0x260 build/stm32f3xx_hal_rcc_ex.o
                0x08002cb4                HAL_RCCEx_PeriphCLKConfig
 .text.HAL_GPIO_Init
                0x08002f14      0x1ac build/stm32f3xx_hal_gpio.o
                0x08002f14                HAL_GPIO_Init
 .text.HAL_GPIO_WritePin
                0x080030c0        0xc build/stm32f3xx_hal_gpio.o
                0x080030c0                HAL_GPIO_WritePin
 .text.HAL_GPIO_EXTI_Callback
                0x080030cc        0x4 build/stm32f3xx_hal_gpio.o
                0x080030cc                HAL_GPIO_EXTI_Callback
 .text.HAL_GPIO_EXTI_IRQHandler
                0x080030d0       0x18 build/stm32f3xx_hal_gpio.o
                0x080030d0                HAL_GPIO_EXTI_IRQHandler
 .text.HAL_DMA_Abort_IT
                0x080030e8       0x4c build/stm32f3xx_hal_dma.o
                0x080030e8                HAL_DMA_Abort_IT
 .text.HAL_NVIC_SetPriorityGrouping
                0x08003134       0x24 build/stm32f3xx_hal_cortex.o
                0x08003134                HAL_NVIC_SetPriorityGrouping
 .text.HAL_NVIC_SetPriority
                0x08003158       0x64 build/stm32f3xx_hal_cortex.o
                0x08003158                HAL_NVIC_SetPriority
 .text.HAL_NVIC_EnableIRQ
                0x080031bc       0x18 build/stm32f3xx_hal_cortex.o
                0x080031bc                HAL_NVIC_EnableIRQ
 .text.HAL_SYSTICK_Config
                0x080031d4       0x2c build/stm32f3xx_hal_cortex.o
                0x080031d4                HAL_SYSTICK_Config
 .text.HAL_SYSTICK_CLKSourceConfig
                0x08003200       0x20 build/stm32f3xx_hal_cortex.o
                0x08003200                HAL_SYSTICK_CLKSourceConfig
 .text.HAL_SYSTICK_Callback
                0x08003220        0x4 build/stm32f3xx_hal_cortex.o
                0x08003220                HAL_SYSTICK_Callback
 .text.HAL_SYSTICK_IRQHandler
                0x08003224        0x8 build/stm32f3xx_hal_cortex.o
                0x08003224                HAL_SYSTICK_IRQHandler
 .text.SystemInit
                0x0800322c       0x68 build/system_stm32f3xx.o
                0x0800322c                SystemInit
 .text._sbrk    0x08003294       0x44 build/syscalls.o
                0x08003294                _sbrk
 .text.Reset_Handler
                0x080032d8       0x50 build/startup_stm32f303xc.o
                0x080032d8                Reset_Handler
 .text.Default_Handler
                0x08003328        0x2 build/startup_stm32f303xc.o
                0x08003328                RTC_Alarm_IRQHandler
                0x08003328                TIM8_TRG_COM_IRQHandler
                0x08003328                TIM8_CC_IRQHandler
                0x08003328                DebugMon_Handler
                0x08003328                TIM1_CC_IRQHandler
                0x08003328                HardFault_Handler
                0x08003328                USB_HP_IRQHandler
                0x08003328                PVD_IRQHandler
                0x08003328                TAMP_STAMP_IRQHandler
                0x08003328                PendSV_Handler
                0x08003328                NMI_Handler
                0x08003328                EXTI3_IRQHandler
                0x08003328                USB_HP_CAN_TX_IRQHandler
                0x08003328                I2C2_EV_IRQHandler
                0x08003328                FPU_IRQHandler
                0x08003328                TIM1_UP_TIM16_IRQHandler
                0x08003328                UsageFault_Handler
                0x08003328                ADC1_2_IRQHandler
                0x08003328                CAN_SCE_IRQHandler
                0x08003328                TIM6_DAC_IRQHandler
                0x08003328                TIM8_UP_IRQHandler
                0x08003328                DMA2_Channel2_IRQHandler
                0x08003328                DMA1_Channel4_IRQHandler
                0x08003328                USART3_IRQHandler
                0x08003328                DMA1_Channel7_IRQHandler
                0x08003328                UART5_IRQHandler
                0x08003328                ADC3_IRQHandler
                0x08003328                TIM4_IRQHandler
                0x08003328                CAN_RX1_IRQHandler
                0x08003328                DMA2_Channel1_IRQHandler
                0x08003328                DMA1_Channel6_IRQHandler
                0x08003328                UART4_IRQHandler
                0x08003328                DMA2_Channel4_IRQHandler
                0x08003328                TIM3_IRQHandler
                0x08003328                RCC_IRQHandler
                0x08003328                DMA1_Channel1_IRQHandler
                0x08003328                Default_Handler
                0x08003328                USBWakeUp_RMP_IRQHandler
                0x08003328                EXTI15_10_IRQHandler
                0x08003328                TIM7_IRQHandler
                0x08003328                EXTI9_5_IRQHandler
                0x08003328                RTC_WKUP_IRQHandler
                0x08003328                SPI2_IRQHandler
                0x08003328                USB_LP_CAN_RX0_IRQHandler
                0x08003328                MemManage_Handler
                0x08003328                SVC_Handler
                0x08003328                DMA2_Channel5_IRQHandler
                0x08003328                DMA1_Channel5_IRQHandler
                0x08003328                USB_LP_IRQHandler
                0x08003328                EXTI4_IRQHandler
                0x08003328                TIM1_TRG_COM_TIM17_IRQHandler
                0x08003328                DMA1_Channel3_IRQHandler
                0x08003328                ADC4_IRQHandler
                0x08003328                WWDG_IRQHandler
                0x08003328                TIM2_IRQHandler
                0x08003328                COMP7_IRQHandler
                0x08003328                COMP1_2_3_IRQHandler
                0x08003328                EXTI1_IRQHandler
                0x08003328                USART2_IRQHandler
                0x08003328                COMP4_5_6_IRQHandler
                0x08003328                I2C2_ER_IRQHandler
                0x08003328                DMA1_Channel2_IRQHandler
                0x08003328                TIM8_BRK_IRQHandler
                0x08003328                FLASH_IRQHandler
                0x08003328                BusFault_Handler
                0x08003328                SPI3_IRQHandler
                0x08003328                USBWakeUp_IRQHandler
                0x08003328                DMA2_Channel3_IRQHandler
                0x08003328                EXTI2_TSC_IRQHandler
                0x08003328                TIM1_BRK_TIM15_IRQHandler
 .text.atoi     0x0800332a        0x8 /home/stm/tools/stm/gcc-arm-none-eabi/gcc-arm-none-eabi-4_9-2015q3/bin/../lib/gcc/arm-none-eabi/4.9.3/../../../../arm-none-eabi/lib/armv7e-m/fpu/libc_nano.a(lib_a-atoi.o)
                0x0800332a                atoi
 *fill*         0x08003332        0x2 
 .text.__errno  0x08003334        0xc /home/stm/tools/stm/gcc-arm-none-eabi/gcc-arm-none-eabi-4_9-2015q3/bin/../lib/gcc/arm-none-eabi/4.9.3/../../../../arm-none-eabi/lib/armv7e-m/fpu/libc_nano.a(lib_a-errno.o)
                0x08003334                __errno
 .text.__libc_init_array
                0x08003340       0x4c /home/stm/tools/stm/gcc-arm-none-eabi/gcc-arm-none-eabi-4_9-2015q3/bin/../lib/gcc/arm-none-eabi/4.9.3/../../../../arm-none-eabi/lib/armv7e-m/fpu/libc_nano.a(lib_a-init.o)
                0x08003340                __libc_init_array
 .text.__itoa   0x0800338c       0x2e /home/stm/tools/stm/gcc-arm-none-eabi/gcc-arm-none-eabi-4_9-2015q3/bin/../lib/gcc/arm-none-eabi/4.9.3/../../../../arm-none-eabi/lib/armv7e-m/fpu/libc_nano.a(lib_a-itoa.o)
                0x0800338c                __itoa
 .text.itoa     0x080033ba        0x4 /home/stm/tools/stm/gcc-arm-none-eabi/gcc-arm-none-eabi-4_9-2015q3/bin/../lib/gcc/arm-none-eabi/4.9.3/../../../../arm-none-eabi/lib/armv7e-m/fpu/libc_nano.a(lib_a-itoa.o)
                0x080033ba                itoa
 *fill*         0x080033be        0x2 
 .text.malloc   0x080033c0       0x10 /home/stm/tools/stm/gcc-arm-none-eabi/gcc-arm-none-eabi-4_9-2015q3/bin/../lib/gcc/arm-none-eabi/4.9.3/../../../../arm-none-eabi/lib/armv7e-m/fpu/libc_nano.a(lib_a-malloc.o)
                0x080033c0                malloc
 .text.memset   0x080033d0       0x10 /home/stm/tools/stm/gcc-arm-none-eabi/gcc-arm-none-eabi-4_9-2015q3/bin/../lib/gcc/arm-none-eabi/4.9.3/../../../../arm-none-eabi/lib/armv7e-m/fpu/libc_nano.a(lib_a-memset.o)
                0x080033d0                memset
 .text._malloc_r
                0x080033e0       0xac /home/stm/tools/stm/gcc-arm-none-eabi/gcc-arm-none-eabi-4_9-2015q3/bin/../lib/gcc/arm-none-eabi/4.9.3/../../../../arm-none-eabi/lib/armv7e-m/fpu/libc_nano.a(lib_a-nano-mallocr.o)
                0x080033e0                _malloc_r
 .text.__cvt    0x0800348c       0xc4 /home/stm/tools/stm/gcc-arm-none-eabi/gcc-arm-none-eabi-4_9-2015q3/bin/../lib/gcc/arm-none-eabi/4.9.3/../../../../arm-none-eabi/lib/armv7e-m/fpu/libc_nano.a(lib_a-nano-vfprintf_float.o)
                0x0800348c                __cvt
 .text.__exponent
                0x08003550       0x60 /home/stm/tools/stm/gcc-arm-none-eabi/gcc-arm-none-eabi-4_9-2015q3/bin/../lib/gcc/arm-none-eabi/4.9.3/../../../../arm-none-eabi/lib/armv7e-m/fpu/libc_nano.a(lib_a-nano-vfprintf_float.o)
                0x08003550                __exponent
 .text._printf_float
                0x080035b0      0x47c /home/stm/tools/stm/gcc-arm-none-eabi/gcc-arm-none-eabi-4_9-2015q3/bin/../lib/gcc/arm-none-eabi/4.9.3/../../../../arm-none-eabi/lib/armv7e-m/fpu/libc_nano.a(lib_a-nano-vfprintf_float.o)
                0x080035b0                _printf_float
 .text._printf_common
                0x08003a2c       0xea /home/stm/tools/stm/gcc-arm-none-eabi/gcc-arm-none-eabi-4_9-2015q3/bin/../lib/gcc/arm-none-eabi/4.9.3/../../../../arm-none-eabi/lib/armv7e-m/fpu/libc_nano.a(lib_a-nano-vfprintf_i.o)
                0x08003a2c                _printf_common
 *fill*         0x08003b16        0x2 
 .text.__fpclassifyd
                0x08003b18       0x58 /home/stm/tools/stm/gcc-arm-none-eabi/gcc-arm-none-eabi-4_9-2015q3/bin/../lib/gcc/arm-none-eabi/4.9.3/../../../../arm-none-eabi/lib/armv7e-m/fpu/libc_nano.a(lib_a-s_fpclassify.o)
                0x08003b18                __fpclassifyd
 .text._sbrk_r  0x08003b70       0x20 /home/stm/tools/stm/gcc-arm-none-eabi/gcc-arm-none-eabi-4_9-2015q3/bin/../lib/gcc/arm-none-eabi/4.9.3/../../../../arm-none-eabi/lib/armv7e-m/fpu/libc_nano.a(lib_a-sbrkr.o)
                0x08003b70                _sbrk_r
 .text.strlen   0x08003b90       0x10 /home/stm/tools/stm/gcc-arm-none-eabi/gcc-arm-none-eabi-4_9-2015q3/bin/../lib/gcc/arm-none-eabi/4.9.3/../../../../arm-none-eabi/lib/armv7e-m/fpu/libc_nano.a(lib_a-strlen.o)
                0x08003b90                strlen
 .text.strstr   0x08003ba0       0x30 /home/stm/tools/stm/gcc-arm-none-eabi/gcc-arm-none-eabi-4_9-2015q3/bin/../lib/gcc/arm-none-eabi/4.9.3/../../../../arm-none-eabi/lib/armv7e-m/fpu/libc_nano.a(lib_a-strstr.o)
                0x08003ba0                strstr
 .text.strtok   0x08003bd0       0x64 /home/stm/tools/stm/gcc-arm-none-eabi/gcc-arm-none-eabi-4_9-2015q3/bin/../lib/gcc/arm-none-eabi/4.9.3/../../../../arm-none-eabi/lib/armv7e-m/fpu/libc_nano.a(lib_a-strtok.o)
                0x08003bd0                strtok
 .text.__strtok_r
                0x08003c34       0x56 /home/stm/tools/stm/gcc-arm-none-eabi/gcc-arm-none-eabi-4_9-2015q3/bin/../lib/gcc/arm-none-eabi/4.9.3/../../../../arm-none-eabi/lib/armv7e-m/fpu/libc_nano.a(lib_a-strtok_r.o)
                0x08003c34                __strtok_r
 *fill*         0x08003c8a        0x2 
 .text._strtol_r
                0x08003c8c      0x10c /home/stm/tools/stm/gcc-arm-none-eabi/gcc-arm-none-eabi-4_9-2015q3/bin/../lib/gcc/arm-none-eabi/4.9.3/../../../../arm-none-eabi/lib/armv7e-m/fpu/libc_nano.a(lib_a-strtol.o)
                0x08003c8c                _strtol_r
 .text.strtol   0x08003d98       0x1c /home/stm/tools/stm/gcc-arm-none-eabi/gcc-arm-none-eabi-4_9-2015q3/bin/../lib/gcc/arm-none-eabi/4.9.3/../../../../arm-none-eabi/lib/armv7e-m/fpu/libc_nano.a(lib_a-strtol.o)
                0x08003d98                strtol
 .text.__utoa   0x08003db4       0x78 /home/stm/tools/stm/gcc-arm-none-eabi/gcc-arm-none-eabi-4_9-2015q3/bin/../lib/gcc/arm-none-eabi/4.9.3/../../../../arm-none-eabi/lib/armv7e-m/fpu/libc_nano.a(lib_a-utoa.o)
                0x08003db4                __utoa
 .text.quorem   0x08003e2c      0x11a /home/stm/tools/stm/gcc-arm-none-eabi/gcc-arm-none-eabi-4_9-2015q3/bin/../lib/gcc/arm-none-eabi/4.9.3/../../../../arm-none-eabi/lib/armv7e-m/fpu/libc_nano.a(lib_a-dtoa.o)
 *fill*         0x08003f46        0x2 
 .text._dtoa_r  0x08003f48      0xb80 /home/stm/tools/stm/gcc-arm-none-eabi/gcc-arm-none-eabi-4_9-2015q3/bin/../lib/gcc/arm-none-eabi/4.9.3/../../../../arm-none-eabi/lib/armv7e-m/fpu/libc_nano.a(lib_a-dtoa.o)
                0x08003f48                _dtoa_r
 .text._localeconv_r
                0x08004ac8        0x8 /home/stm/tools/stm/gcc-arm-none-eabi/gcc-arm-none-eabi-4_9-2015q3/bin/../lib/gcc/arm-none-eabi/4.9.3/../../../../arm-none-eabi/lib/armv7e-m/fpu/libc_nano.a(lib_a-locale.o)
                0x08004ac8                _localeconv_r
 .text.memcpy   0x08004ad0       0x16 /home/stm/tools/stm/gcc-arm-none-eabi/gcc-arm-none-eabi-4_9-2015q3/bin/../lib/gcc/arm-none-eabi/4.9.3/../../../../arm-none-eabi/lib/armv7e-m/fpu/libc_nano.a(lib_a-memcpy.o)
                0x08004ad0                memcpy
 .text._Balloc  0x08004ae6       0x6a /home/stm/tools/stm/gcc-arm-none-eabi/gcc-arm-none-eabi-4_9-2015q3/bin/../lib/gcc/arm-none-eabi/4.9.3/../../../../arm-none-eabi/lib/armv7e-m/fpu/libc_nano.a(lib_a-mprec.o)
                0x08004ae6                _Balloc
 .text._Bfree   0x08004b50       0x2e /home/stm/tools/stm/gcc-arm-none-eabi/gcc-arm-none-eabi-4_9-2015q3/bin/../lib/gcc/arm-none-eabi/4.9.3/../../../../arm-none-eabi/lib/armv7e-m/fpu/libc_nano.a(lib_a-mprec.o)
                0x08004b50                _Bfree
 .text.__multadd
                0x08004b7e       0x7c /home/stm/tools/stm/gcc-arm-none-eabi/gcc-arm-none-eabi-4_9-2015q3/bin/../lib/gcc/arm-none-eabi/4.9.3/../../../../arm-none-eabi/lib/armv7e-m/fpu/libc_nano.a(lib_a-mprec.o)
                0x08004b7e                __multadd
 .text.__hi0bits
                0x08004bfa       0x40 /home/stm/tools/stm/gcc-arm-none-eabi/gcc-arm-none-eabi-4_9-2015q3/bin/../lib/gcc/arm-none-eabi/4.9.3/../../../../arm-none-eabi/lib/armv7e-m/fpu/libc_nano.a(lib_a-mprec.o)
                0x08004bfa                __hi0bits
 .text.__lo0bits
                0x08004c3a       0x5a /home/stm/tools/stm/gcc-arm-none-eabi/gcc-arm-none-eabi-4_9-2015q3/bin/../lib/gcc/arm-none-eabi/4.9.3/../../../../arm-none-eabi/lib/armv7e-m/fpu/libc_nano.a(lib_a-mprec.o)
                0x08004c3a                __lo0bits
 .text.__i2b    0x08004c94       0x12 /home/stm/tools/stm/gcc-arm-none-eabi/gcc-arm-none-eabi-4_9-2015q3/bin/../lib/gcc/arm-none-eabi/4.9.3/../../../../arm-none-eabi/lib/armv7e-m/fpu/libc_nano.a(lib_a-mprec.o)
                0x08004c94                __i2b
 .text.__multiply
                0x08004ca6      0x122 /home/stm/tools/stm/gcc-arm-none-eabi/gcc-arm-none-eabi-4_9-2015q3/bin/../lib/gcc/arm-none-eabi/4.9.3/../../../../arm-none-eabi/lib/armv7e-m/fpu/libc_nano.a(lib_a-mprec.o)
                0x08004ca6                __multiply
 .text.__pow5mult
                0x08004dc8       0x9c /home/stm/tools/stm/gcc-arm-none-eabi/gcc-arm-none-eabi-4_9-2015q3/bin/../lib/gcc/arm-none-eabi/4.9.3/../../../../arm-none-eabi/lib/armv7e-m/fpu/libc_nano.a(lib_a-mprec.o)
                0x08004dc8                __pow5mult
 .text.__lshift
                0x08004e64       0xa6 /home/stm/tools/stm/gcc-arm-none-eabi/gcc-arm-none-eabi-4_9-2015q3/bin/../lib/gcc/arm-none-eabi/4.9.3/../../../../arm-none-eabi/lib/armv7e-m/fpu/libc_nano.a(lib_a-mprec.o)
                0x08004e64                __lshift
 .text.__mcmp   0x08004f0a       0x38 /home/stm/tools/stm/gcc-arm-none-eabi/gcc-arm-none-eabi-4_9-2015q3/bin/../lib/gcc/arm-none-eabi/4.9.3/../../../../arm-none-eabi/lib/armv7e-m/fpu/libc_nano.a(lib_a-mprec.o)
                0x08004f0a                __mcmp
 .text.__mdiff  0x08004f42       0xbe /home/stm/tools/stm/gcc-arm-none-eabi/gcc-arm-none-eabi-4_9-2015q3/bin/../lib/gcc/arm-none-eabi/4.9.3/../../../../arm-none-eabi/lib/armv7e-m/fpu/libc_nano.a(lib_a-mprec.o)
                0x08004f42                __mdiff
 .text.__d2b    0x08005000       0xa4 /home/stm/tools/stm/gcc-arm-none-eabi/gcc-arm-none-eabi-4_9-2015q3/bin/../lib/gcc/arm-none-eabi/4.9.3/../../../../arm-none-eabi/lib/armv7e-m/fpu/libc_nano.a(lib_a-mprec.o)
                0x08005000                __d2b
 .text._calloc_r
                0x080050a4       0x1c /home/stm/tools/stm/gcc-arm-none-eabi/gcc-arm-none-eabi-4_9-2015q3/bin/../lib/gcc/arm-none-eabi/4.9.3/../../../../arm-none-eabi/lib/armv7e-m/fpu/libc_nano.a(lib_a-nano-callocr.o)
                0x080050a4                _calloc_r
 *(.glue_7)
 .glue_7        0x00000000        0x0 linker stubs
 *(.glue_7t)
 .glue_7t       0x00000000        0x0 linker stubs
 *(.eh_frame)
 .eh_frame      0x080050c0        0x0 /home/stm/tools/stm/gcc-arm-none-eabi/gcc-arm-none-eabi-4_9-2015q3/bin/../lib/gcc/arm-none-eabi/4.9.3/armv7e-m/fpu/crtbegin.o
 *(.init)
 .init          0x080050c0        0x4 /home/stm/tools/stm/gcc-arm-none-eabi/gcc-arm-none-eabi-4_9-2015q3/bin/../lib/gcc/arm-none-eabi/4.9.3/armv7e-m/fpu/crti.o
                0x080050c0                _init
 .init          0x080050c4        0x8 /home/stm/tools/stm/gcc-arm-none-eabi/gcc-arm-none-eabi-4_9-2015q3/bin/../lib/gcc/arm-none-eabi/4.9.3/armv7e-m/fpu/crtn.o
 *(.fini)
 .fini          0x080050cc        0x4 /home/stm/tools/stm/gcc-arm-none-eabi/gcc-arm-none-eabi-4_9-2015q3/bin/../lib/gcc/arm-none-eabi/4.9.3/armv7e-m/fpu/crti.o
                0x080050cc                _fini
 .fini          0x080050d0        0x8 /home/stm/tools/stm/gcc-arm-none-eabi/gcc-arm-none-eabi-4_9-2015q3/bin/../lib/gcc/arm-none-eabi/4.9.3/armv7e-m/fpu/crtn.o
                0x080050d8                . = ALIGN (0x4)
                0x080050d8                _etext = .

.vfp11_veneer   0x080050d8        0x0
 .vfp11_veneer  0x00000000        0x0 linker stubs

.v4_bx          0x080050d8        0x0
 .v4_bx         0x00000000        0x0 linker stubs

.iplt           0x080050d8        0x0
 .iplt          0x00000000        0x0 /home/stm/tools/stm/gcc-arm-none-eabi/gcc-arm-none-eabi-4_9-2015q3/bin/../lib/gcc/arm-none-eabi/4.9.3/armv7e-m/fpu/crtbegin.o

.rodata         0x080050d8      0x66c
                0x080050d8                . = ALIGN (0x4)
 *(.rodata)
 *(.rodata*)
 .rodata.str1.4
                0x080050d8        0xb build/main.o
 *fill*         0x080050e3        0x1 
 .rodata.str1.4
                0x080050e4      0x3dc build/usart.o
                                0x3dd (size before relaxing)
 .rodata.aPredivFactorTable
                0x080054c0       0x10 build/stm32f3xx_hal_rcc.o
                0x080054c0                aPredivFactorTable
 .rodata.aPLLMULFactorTable
                0x080054d0       0x10 build/stm32f3xx_hal_rcc.o
                0x080054d0                aPLLMULFactorTable
 .rodata.AHBPrescTable
                0x080054e0       0x10 build/system_stm32f3xx.o
                0x080054e0                AHBPrescTable
 .rodata.APBPrescTable
                0x080054f0        0x8 build/system_stm32f3xx.o
                0x080054f0                APBPrescTable
 .rodata.str1.1
                0x080054f8        0x2 /home/stm/tools/stm/gcc-arm-none-eabi/gcc-arm-none-eabi-4_9-2015q3/bin/../lib/gcc/arm-none-eabi/4.9.3/../../../../arm-none-eabi/lib/armv7e-m/fpu/libc_nano.a(lib_a-impure.o)
 .rodata.str1.1
                0x080054fa       0x12 /home/stm/tools/stm/gcc-arm-none-eabi/gcc-arm-none-eabi-4_9-2015q3/bin/../lib/gcc/arm-none-eabi/4.9.3/../../../../arm-none-eabi/lib/armv7e-m/fpu/libc_nano.a(lib_a-nano-vfprintf_float.o)
 .rodata.str1.1
                0x0800550c       0x25 /home/stm/tools/stm/gcc-arm-none-eabi/gcc-arm-none-eabi-4_9-2015q3/bin/../lib/gcc/arm-none-eabi/4.9.3/../../../../arm-none-eabi/lib/armv7e-m/fpu/libc_nano.a(lib_a-utoa.o)
 .rodata._ctype_
                0x08005531      0x101 /home/stm/tools/stm/gcc-arm-none-eabi/gcc-arm-none-eabi-4_9-2015q3/bin/../lib/gcc/arm-none-eabi/4.9.3/../../../../arm-none-eabi/lib/armv7e-m/fpu/libc_nano.a(lib_a-ctype_.o)
                0x08005531                _ctype_
 .rodata.str1.1
                0x08005632        0xd /home/stm/tools/stm/gcc-arm-none-eabi/gcc-arm-none-eabi-4_9-2015q3/bin/../lib/gcc/arm-none-eabi/4.9.3/../../../../arm-none-eabi/lib/armv7e-m/fpu/libc_nano.a(lib_a-dtoa.o)
                                  0xf (size before relaxing)
 .rodata.str1.1
                0x0800563f        0x8 /home/stm/tools/stm/gcc-arm-none-eabi/gcc-arm-none-eabi-4_9-2015q3/bin/../lib/gcc/arm-none-eabi/4.9.3/../../../../arm-none-eabi/lib/armv7e-m/fpu/libc_nano.a(lib_a-locale.o)
                                  0xb (size before relaxing)
 *fill*         0x08005647        0x1 
 .rodata.__mprec_tens
                0x08005648       0xc8 /home/stm/tools/stm/gcc-arm-none-eabi/gcc-arm-none-eabi-4_9-2015q3/bin/../lib/gcc/arm-none-eabi/4.9.3/../../../../arm-none-eabi/lib/armv7e-m/fpu/libc_nano.a(lib_a-mprec.o)
                0x08005648                __mprec_tens
 .rodata.__mprec_bigtens
                0x08005710       0x28 /home/stm/tools/stm/gcc-arm-none-eabi/gcc-arm-none-eabi-4_9-2015q3/bin/../lib/gcc/arm-none-eabi/4.9.3/../../../../arm-none-eabi/lib/armv7e-m/fpu/libc_nano.a(lib_a-mprec.o)
                0x08005710                __mprec_bigtens
 .rodata.p05.5314
                0x08005738        0xc /home/stm/tools/stm/gcc-arm-none-eabi/gcc-arm-none-eabi-4_9-2015q3/bin/../lib/gcc/arm-none-eabi/4.9.3/../../../../arm-none-eabi/lib/armv7e-m/fpu/libc_nano.a(lib_a-mprec.o)
                0x08005744                . = ALIGN (0x4)

.rel.dyn        0x08005744        0x0
 .rel.iplt      0x00000000        0x0 /home/stm/tools/stm/gcc-arm-none-eabi/gcc-arm-none-eabi-4_9-2015q3/bin/../lib/gcc/arm-none-eabi/4.9.3/armv7e-m/fpu/crtbegin.o

.ARM.extab
 *(.ARM.extab* .gnu.linkonce.armextab.*)

.ARM            0x08005744        0x0
                0x08005744                __exidx_start = .
 *(.ARM.exidx*)
                0x08005744                __exidx_end = .

.preinit_array  0x08005744        0x0
                0x08005744                PROVIDE (__preinit_array_start, .)
 *(.preinit_array*)
                0x08005744                PROVIDE (__preinit_array_end, .)

.init_array     0x08005744        0x4
                0x08005744                PROVIDE (__init_array_start, .)
 *(SORT(.init_array.*))
 *(.init_array*)
 .init_array    0x08005744        0x4 /home/stm/tools/stm/gcc-arm-none-eabi/gcc-arm-none-eabi-4_9-2015q3/bin/../lib/gcc/arm-none-eabi/4.9.3/armv7e-m/fpu/crtbegin.o
                0x08005748                PROVIDE (__init_array_end, .)

.fini_array     0x08005748        0x4
                0x08005748                PROVIDE (__fini_array_start, .)
 *(SORT(.fini_array.*))
 *(.fini_array*)
 .fini_array    0x08005748        0x4 /home/stm/tools/stm/gcc-arm-none-eabi/gcc-arm-none-eabi-4_9-2015q3/bin/../lib/gcc/arm-none-eabi/4.9.3/armv7e-m/fpu/crtbegin.o
                0x0800574c                PROVIDE (__fini_array_end, .)
                0x0800574c                _sidata = LOADADDR (.data)

.data           0x20000000       0xac load address 0x0800574c
                0x20000000                . = ALIGN (0x4)
                0x20000000                _sdata = .
 *(.data)
 *(.data*)
 .data.uwTickPrio
                0x20000000        0x4 build/stm32f3xx_hal.o
                0x20000000                uwTickPrio
 .data.uwTickFreq
                0x20000004        0x1 build/stm32f3xx_hal.o
                0x20000004                uwTickFreq
 *fill*         0x20000005        0x3 
 .data.SystemCoreClock
                0x20000008        0x4 build/system_stm32f3xx.o
                0x20000008                SystemCoreClock
 .data.impure_data
                0x2000000c       0x60 /home/stm/tools/stm/gcc-arm-none-eabi/gcc-arm-none-eabi-4_9-2015q3/bin/../lib/gcc/arm-none-eabi/4.9.3/../../../../arm-none-eabi/lib/armv7e-m/fpu/libc_nano.a(lib_a-impure.o)
 .data._impure_ptr
                0x2000006c        0x4 /home/stm/tools/stm/gcc-arm-none-eabi/gcc-arm-none-eabi-4_9-2015q3/bin/../lib/gcc/arm-none-eabi/4.9.3/../../../../arm-none-eabi/lib/armv7e-m/fpu/libc_nano.a(lib_a-impure.o)
                0x2000006c                _impure_ptr
 .data.__ctype_ptr__
                0x20000070        0x4 /home/stm/tools/stm/gcc-arm-none-eabi/gcc-arm-none-eabi-4_9-2015q3/bin/../lib/gcc/arm-none-eabi/4.9.3/../../../../arm-none-eabi/lib/armv7e-m/fpu/libc_nano.a(lib_a-ctype_.o)
                0x20000070                __ctype_ptr__
 .data.lconv    0x20000074       0x38 /home/stm/tools/stm/gcc-arm-none-eabi/gcc-arm-none-eabi-4_9-2015q3/bin/../lib/gcc/arm-none-eabi/4.9.3/../../../../arm-none-eabi/lib/armv7e-m/fpu/libc_nano.a(lib_a-locale.o)
                0x200000ac                . = ALIGN (0x4)
                0x200000ac                _edata = .
                0x080057f8                _siccmram = LOADADDR (.ccmram)

.jcr            0x200000ac        0x0 load address 0x080057f8
 .jcr           0x200000ac        0x0 /home/stm/tools/stm/gcc-arm-none-eabi/gcc-arm-none-eabi-4_9-2015q3/bin/../lib/gcc/arm-none-eabi/4.9.3/armv7e-m/fpu/crtbegin.o

.igot.plt       0x200000ac        0x0 load address 0x080057f8
 .igot.plt      0x00000000        0x0 /home/stm/tools/stm/gcc-arm-none-eabi/gcc-arm-none-eabi-4_9-2015q3/bin/../lib/gcc/arm-none-eabi/4.9.3/armv7e-m/fpu/crtbegin.o

.ccmram         0x10000000        0x0 load address 0x080057f8
                0x10000000                . = ALIGN (0x4)
                0x10000000                _sccmram = .
 *(.ccmram)
 *(.ccmram*)
                0x10000000                . = ALIGN (0x4)
                0x10000000                _eccmram = .
                0x10000000                . = ALIGN (0x4)

.bss            0x200000ac      0x260
                0x200000ac                _sbss = .
                0x200000ac                __bss_start__ = _sbss
 *(.bss)
 .bss           0x200000ac       0x1c /home/stm/tools/stm/gcc-arm-none-eabi/gcc-arm-none-eabi-4_9-2015q3/bin/../lib/gcc/arm-none-eabi/4.9.3/armv7e-m/fpu/crtbegin.o
 *(.bss*)
 .bss.counter   0x200000c8        0x1 build/usart.o
                0x200000c8                counter
 *fill*         0x200000c9        0x3 
 .bss.heap_end.5847
                0x200000cc        0x4 build/syscalls.o
 .bss.__malloc_sbrk_start
                0x200000d0        0x4 /home/stm/tools/stm/gcc-arm-none-eabi/gcc-arm-none-eabi-4_9-2015q3/bin/../lib/gcc/arm-none-eabi/4.9.3/../../../../arm-none-eabi/lib/armv7e-m/fpu/libc_nano.a(lib_a-nano-mallocr.o)
                0x200000d0                __malloc_sbrk_start
 .bss.__malloc_free_list
                0x200000d4        0x4 /home/stm/tools/stm/gcc-arm-none-eabi/gcc-arm-none-eabi-4_9-2015q3/bin/../lib/gcc/arm-none-eabi/4.9.3/../../../../arm-none-eabi/lib/armv7e-m/fpu/libc_nano.a(lib_a-nano-mallocr.o)
                0x200000d4                __malloc_free_list
 *(COMMON)
 COMMON         0x200000d8        0x1 build/main.o
                0x200000d8                flag
 *fill*         0x200000d9        0x3 
 COMMON         0x200000dc       0x4c build/i2c.o
                0x200000dc                hi2c1
 COMMON         0x20000128       0x64 build/spi.o
                0x20000128                hspi1
 COMMON         0x2000018c      0x178 build/usart.o
                0x2000018c                info
                0x20000190                info2
                0x20000290                huart1
                0x20000300                buffer
 COMMON         0x20000304        0x4 build/stm32f3xx_hal.o
                0x20000304                uwTick
 COMMON         0x20000308        0x4 /home/stm/tools/stm/gcc-arm-none-eabi/gcc-arm-none-eabi-4_9-2015q3/bin/../lib/gcc/arm-none-eabi/4.9.3/../../../../arm-none-eabi/lib/armv7e-m/fpu/libc_nano.a(lib_a-reent.o)
                0x20000308                errno
                0x2000030c                . = ALIGN (0x4)
                0x2000030c                _ebss = .
                0x2000030c                __bss_end__ = _ebss

._user_heap_stack
                0x2000030c      0x604
                0x20000310                . = ALIGN (0x8)
 *fill*         0x2000030c        0x4 
                0x20000310                PROVIDE (end, .)
                0x20000310                PROVIDE (_end, .)
                0x20000510                . = (. + _Min_Heap_Size)
 *fill*         0x20000310      0x200 
                0x20000910                . = (. + _Min_Stack_Size)
 *fill*         0x20000510      0x400 
                0x20000910                . = ALIGN (0x8)

/DISCARD/
 libc.a(*)
 libm.a(*)
 libgcc.a(*)

.ARM.attributes
                0x00000000       0x30
 *(.ARM.attributes)
 .ARM.attributes
                0x00000000       0x22 /home/stm/tools/stm/gcc-arm-none-eabi/gcc-arm-none-eabi-4_9-2015q3/bin/../lib/gcc/arm-none-eabi/4.9.3/armv7e-m/fpu/crti.o
 .ARM.attributes
                0x00000022       0x34 /home/stm/tools/stm/gcc-arm-none-eabi/gcc-arm-none-eabi-4_9-2015q3/bin/../lib/gcc/arm-none-eabi/4.9.3/armv7e-m/fpu/crtbegin.o
 .ARM.attributes
                0x00000056       0x39 build/main.o
 .ARM.attributes
                0x0000008f       0x39 build/gpio.o
 .ARM.attributes
                0x000000c8       0x39 build/i2c.o
 .ARM.attributes
                0x00000101       0x39 build/spi.o
 .ARM.attributes
                0x0000013a       0x39 build/usart.o
 .ARM.attributes
                0x00000173       0x39 build/stm32f3xx_it.o
 .ARM.attributes
                0x000001ac       0x39 build/stm32f3xx_hal_msp.o
 .ARM.attributes
                0x000001e5       0x39 build/stm32f3xx_hal_i2c.o
 .ARM.attributes
                0x0000021e       0x39 build/stm32f3xx_hal_spi.o
 .ARM.attributes
                0x00000257       0x39 build/stm32f3xx_hal_uart.o
 .ARM.attributes
                0x00000290       0x39 build/stm32f3xx_hal_uart_ex.o
 .ARM.attributes
                0x000002c9       0x39 build/stm32f3xx_hal.o
 .ARM.attributes
                0x00000302       0x39 build/stm32f3xx_hal_rcc.o
 .ARM.attributes
                0x0000033b       0x39 build/stm32f3xx_hal_rcc_ex.o
 .ARM.attributes
                0x00000374       0x39 build/stm32f3xx_hal_gpio.o
 .ARM.attributes
                0x000003ad       0x39 build/stm32f3xx_hal_dma.o
 .ARM.attributes
                0x000003e6       0x39 build/stm32f3xx_hal_cortex.o
 .ARM.attributes
                0x0000041f       0x39 build/system_stm32f3xx.o
 .ARM.attributes
                0x00000458       0x39 build/syscalls.o
 .ARM.attributes
                0x00000491       0x21 build/startup_stm32f303xc.o
 .ARM.attributes
                0x000004b2       0x34 /home/stm/tools/stm/gcc-arm-none-eabi/gcc-arm-none-eabi-4_9-2015q3/bin/../lib/gcc/arm-none-eabi/4.9.3/../../../../arm-none-eabi/lib/armv7e-m/fpu/libc_nano.a(lib_a-atoi.o)
 .ARM.attributes
                0x000004e6       0x34 /home/stm/tools/stm/gcc-arm-none-eabi/gcc-arm-none-eabi-4_9-2015q3/bin/../lib/gcc/arm-none-eabi/4.9.3/../../../../arm-none-eabi/lib/armv7e-m/fpu/libc_nano.a(lib_a-errno.o)
 .ARM.attributes
                0x0000051a       0x34 /home/stm/tools/stm/gcc-arm-none-eabi/gcc-arm-none-eabi-4_9-2015q3/bin/../lib/gcc/arm-none-eabi/4.9.3/../../../../arm-none-eabi/lib/armv7e-m/fpu/libc_nano.a(lib_a-impure.o)
 .ARM.attributes
                0x0000054e       0x34 /home/stm/tools/stm/gcc-arm-none-eabi/gcc-arm-none-eabi-4_9-2015q3/bin/../lib/gcc/arm-none-eabi/4.9.3/../../../../arm-none-eabi/lib/armv7e-m/fpu/libc_nano.a(lib_a-init.o)
 .ARM.attributes
                0x00000582       0x34 /home/stm/tools/stm/gcc-arm-none-eabi/gcc-arm-none-eabi-4_9-2015q3/bin/../lib/gcc/arm-none-eabi/4.9.3/../../../../arm-none-eabi/lib/armv7e-m/fpu/libc_nano.a(lib_a-itoa.o)
 .ARM.attributes
                0x000005b6       0x34 /home/stm/tools/stm/gcc-arm-none-eabi/gcc-arm-none-eabi-4_9-2015q3/bin/../lib/gcc/arm-none-eabi/4.9.3/../../../../arm-none-eabi/lib/armv7e-m/fpu/libc_nano.a(lib_a-malloc.o)
 .ARM.attributes
                0x000005ea       0x34 /home/stm/tools/stm/gcc-arm-none-eabi/gcc-arm-none-eabi-4_9-2015q3/bin/../lib/gcc/arm-none-eabi/4.9.3/../../../../arm-none-eabi/lib/armv7e-m/fpu/libc_nano.a(lib_a-memset.o)
 .ARM.attributes
                0x0000061e       0x34 /home/stm/tools/stm/gcc-arm-none-eabi/gcc-arm-none-eabi-4_9-2015q3/bin/../lib/gcc/arm-none-eabi/4.9.3/../../../../arm-none-eabi/lib/armv7e-m/fpu/libc_nano.a(lib_a-nano-mallocr.o)
 .ARM.attributes
                0x00000652       0x34 /home/stm/tools/stm/gcc-arm-none-eabi/gcc-arm-none-eabi-4_9-2015q3/bin/../lib/gcc/arm-none-eabi/4.9.3/../../../../arm-none-eabi/lib/armv7e-m/fpu/libc_nano.a(lib_a-nano-vfprintf_float.o)
 .ARM.attributes
                0x00000686       0x34 /home/stm/tools/stm/gcc-arm-none-eabi/gcc-arm-none-eabi-4_9-2015q3/bin/../lib/gcc/arm-none-eabi/4.9.3/../../../../arm-none-eabi/lib/armv7e-m/fpu/libc_nano.a(lib_a-nano-vfprintf_i.o)
 .ARM.attributes
                0x000006ba       0x34 /home/stm/tools/stm/gcc-arm-none-eabi/gcc-arm-none-eabi-4_9-2015q3/bin/../lib/gcc/arm-none-eabi/4.9.3/../../../../arm-none-eabi/lib/armv7e-m/fpu/libc_nano.a(lib_a-s_fpclassify.o)
 .ARM.attributes
                0x000006ee       0x34 /home/stm/tools/stm/gcc-arm-none-eabi/gcc-arm-none-eabi-4_9-2015q3/bin/../lib/gcc/arm-none-eabi/4.9.3/../../../../arm-none-eabi/lib/armv7e-m/fpu/libc_nano.a(lib_a-sbrkr.o)
 .ARM.attributes
                0x00000722       0x34 /home/stm/tools/stm/gcc-arm-none-eabi/gcc-arm-none-eabi-4_9-2015q3/bin/../lib/gcc/arm-none-eabi/4.9.3/../../../../arm-none-eabi/lib/armv7e-m/fpu/libc_nano.a(lib_a-strlen.o)
 .ARM.attributes
                0x00000756       0x34 /home/stm/tools/stm/gcc-arm-none-eabi/gcc-arm-none-eabi-4_9-2015q3/bin/../lib/gcc/arm-none-eabi/4.9.3/../../../../arm-none-eabi/lib/armv7e-m/fpu/libc_nano.a(lib_a-strstr.o)
 .ARM.attributes
                0x0000078a       0x34 /home/stm/tools/stm/gcc-arm-none-eabi/gcc-arm-none-eabi-4_9-2015q3/bin/../lib/gcc/arm-none-eabi/4.9.3/../../../../arm-none-eabi/lib/armv7e-m/fpu/libc_nano.a(lib_a-strtok.o)
 .ARM.attributes
                0x000007be       0x34 /home/stm/tools/stm/gcc-arm-none-eabi/gcc-arm-none-eabi-4_9-2015q3/bin/../lib/gcc/arm-none-eabi/4.9.3/../../../../arm-none-eabi/lib/armv7e-m/fpu/libc_nano.a(lib_a-strtok_r.o)
 .ARM.attributes
                0x000007f2       0x34 /home/stm/tools/stm/gcc-arm-none-eabi/gcc-arm-none-eabi-4_9-2015q3/bin/../lib/gcc/arm-none-eabi/4.9.3/../../../../arm-none-eabi/lib/armv7e-m/fpu/libc_nano.a(lib_a-strtol.o)
 .ARM.attributes
                0x00000826       0x34 /home/stm/tools/stm/gcc-arm-none-eabi/gcc-arm-none-eabi-4_9-2015q3/bin/../lib/gcc/arm-none-eabi/4.9.3/../../../../arm-none-eabi/lib/armv7e-m/fpu/libc_nano.a(lib_a-utoa.o)
 .ARM.attributes
                0x0000085a       0x34 /home/stm/tools/stm/gcc-arm-none-eabi/gcc-arm-none-eabi-4_9-2015q3/bin/../lib/gcc/arm-none-eabi/4.9.3/../../../../arm-none-eabi/lib/armv7e-m/fpu/libc_nano.a(lib_a-ctype_.o)
 .ARM.attributes
                0x0000088e       0x34 /home/stm/tools/stm/gcc-arm-none-eabi/gcc-arm-none-eabi-4_9-2015q3/bin/../lib/gcc/arm-none-eabi/4.9.3/../../../../arm-none-eabi/lib/armv7e-m/fpu/libc_nano.a(lib_a-dtoa.o)
 .ARM.attributes
                0x000008c2       0x34 /home/stm/tools/stm/gcc-arm-none-eabi/gcc-arm-none-eabi-4_9-2015q3/bin/../lib/gcc/arm-none-eabi/4.9.3/../../../../arm-none-eabi/lib/armv7e-m/fpu/libc_nano.a(lib_a-locale.o)
 .ARM.attributes
                0x000008f6       0x34 /home/stm/tools/stm/gcc-arm-none-eabi/gcc-arm-none-eabi-4_9-2015q3/bin/../lib/gcc/arm-none-eabi/4.9.3/../../../../arm-none-eabi/lib/armv7e-m/fpu/libc_nano.a(lib_a-memcpy.o)
 .ARM.attributes
                0x0000092a       0x34 /home/stm/tools/stm/gcc-arm-none-eabi/gcc-arm-none-eabi-4_9-2015q3/bin/../lib/gcc/arm-none-eabi/4.9.3/../../../../arm-none-eabi/lib/armv7e-m/fpu/libc_nano.a(lib_a-mprec.o)
 .ARM.attributes
                0x0000095e       0x34 /home/stm/tools/stm/gcc-arm-none-eabi/gcc-arm-none-eabi-4_9-2015q3/bin/../lib/gcc/arm-none-eabi/4.9.3/../../../../arm-none-eabi/lib/armv7e-m/fpu/libc_nano.a(lib_a-nano-callocr.o)
 .ARM.attributes
                0x00000992       0x34 /home/stm/tools/stm/gcc-arm-none-eabi/gcc-arm-none-eabi-4_9-2015q3/bin/../lib/gcc/arm-none-eabi/4.9.3/../../../../arm-none-eabi/lib/armv7e-m/fpu/libc_nano.a(lib_a-reent.o)
 .ARM.attributes
                0x000009c6       0x22 /home/stm/tools/stm/gcc-arm-none-eabi/gcc-arm-none-eabi-4_9-2015q3/bin/../lib/gcc/arm-none-eabi/4.9.3/armv7e-m/fpu/libgcc.a(_arm_addsubdf3.o)
 .ARM.attributes
                0x000009e8       0x22 /home/stm/tools/stm/gcc-arm-none-eabi/gcc-arm-none-eabi-4_9-2015q3/bin/../lib/gcc/arm-none-eabi/4.9.3/armv7e-m/fpu/libgcc.a(_arm_muldivdf3.o)
 .ARM.attributes
                0x00000a0a       0x22 /home/stm/tools/stm/gcc-arm-none-eabi/gcc-arm-none-eabi-4_9-2015q3/bin/../lib/gcc/arm-none-eabi/4.9.3/armv7e-m/fpu/libgcc.a(_arm_cmpdf2.o)
 .ARM.attributes
                0x00000a2c       0x22 /home/stm/tools/stm/gcc-arm-none-eabi/gcc-arm-none-eabi-4_9-2015q3/bin/../lib/gcc/arm-none-eabi/4.9.3/armv7e-m/fpu/libgcc.a(_arm_fixdfsi.o)
 .ARM.attributes
                0x00000a4e       0x22 /home/stm/tools/stm/gcc-arm-none-eabi/gcc-arm-none-eabi-4_9-2015q3/bin/../lib/gcc/arm-none-eabi/4.9.3/armv7e-m/fpu/crtn.o
OUTPUT(build/ap-stm32f3discovery.elf elf32-littlearm)

.debug_info     0x00000000    0x10c53
 .debug_info    0x00000000      0x87c build/main.o
 .debug_info    0x0000087c      0x674 build/gpio.o
 .debug_info    0x00000ef0      0x6b9 build/i2c.o
 .debug_info    0x000015a9      0x66c build/spi.o
 .debug_info    0x00001c15     0x14ea build/usart.o
 .debug_info    0x000030ff      0xde5 build/stm32f3xx_it.o
 .debug_info    0x00003ee4      0x4db build/stm32f3xx_hal_msp.o
 .debug_info    0x000043bf     0x333a build/stm32f3xx_hal_i2c.o
 .debug_info    0x000076f9     0x1f0e build/stm32f3xx_hal_spi.o
 .debug_info    0x00009607     0x1b64 build/stm32f3xx_hal_uart.o
 .debug_info    0x0000b16b      0x9e3 build/stm32f3xx_hal_uart_ex.o
 .debug_info    0x0000bb4e      0x8e7 build/stm32f3xx_hal.o
 .debug_info    0x0000c435     0x1571 build/stm32f3xx_hal_rcc.o
 .debug_info    0x0000d9a6      0x787 build/stm32f3xx_hal_rcc_ex.o
 .debug_info    0x0000e12d      0x6dd build/stm32f3xx_hal_gpio.o
 .debug_info    0x0000e80a      0x850 build/stm32f3xx_hal_dma.o
 .debug_info    0x0000f05a      0xf38 build/stm32f3xx_hal_cortex.o
 .debug_info    0x0000ff92      0x435 build/system_stm32f3xx.o
 .debug_info    0x000103c7      0x81a build/syscalls.o
 .debug_info    0x00010be1       0x72 build/startup_stm32f303xc.o

.debug_abbrev   0x00000000     0x2687
 .debug_abbrev  0x00000000      0x1dc build/main.o
 .debug_abbrev  0x000001dc      0x195 build/gpio.o
 .debug_abbrev  0x00000371      0x147 build/i2c.o
 .debug_abbrev  0x000004b8      0x14b build/spi.o
 .debug_abbrev  0x00000603      0x2b4 build/usart.o
 .debug_abbrev  0x000008b7      0x186 build/stm32f3xx_it.o
 .debug_abbrev  0x00000a3d      0x122 build/stm32f3xx_hal_msp.o
 .debug_abbrev  0x00000b5f      0x2a4 build/stm32f3xx_hal_i2c.o
 .debug_abbrev  0x00000e03      0x289 build/stm32f3xx_hal_spi.o
 .debug_abbrev  0x0000108c      0x278 build/stm32f3xx_hal_uart.o
 .debug_abbrev  0x00001304      0x229 build/stm32f3xx_hal_uart_ex.o
 .debug_abbrev  0x0000152d      0x200 build/stm32f3xx_hal.o
 .debug_abbrev  0x0000172d      0x32b build/stm32f3xx_hal_rcc.o
 .debug_abbrev  0x00001a58      0x24a build/stm32f3xx_hal_rcc_ex.o
 .debug_abbrev  0x00001ca2      0x200 build/stm32f3xx_hal_gpio.o
 .debug_abbrev  0x00001ea2      0x234 build/stm32f3xx_hal_dma.o
 .debug_abbrev  0x000020d6      0x2c8 build/stm32f3xx_hal_cortex.o
 .debug_abbrev  0x0000239e      0x103 build/system_stm32f3xx.o
 .debug_abbrev  0x000024a1      0x1d4 build/syscalls.o
 .debug_abbrev  0x00002675       0x12 build/startup_stm32f303xc.o

.debug_loc      0x00000000     0xb2a3
 .debug_loc     0x00000000      0x101 build/main.o
 .debug_loc     0x00000101      0x23e build/gpio.o
 .debug_loc     0x0000033f      0x2a3 build/usart.o
 .debug_loc     0x000005e2       0xc0 build/stm32f3xx_it.o
 .debug_loc     0x000006a2       0x38 build/stm32f3xx_hal_msp.o
 .debug_loc     0x000006da     0x3b7e build/stm32f3xx_hal_i2c.o
 .debug_loc     0x00004258     0x1f16 build/stm32f3xx_hal_spi.o
 .debug_loc     0x0000616e     0x1b14 build/stm32f3xx_hal_uart.o
 .debug_loc     0x00007c82      0x357 build/stm32f3xx_hal_uart_ex.o
 .debug_loc     0x00007fd9      0x1a8 build/stm32f3xx_hal.o
 .debug_loc     0x00008181     0x1098 build/stm32f3xx_hal_rcc.o
 .debug_loc     0x00009219      0x99d build/stm32f3xx_hal_rcc_ex.o
 .debug_loc     0x00009bb6      0x398 build/stm32f3xx_hal_gpio.o
 .debug_loc     0x00009f4e      0x787 build/stm32f3xx_hal_dma.o
 .debug_loc     0x0000a6d5      0x566 build/stm32f3xx_hal_cortex.o
 .debug_loc     0x0000ac3b      0x104 build/system_stm32f3xx.o
 .debug_loc     0x0000ad3f      0x564 build/syscalls.o

.debug_aranges  0x00000000      0xc20
 .debug_aranges
                0x00000000       0x30 build/main.o
 .debug_aranges
                0x00000030       0x40 build/gpio.o
 .debug_aranges
                0x00000070       0x30 build/i2c.o
 .debug_aranges
                0x000000a0       0x30 build/spi.o
 .debug_aranges
                0x000000d0       0x48 build/usart.o
 .debug_aranges
                0x00000118       0x48 build/stm32f3xx_it.o
 .debug_aranges
                0x00000160       0x20 build/stm32f3xx_hal_msp.o
 .debug_aranges
                0x00000180      0x260 build/stm32f3xx_hal_i2c.o
 .debug_aranges
                0x000003e0      0x1d8 build/stm32f3xx_hal_spi.o
 .debug_aranges
                0x000005b8      0x1f0 build/stm32f3xx_hal_uart.o
 .debug_aranges
                0x000007a8       0x48 build/stm32f3xx_hal_uart_ex.o
 .debug_aranges
                0x000007f0       0xe0 build/stm32f3xx_hal.o
 .debug_aranges
                0x000008d0       0x88 build/stm32f3xx_hal_rcc.o
 .debug_aranges
                0x00000958       0x38 build/stm32f3xx_hal_rcc_ex.o
 .debug_aranges
                0x00000990       0x58 build/stm32f3xx_hal_gpio.o
 .debug_aranges
                0x000009e8       0x88 build/stm32f3xx_hal_dma.o
 .debug_aranges
                0x00000a70       0xa8 build/stm32f3xx_hal_cortex.o
 .debug_aranges
                0x00000b18       0x28 build/system_stm32f3xx.o
 .debug_aranges
                0x00000b40       0xb8 build/syscalls.o
 .debug_aranges
                0x00000bf8       0x28 build/startup_stm32f303xc.o

.debug_ranges   0x00000000      0xb18
 .debug_ranges  0x00000000       0x20 build/main.o
 .debug_ranges  0x00000020       0x30 build/gpio.o
 .debug_ranges  0x00000050       0x20 build/i2c.o
 .debug_ranges  0x00000070       0x20 build/spi.o
 .debug_ranges  0x00000090       0x38 build/usart.o
 .debug_ranges  0x000000c8       0x38 build/stm32f3xx_it.o
 .debug_ranges  0x00000100       0x10 build/stm32f3xx_hal_msp.o
 .debug_ranges  0x00000110      0x250 build/stm32f3xx_hal_i2c.o
 .debug_ranges  0x00000360      0x1c8 build/stm32f3xx_hal_spi.o
 .debug_ranges  0x00000528      0x1e0 build/stm32f3xx_hal_uart.o
 .debug_ranges  0x00000708       0x38 build/stm32f3xx_hal_uart_ex.o
 .debug_ranges  0x00000740       0xd0 build/stm32f3xx_hal.o
 .debug_ranges  0x00000810       0x90 build/stm32f3xx_hal_rcc.o
 .debug_ranges  0x000008a0       0x40 build/stm32f3xx_hal_rcc_ex.o
 .debug_ranges  0x000008e0       0x48 build/stm32f3xx_hal_gpio.o
 .debug_ranges  0x00000928       0x78 build/stm32f3xx_hal_dma.o
 .debug_ranges  0x000009a0       0x98 build/stm32f3xx_hal_cortex.o
 .debug_ranges  0x00000a38       0x18 build/system_stm32f3xx.o
 .debug_ranges  0x00000a50       0xa8 build/syscalls.o
 .debug_ranges  0x00000af8       0x20 build/startup_stm32f303xc.o

.debug_line     0x00000000     0x605b
 .debug_line    0x00000000      0x29c build/main.o
 .debug_line    0x0000029c      0x268 build/gpio.o
 .debug_line    0x00000504      0x1fb build/i2c.o
 .debug_line    0x000006ff      0x1fb build/spi.o
 .debug_line    0x000008fa      0x3e1 build/usart.o
 .debug_line    0x00000cdb      0x2b1 build/stm32f3xx_it.o
 .debug_line    0x00000f8c      0x1cb build/stm32f3xx_hal_msp.o
 .debug_line    0x00001157     0x1289 build/stm32f3xx_hal_i2c.o
 .debug_line    0x000023e0      0xca7 build/stm32f3xx_hal_spi.o
 .debug_line    0x00003087      0xc58 build/stm32f3xx_hal_uart.o
 .debug_line    0x00003cdf      0x321 build/stm32f3xx_hal_uart_ex.o
 .debug_line    0x00004000      0x3db build/stm32f3xx_hal.o
 .debug_line    0x000043db      0x744 build/stm32f3xx_hal_rcc.o
 .debug_line    0x00004b1f      0x4d6 build/stm32f3xx_hal_rcc_ex.o
 .debug_line    0x00004ff5      0x339 build/stm32f3xx_hal_gpio.o
 .debug_line    0x0000532e      0x43b build/stm32f3xx_hal_dma.o
 .debug_line    0x00005769      0x3da build/stm32f3xx_hal_cortex.o
 .debug_line    0x00005b43      0x1b1 build/system_stm32f3xx.o
 .debug_line    0x00005cf4      0x2f3 build/syscalls.o
 .debug_line    0x00005fe7       0x74 build/startup_stm32f303xc.o

.debug_str      0x00000000     0x382f
 .debug_str     0x00000000      0x98a build/main.o
                                0x9e1 (size before relaxing)
 .debug_str     0x0000098a      0x12f build/gpio.o
                                0x347 (size before relaxing)
 .debug_str     0x00000ab9      0x44f build/i2c.o
                                0x6cf (size before relaxing)
 .debug_str     0x00000f08      0x213 build/spi.o
                                0x5f3 (size before relaxing)
 .debug_str     0x0000111b      0x360 build/usart.o
                                0xce3 (size before relaxing)
 .debug_str     0x0000147b      0x10b build/stm32f3xx_it.o
                                0xbbc (size before relaxing)
 .debug_str     0x00001586       0x41 build/stm32f3xx_hal_msp.o
                                0x6a2 (size before relaxing)
 .debug_str     0x000015c7      0x7ab build/stm32f3xx_hal_i2c.o
                                0xea8 (size before relaxing)
 .debug_str     0x00001d72      0x520 build/stm32f3xx_hal_spi.o
                                0xba9 (size before relaxing)
 .debug_str     0x00002292      0x651 build/stm32f3xx_hal_uart.o
                                0xe68 (size before relaxing)
 .debug_str     0x000028e3       0xea build/stm32f3xx_hal_uart_ex.o
                                0x877 (size before relaxing)
 .debug_str     0x000029cd      0x2a5 build/stm32f3xx_hal.o
                                0x9d4 (size before relaxing)
 .debug_str     0x00002c72      0x192 build/stm32f3xx_hal_rcc.o
                                0x67f (size before relaxing)
 .debug_str     0x00002e04       0xc5 build/stm32f3xx_hal_rcc_ex.o
                                0x565 (size before relaxing)
 .debug_str     0x00002ec9      0x114 build/stm32f3xx_hal_gpio.o
                                0x462 (size before relaxing)
 .debug_str     0x00002fdd      0x215 build/stm32f3xx_hal_dma.o
                                0x649 (size before relaxing)
 .debug_str     0x000031f2      0x393 build/stm32f3xx_hal_cortex.o
                                0xb69 (size before relaxing)
 .debug_str     0x00003585       0x4d build/system_stm32f3xx.o
                                0x2fc (size before relaxing)
 .debug_str     0x000035d2      0x25d build/syscalls.o
                                0x424 (size before relaxing)

.comment        0x00000000       0x70
 .comment       0x00000000       0x70 build/main.o
                                 0x71 (size before relaxing)
 .comment       0x00000000       0x71 build/gpio.o
 .comment       0x00000000       0x71 build/i2c.o
 .comment       0x00000000       0x71 build/spi.o
 .comment       0x00000000       0x71 build/usart.o
 .comment       0x00000000       0x71 build/stm32f3xx_it.o
 .comment       0x00000000       0x71 build/stm32f3xx_hal_msp.o
 .comment       0x00000000       0x71 build/stm32f3xx_hal_i2c.o
 .comment       0x00000000       0x71 build/stm32f3xx_hal_spi.o
 .comment       0x00000000       0x71 build/stm32f3xx_hal_uart.o
 .comment       0x00000000       0x71 build/stm32f3xx_hal_uart_ex.o
 .comment       0x00000000       0x71 build/stm32f3xx_hal.o
 .comment       0x00000000       0x71 build/stm32f3xx_hal_rcc.o
 .comment       0x00000000       0x71 build/stm32f3xx_hal_rcc_ex.o
 .comment       0x00000000       0x71 build/stm32f3xx_hal_gpio.o
 .comment       0x00000000       0x71 build/stm32f3xx_hal_dma.o
 .comment       0x00000000       0x71 build/stm32f3xx_hal_cortex.o
 .comment       0x00000000       0x71 build/system_stm32f3xx.o
 .comment       0x00000000       0x71 build/syscalls.o

.debug_frame    0x00000000     0x2b1c
 .debug_frame   0x00000000       0x68 build/main.o
 .debug_frame   0x00000068       0xac build/gpio.o
 .debug_frame   0x00000114       0x40 build/i2c.o
 .debug_frame   0x00000154       0x40 build/spi.o
 .debug_frame   0x00000194       0xbc build/usart.o
 .debug_frame   0x00000250       0xb8 build/stm32f3xx_it.o
 .debug_frame   0x00000308       0x30 build/stm32f3xx_hal_msp.o
 .debug_frame   0x00000338      0x938 build/stm32f3xx_hal_i2c.o
 .debug_frame   0x00000c70      0x634 build/stm32f3xx_hal_spi.o
 .debug_frame   0x000012a4      0x624 build/stm32f3xx_hal_uart.o
 .debug_frame   0x000018c8       0xcc build/stm32f3xx_hal_uart_ex.o
 .debug_frame   0x00001994      0x1e0 build/stm32f3xx_hal.o
 .debug_frame   0x00001b74      0x198 build/stm32f3xx_hal_rcc.o
 .debug_frame   0x00001d0c       0x84 build/stm32f3xx_hal_rcc_ex.o
 .debug_frame   0x00001d90       0xd4 build/stm32f3xx_hal_gpio.o
 .debug_frame   0x00001e64      0x18c build/stm32f3xx_hal_dma.o
 .debug_frame   0x00001ff0      0x168 build/stm32f3xx_hal_cortex.o
 .debug_frame   0x00002158       0x30 build/system_stm32f3xx.o
 .debug_frame   0x00002188      0x1f0 build/syscalls.o
 .debug_frame   0x00002378       0x30 /home/stm/tools/stm/gcc-arm-none-eabi/gcc-arm-none-eabi-4_9-2015q3/bin/../lib/gcc/arm-none-eabi/4.9.3/../../../../arm-none-eabi/lib/armv7e-m/fpu/libc_nano.a(lib_a-atoi.o)
 .debug_frame   0x000023a8       0x20 /home/stm/tools/stm/gcc-arm-none-eabi/gcc-arm-none-eabi-4_9-2015q3/bin/../lib/gcc/arm-none-eabi/4.9.3/../../../../arm-none-eabi/lib/armv7e-m/fpu/libc_nano.a(lib_a-errno.o)
 .debug_frame   0x000023c8       0x2c /home/stm/tools/stm/gcc-arm-none-eabi/gcc-arm-none-eabi-4_9-2015q3/bin/../lib/gcc/arm-none-eabi/4.9.3/../../../../arm-none-eabi/lib/armv7e-m/fpu/libc_nano.a(lib_a-init.o)
 .debug_frame   0x000023f4       0x38 /home/stm/tools/stm/gcc-arm-none-eabi/gcc-arm-none-eabi-4_9-2015q3/bin/../lib/gcc/arm-none-eabi/4.9.3/../../../../arm-none-eabi/lib/armv7e-m/fpu/libc_nano.a(lib_a-itoa.o)
 .debug_frame   0x0000242c       0x30 /home/stm/tools/stm/gcc-arm-none-eabi/gcc-arm-none-eabi-4_9-2015q3/bin/../lib/gcc/arm-none-eabi/4.9.3/../../../../arm-none-eabi/lib/armv7e-m/fpu/libc_nano.a(lib_a-malloc.o)
 .debug_frame   0x0000245c       0x20 /home/stm/tools/stm/gcc-arm-none-eabi/gcc-arm-none-eabi-4_9-2015q3/bin/../lib/gcc/arm-none-eabi/4.9.3/../../../../arm-none-eabi/lib/armv7e-m/fpu/libc_nano.a(lib_a-memset.o)
 .debug_frame   0x0000247c       0x2c /home/stm/tools/stm/gcc-arm-none-eabi/gcc-arm-none-eabi-4_9-2015q3/bin/../lib/gcc/arm-none-eabi/4.9.3/../../../../arm-none-eabi/lib/armv7e-m/fpu/libc_nano.a(lib_a-nano-mallocr.o)
 .debug_frame   0x000024a8       0x88 /home/stm/tools/stm/gcc-arm-none-eabi/gcc-arm-none-eabi-4_9-2015q3/bin/../lib/gcc/arm-none-eabi/4.9.3/../../../../arm-none-eabi/lib/armv7e-m/fpu/libc_nano.a(lib_a-nano-vfprintf_float.o)
 .debug_frame   0x00002530       0x58 /home/stm/tools/stm/gcc-arm-none-eabi/gcc-arm-none-eabi-4_9-2015q3/bin/../lib/gcc/arm-none-eabi/4.9.3/../../../../arm-none-eabi/lib/armv7e-m/fpu/libc_nano.a(lib_a-nano-vfprintf_i.o)
 .debug_frame   0x00002588       0x28 /home/stm/tools/stm/gcc-arm-none-eabi/gcc-arm-none-eabi-4_9-2015q3/bin/../lib/gcc/arm-none-eabi/4.9.3/../../../../arm-none-eabi/lib/armv7e-m/fpu/libc_nano.a(lib_a-s_fpclassify.o)
 .debug_frame   0x000025b0       0x2c /home/stm/tools/stm/gcc-arm-none-eabi/gcc-arm-none-eabi-4_9-2015q3/bin/../lib/gcc/arm-none-eabi/4.9.3/../../../../arm-none-eabi/lib/armv7e-m/fpu/libc_nano.a(lib_a-sbrkr.o)
 .debug_frame   0x000025dc       0x20 /home/stm/tools/stm/gcc-arm-none-eabi/gcc-arm-none-eabi-4_9-2015q3/bin/../lib/gcc/arm-none-eabi/4.9.3/../../../../arm-none-eabi/lib/armv7e-m/fpu/libc_nano.a(lib_a-strlen.o)
 .debug_frame   0x000025fc       0x2c /home/stm/tools/stm/gcc-arm-none-eabi/gcc-arm-none-eabi-4_9-2015q3/bin/../lib/gcc/arm-none-eabi/4.9.3/../../../../arm-none-eabi/lib/armv7e-m/fpu/libc_nano.a(lib_a-strstr.o)
 .debug_frame   0x00002628       0x38 /home/stm/tools/stm/gcc-arm-none-eabi/gcc-arm-none-eabi-4_9-2015q3/bin/../lib/gcc/arm-none-eabi/4.9.3/../../../../arm-none-eabi/lib/armv7e-m/fpu/libc_nano.a(lib_a-strtok.o)
 .debug_frame   0x00002660       0x40 /home/stm/tools/stm/gcc-arm-none-eabi/gcc-arm-none-eabi-4_9-2015q3/bin/../lib/gcc/arm-none-eabi/4.9.3/../../../../arm-none-eabi/lib/armv7e-m/fpu/libc_nano.a(lib_a-strtok_r.o)
 .debug_frame   0x000026a0       0x54 /home/stm/tools/stm/gcc-arm-none-eabi/gcc-arm-none-eabi-4_9-2015q3/bin/../lib/gcc/arm-none-eabi/4.9.3/../../../../arm-none-eabi/lib/armv7e-m/fpu/libc_nano.a(lib_a-strtol.o)
 .debug_frame   0x000026f4       0x44 /home/stm/tools/stm/gcc-arm-none-eabi/gcc-arm-none-eabi-4_9-2015q3/bin/../lib/gcc/arm-none-eabi/4.9.3/../../../../arm-none-eabi/lib/armv7e-m/fpu/libc_nano.a(lib_a-utoa.o)
 .debug_frame   0x00002738       0x6c /home/stm/tools/stm/gcc-arm-none-eabi/gcc-arm-none-eabi-4_9-2015q3/bin/../lib/gcc/arm-none-eabi/4.9.3/../../../../arm-none-eabi/lib/armv7e-m/fpu/libc_nano.a(lib_a-dtoa.o)
 .debug_frame   0x000027a4       0x98 /home/stm/tools/stm/gcc-arm-none-eabi/gcc-arm-none-eabi-4_9-2015q3/bin/../lib/gcc/arm-none-eabi/4.9.3/../../../../arm-none-eabi/lib/armv7e-m/fpu/libc_nano.a(lib_a-locale.o)
 .debug_frame   0x0000283c       0x28 /home/stm/tools/stm/gcc-arm-none-eabi/gcc-arm-none-eabi-4_9-2015q3/bin/../lib/gcc/arm-none-eabi/4.9.3/../../../../arm-none-eabi/lib/armv7e-m/fpu/libc_nano.a(lib_a-memcpy.o)
 .debug_frame   0x00002864      0x230 /home/stm/tools/stm/gcc-arm-none-eabi/gcc-arm-none-eabi-4_9-2015q3/bin/../lib/gcc/arm-none-eabi/4.9.3/../../../../arm-none-eabi/lib/armv7e-m/fpu/libc_nano.a(lib_a-mprec.o)
 .debug_frame   0x00002a94       0x2c /home/stm/tools/stm/gcc-arm-none-eabi/gcc-arm-none-eabi-4_9-2015q3/bin/../lib/gcc/arm-none-eabi/4.9.3/../../../../arm-none-eabi/lib/armv7e-m/fpu/libc_nano.a(lib_a-nano-callocr.o)
 .debug_frame   0x00002ac0       0x5c /home/stm/tools/stm/gcc-arm-none-eabi/gcc-arm-none-eabi-4_9-2015q3/bin/../lib/gcc/arm-none-eabi/4.9.3/../../../../arm-none-eabi/lib/armv7e-m/fpu/libc_nano.a(lib_a-reent.o)

Cross Reference Table

Symbol                                            File
ADC1_2_IRQHandler                                 build/startup_stm32f303xc.o
ADC3_IRQHandler                                   build/startup_stm32f303xc.o
ADC4_IRQHandler                                   build/startup_stm32f303xc.o
AHBPrescTable                                     build/system_stm32f3xx.o
                                                  build/stm32f3xx_hal_rcc.o
APBPrescTable                                     build/system_stm32f3xx.o
                                                  build/stm32f3xx_hal_rcc.o
BusFault_Handler                                  build/startup_stm32f303xc.o
CAN_RX1_IRQHandler                                build/startup_stm32f303xc.o
CAN_SCE_IRQHandler                                build/startup_stm32f303xc.o
COMP1_2_3_IRQHandler                              build/startup_stm32f303xc.o
COMP4_5_6_IRQHandler                              build/startup_stm32f303xc.o
COMP7_IRQHandler                                  build/startup_stm32f303xc.o
DMA1_Channel1_IRQHandler                          build/startup_stm32f303xc.o
DMA1_Channel2_IRQHandler                          build/startup_stm32f303xc.o
DMA1_Channel3_IRQHandler                          build/startup_stm32f303xc.o
DMA1_Channel4_IRQHandler                          build/startup_stm32f303xc.o
DMA1_Channel5_IRQHandler                          build/startup_stm32f303xc.o
DMA1_Channel6_IRQHandler                          build/startup_stm32f303xc.o
DMA1_Channel7_IRQHandler                          build/startup_stm32f303xc.o
DMA2_Channel1_IRQHandler                          build/startup_stm32f303xc.o
DMA2_Channel2_IRQHandler                          build/startup_stm32f303xc.o
DMA2_Channel3_IRQHandler                          build/startup_stm32f303xc.o
DMA2_Channel4_IRQHandler                          build/startup_stm32f303xc.o
DMA2_Channel5_IRQHandler                          build/startup_stm32f303xc.o
DebugMon_Handler                                  build/startup_stm32f303xc.o
Default_Handler                                   build/startup_stm32f303xc.o
EXTI0_IRQHandler                                  build/stm32f3xx_it.o
EXTI15_10_IRQHandler                              build/startup_stm32f303xc.o
EXTI1_IRQHandler                                  build/startup_stm32f303xc.o
EXTI2_TSC_IRQHandler                              build/startup_stm32f303xc.o
EXTI3_IRQHandler                                  build/startup_stm32f303xc.o
EXTI4_IRQHandler                                  build/startup_stm32f303xc.o
EXTI9_5_IRQHandler                                build/startup_stm32f303xc.o
FLASH_IRQHandler                                  build/startup_stm32f303xc.o
FLASH_PageErase                                   build/stm32f3xx_hal_flash_ex.o
                                                  build/stm32f3xx_hal_flash.o
FLASH_WaitForLastOperation                        build/stm32f3xx_hal_flash.o
                                                  build/stm32f3xx_hal_flash_ex.o
FPU_IRQHandler                                    build/startup_stm32f303xc.o
HAL_DBGMCU_DisableDBGSleepMode                    build/stm32f3xx_hal.o
HAL_DBGMCU_DisableDBGStandbyMode                  build/stm32f3xx_hal.o
HAL_DBGMCU_DisableDBGStopMode                     build/stm32f3xx_hal.o
HAL_DBGMCU_EnableDBGSleepMode                     build/stm32f3xx_hal.o
HAL_DBGMCU_EnableDBGStandbyMode                   build/stm32f3xx_hal.o
HAL_DBGMCU_EnableDBGStopMode                      build/stm32f3xx_hal.o
HAL_DMA_Abort                                     build/stm32f3xx_hal_dma.o
                                                  build/stm32f3xx_hal_uart.o
                                                  build/stm32f3xx_hal_spi.o
HAL_DMA_Abort_IT                                  build/stm32f3xx_hal_dma.o
                                                  build/stm32f3xx_hal_uart.o
                                                  build/stm32f3xx_hal_spi.o
                                                  build/stm32f3xx_hal_i2c.o
HAL_DMA_DeInit                                    build/stm32f3xx_hal_dma.o
HAL_DMA_GetError                                  build/stm32f3xx_hal_dma.o
HAL_DMA_GetState                                  build/stm32f3xx_hal_dma.o
HAL_DMA_IRQHandler                                build/stm32f3xx_hal_dma.o
HAL_DMA_Init                                      build/stm32f3xx_hal_dma.o
HAL_DMA_PollForTransfer                           build/stm32f3xx_hal_dma.o
HAL_DMA_RegisterCallback                          build/stm32f3xx_hal_dma.o
HAL_DMA_Start                                     build/stm32f3xx_hal_dma.o
HAL_DMA_Start_IT                                  build/stm32f3xx_hal_dma.o
                                                  build/stm32f3xx_hal_uart.o
                                                  build/stm32f3xx_hal_spi.o
                                                  build/stm32f3xx_hal_i2c.o
HAL_DMA_UnRegisterCallback                        build/stm32f3xx_hal_dma.o
HAL_DeInit                                        build/stm32f3xx_hal.o
HAL_Delay                                         build/stm32f3xx_hal.o
                                                  build/gpio.o
HAL_FLASHEx_Erase                                 build/stm32f3xx_hal_flash_ex.o
HAL_FLASHEx_Erase_IT                              build/stm32f3xx_hal_flash_ex.o
HAL_FLASHEx_OBErase                               build/stm32f3xx_hal_flash_ex.o
HAL_FLASHEx_OBGetConfig                           build/stm32f3xx_hal_flash_ex.o
HAL_FLASHEx_OBGetUserData                         build/stm32f3xx_hal_flash_ex.o
HAL_FLASHEx_OBProgram                             build/stm32f3xx_hal_flash_ex.o
HAL_FLASH_EndOfOperationCallback                  build/stm32f3xx_hal_flash.o
HAL_FLASH_GetError                                build/stm32f3xx_hal_flash.o
HAL_FLASH_IRQHandler                              build/stm32f3xx_hal_flash.o
HAL_FLASH_Lock                                    build/stm32f3xx_hal_flash.o
HAL_FLASH_OB_Launch                               build/stm32f3xx_hal_flash.o
HAL_FLASH_OB_Lock                                 build/stm32f3xx_hal_flash.o
HAL_FLASH_OB_Unlock                               build/stm32f3xx_hal_flash.o
HAL_FLASH_OperationErrorCallback                  build/stm32f3xx_hal_flash.o
HAL_FLASH_Program                                 build/stm32f3xx_hal_flash.o
HAL_FLASH_Program_IT                              build/stm32f3xx_hal_flash.o
HAL_FLASH_Unlock                                  build/stm32f3xx_hal_flash.o
HAL_GPIO_DeInit                                   build/stm32f3xx_hal_gpio.o
HAL_GPIO_EXTI_Callback                            build/stm32f3xx_hal_gpio.o
HAL_GPIO_EXTI_IRQHandler                          build/stm32f3xx_hal_gpio.o
                                                  build/stm32f3xx_it.o
HAL_GPIO_Init                                     build/stm32f3xx_hal_gpio.o
                                                  build/stm32f3xx_hal_rcc.o
                                                  build/usart.o
                                                  build/gpio.o
HAL_GPIO_LockPin                                  build/stm32f3xx_hal_gpio.o
HAL_GPIO_ReadPin                                  build/stm32f3xx_hal_gpio.o
HAL_GPIO_TogglePin                                build/stm32f3xx_hal_gpio.o
HAL_GPIO_WritePin                                 build/stm32f3xx_hal_gpio.o
                                                  build/gpio.o
HAL_GetDEVID                                      build/stm32f3xx_hal.o
HAL_GetHalVersion                                 build/stm32f3xx_hal.o
HAL_GetREVID                                      build/stm32f3xx_hal.o
HAL_GetTick                                       build/stm32f3xx_hal.o
                                                  build/stm32f3xx_hal_flash.o
                                                  build/stm32f3xx_hal_dma.o
                                                  build/stm32f3xx_hal_rcc_ex.o
                                                  build/stm32f3xx_hal_rcc.o
                                                  build/stm32f3xx_hal_uart_ex.o
                                                  build/stm32f3xx_hal_uart.o
                                                  build/stm32f3xx_hal_spi.o
                                                  build/stm32f3xx_hal_i2c.o
HAL_GetTickFreq                                   build/stm32f3xx_hal.o
HAL_GetTickPrio                                   build/stm32f3xx_hal.o
HAL_GetUIDw0                                      build/stm32f3xx_hal.o
HAL_GetUIDw1                                      build/stm32f3xx_hal.o
HAL_GetUIDw2                                      build/stm32f3xx_hal.o
HAL_HalfDuplex_EnableReceiver                     build/stm32f3xx_hal_uart.o
HAL_HalfDuplex_EnableTransmitter                  build/stm32f3xx_hal_uart.o
HAL_HalfDuplex_Init                               build/stm32f3xx_hal_uart.o
HAL_I2CEx_ConfigAnalogFilter                      build/stm32f3xx_hal_i2c_ex.o
HAL_I2CEx_ConfigDigitalFilter                     build/stm32f3xx_hal_i2c_ex.o
HAL_I2CEx_DisableFastModePlus                     build/stm32f3xx_hal_i2c_ex.o
HAL_I2CEx_DisableWakeUp                           build/stm32f3xx_hal_i2c_ex.o
HAL_I2CEx_EnableFastModePlus                      build/stm32f3xx_hal_i2c_ex.o
HAL_I2CEx_EnableWakeUp                            build/stm32f3xx_hal_i2c_ex.o
HAL_I2C_AbortCpltCallback                         build/stm32f3xx_hal_i2c.o
HAL_I2C_AddrCallback                              build/stm32f3xx_hal_i2c.o
HAL_I2C_DeInit                                    build/stm32f3xx_hal_i2c.o
HAL_I2C_DisableListen_IT                          build/stm32f3xx_hal_i2c.o
HAL_I2C_ER_IRQHandler                             build/stm32f3xx_hal_i2c.o
                                                  build/stm32f3xx_it.o
HAL_I2C_EV_IRQHandler                             build/stm32f3xx_hal_i2c.o
                                                  build/stm32f3xx_it.o
HAL_I2C_EnableListen_IT                           build/stm32f3xx_hal_i2c.o
HAL_I2C_ErrorCallback                             build/stm32f3xx_hal_i2c.o
HAL_I2C_GetError                                  build/stm32f3xx_hal_i2c.o
HAL_I2C_GetMode                                   build/stm32f3xx_hal_i2c.o
HAL_I2C_GetState                                  build/stm32f3xx_hal_i2c.o
HAL_I2C_Init                                      build/stm32f3xx_hal_i2c.o
HAL_I2C_IsDeviceReady                             build/stm32f3xx_hal_i2c.o
HAL_I2C_ListenCpltCallback                        build/stm32f3xx_hal_i2c.o
HAL_I2C_MasterRxCpltCallback                      build/stm32f3xx_hal_i2c.o
HAL_I2C_MasterTxCpltCallback                      build/stm32f3xx_hal_i2c.o
HAL_I2C_Master_Abort_IT                           build/stm32f3xx_hal_i2c.o
HAL_I2C_Master_Receive                            build/stm32f3xx_hal_i2c.o
HAL_I2C_Master_Receive_DMA                        build/stm32f3xx_hal_i2c.o
HAL_I2C_Master_Receive_IT                         build/stm32f3xx_hal_i2c.o
HAL_I2C_Master_Sequential_Receive_IT              build/stm32f3xx_hal_i2c.o
HAL_I2C_Master_Sequential_Transmit_IT             build/stm32f3xx_hal_i2c.o
HAL_I2C_Master_Transmit                           build/stm32f3xx_hal_i2c.o
HAL_I2C_Master_Transmit_DMA                       build/stm32f3xx_hal_i2c.o
HAL_I2C_Master_Transmit_IT                        build/stm32f3xx_hal_i2c.o
HAL_I2C_MemRxCpltCallback                         build/stm32f3xx_hal_i2c.o
HAL_I2C_MemTxCpltCallback                         build/stm32f3xx_hal_i2c.o
HAL_I2C_Mem_Read                                  build/stm32f3xx_hal_i2c.o
HAL_I2C_Mem_Read_DMA                              build/stm32f3xx_hal_i2c.o
HAL_I2C_Mem_Read_IT                               build/stm32f3xx_hal_i2c.o
HAL_I2C_Mem_Write                                 build/stm32f3xx_hal_i2c.o
HAL_I2C_Mem_Write_DMA                             build/stm32f3xx_hal_i2c.o
HAL_I2C_Mem_Write_IT                              build/stm32f3xx_hal_i2c.o
HAL_I2C_MspDeInit                                 build/i2c.o
HAL_I2C_MspInit                                   build/i2c.o
HAL_I2C_SlaveRxCpltCallback                       build/stm32f3xx_hal_i2c.o
HAL_I2C_SlaveTxCpltCallback                       build/stm32f3xx_hal_i2c.o
HAL_I2C_Slave_Receive                             build/stm32f3xx_hal_i2c.o
HAL_I2C_Slave_Receive_DMA                         build/stm32f3xx_hal_i2c.o
HAL_I2C_Slave_Receive_IT                          build/stm32f3xx_hal_i2c.o
HAL_I2C_Slave_Sequential_Receive_IT               build/stm32f3xx_hal_i2c.o
HAL_I2C_Slave_Sequential_Transmit_IT              build/stm32f3xx_hal_i2c.o
HAL_I2C_Slave_Transmit                            build/stm32f3xx_hal_i2c.o
HAL_I2C_Slave_Transmit_DMA                        build/stm32f3xx_hal_i2c.o
HAL_I2C_Slave_Transmit_IT                         build/stm32f3xx_hal_i2c.o
HAL_IncTick                                       build/stm32f3xx_hal.o
                                                  build/stm32f3xx_it.o
HAL_Init                                          build/stm32f3xx_hal.o
                                                  build/main.o
HAL_InitTick                                      build/stm32f3xx_hal.o
                                                  build/stm32f3xx_hal_rcc.o
HAL_LIN_Init                                      build/stm32f3xx_hal_uart.o
HAL_LIN_SendBreak                                 build/stm32f3xx_hal_uart.o
HAL_MPU_ConfigRegion                              build/stm32f3xx_hal_cortex.o
HAL_MPU_Disable                                   build/stm32f3xx_hal_cortex.o
HAL_MPU_Enable                                    build/stm32f3xx_hal_cortex.o
HAL_MspDeInit                                     build/stm32f3xx_hal.o
HAL_MspInit                                       build/stm32f3xx_hal_msp.o
HAL_MultiProcessorEx_AddressLength_Set            build/stm32f3xx_hal_uart_ex.o
HAL_MultiProcessor_DisableMuteMode                build/stm32f3xx_hal_uart.o
HAL_MultiProcessor_EnableMuteMode                 build/stm32f3xx_hal_uart.o
HAL_MultiProcessor_EnterMuteMode                  build/stm32f3xx_hal_uart.o
HAL_MultiProcessor_Init                           build/stm32f3xx_hal_uart.o
HAL_NVIC_ClearPendingIRQ                          build/stm32f3xx_hal_cortex.o
HAL_NVIC_DisableIRQ                               build/stm32f3xx_hal_cortex.o
HAL_NVIC_EnableIRQ                                build/stm32f3xx_hal_cortex.o
                                                  build/usart.o
HAL_NVIC_GetActive                                build/stm32f3xx_hal_cortex.o
HAL_NVIC_GetPendingIRQ                            build/stm32f3xx_hal_cortex.o
HAL_NVIC_GetPriority                              build/stm32f3xx_hal_cortex.o
HAL_NVIC_GetPriorityGrouping                      build/stm32f3xx_hal_cortex.o
HAL_NVIC_SetPendingIRQ                            build/stm32f3xx_hal_cortex.o
HAL_NVIC_SetPriority                              build/stm32f3xx_hal_cortex.o
                                                  build/stm32f3xx_hal.o
                                                  build/stm32f3xx_hal_msp.o
                                                  build/usart.o
                                                  build/main.o
HAL_NVIC_SetPriorityGrouping                      build/stm32f3xx_hal_cortex.o
                                                  build/stm32f3xx_hal.o
                                                  build/stm32f3xx_hal_msp.o
HAL_NVIC_SystemReset                              build/stm32f3xx_hal_cortex.o
HAL_PWR_ConfigPVD                                 build/stm32f3xx_hal_pwr_ex.o
HAL_PWR_DeInit                                    build/stm32f3xx_hal_pwr.o
HAL_PWR_DisableBkUpAccess                         build/stm32f3xx_hal_pwr.o
HAL_PWR_DisablePVD                                build/stm32f3xx_hal_pwr_ex.o
HAL_PWR_DisableSEVOnPend                          build/stm32f3xx_hal_pwr.o
HAL_PWR_DisableSleepOnExit                        build/stm32f3xx_hal_pwr.o
HAL_PWR_DisableWakeUpPin                          build/stm32f3xx_hal_pwr.o
HAL_PWR_EnableBkUpAccess                          build/stm32f3xx_hal_pwr.o
HAL_PWR_EnablePVD                                 build/stm32f3xx_hal_pwr_ex.o
HAL_PWR_EnableSEVOnPend                           build/stm32f3xx_hal_pwr.o
HAL_PWR_EnableSleepOnExit                         build/stm32f3xx_hal_pwr.o
HAL_PWR_EnableWakeUpPin                           build/stm32f3xx_hal_pwr.o
HAL_PWR_EnterSLEEPMode                            build/stm32f3xx_hal_pwr.o
HAL_PWR_EnterSTANDBYMode                          build/stm32f3xx_hal_pwr.o
HAL_PWR_EnterSTOPMode                             build/stm32f3xx_hal_pwr.o
HAL_PWR_PVDCallback                               build/stm32f3xx_hal_pwr_ex.o
HAL_PWR_PVD_IRQHandler                            build/stm32f3xx_hal_pwr_ex.o
HAL_RCCEx_GetPeriphCLKConfig                      build/stm32f3xx_hal_rcc_ex.o
HAL_RCCEx_GetPeriphCLKFreq                        build/stm32f3xx_hal_rcc_ex.o
HAL_RCCEx_PeriphCLKConfig                         build/stm32f3xx_hal_rcc_ex.o
                                                  build/main.o
HAL_RCC_CSSCallback                               build/stm32f3xx_hal_rcc.o
HAL_RCC_ClockConfig                               build/stm32f3xx_hal_rcc.o
                                                  build/main.o
HAL_RCC_DeInit                                    build/stm32f3xx_hal_rcc.o
HAL_RCC_DisableCSS                                build/stm32f3xx_hal_rcc.o
HAL_RCC_EnableCSS                                 build/stm32f3xx_hal_rcc.o
HAL_RCC_GetClockConfig                            build/stm32f3xx_hal_rcc.o
HAL_RCC_GetHCLKFreq                               build/stm32f3xx_hal_rcc.o
                                                  build/main.o
HAL_RCC_GetOscConfig                              build/stm32f3xx_hal_rcc.o
HAL_RCC_GetPCLK1Freq                              build/stm32f3xx_hal_rcc.o
                                                  build/stm32f3xx_hal_rcc_ex.o
                                                  build/stm32f3xx_hal_uart.o
HAL_RCC_GetPCLK2Freq                              build/stm32f3xx_hal_rcc.o
                                                  build/stm32f3xx_hal_rcc_ex.o
                                                  build/stm32f3xx_hal_uart.o
HAL_RCC_GetSysClockFreq                           build/stm32f3xx_hal_rcc.o
                                                  build/stm32f3xx_hal_rcc_ex.o
                                                  build/stm32f3xx_hal_uart.o
HAL_RCC_MCOConfig                                 build/stm32f3xx_hal_rcc.o
HAL_RCC_NMI_IRQHandler                            build/stm32f3xx_hal_rcc.o
HAL_RCC_OscConfig                                 build/stm32f3xx_hal_rcc.o
                                                  build/main.o
HAL_RS485Ex_Init                                  build/stm32f3xx_hal_uart_ex.o
HAL_ResumeTick                                    build/stm32f3xx_hal.o
HAL_SPIEx_FlushRxFifo                             build/stm32f3xx_hal_spi_ex.o
HAL_SPI_Abort                                     build/stm32f3xx_hal_spi.o
HAL_SPI_AbortCpltCallback                         build/stm32f3xx_hal_spi.o
HAL_SPI_Abort_IT                                  build/stm32f3xx_hal_spi.o
HAL_SPI_DMAPause                                  build/stm32f3xx_hal_spi.o
HAL_SPI_DMAResume                                 build/stm32f3xx_hal_spi.o
HAL_SPI_DMAStop                                   build/stm32f3xx_hal_spi.o
HAL_SPI_DeInit                                    build/stm32f3xx_hal_spi.o
HAL_SPI_ErrorCallback                             build/stm32f3xx_hal_spi.o
HAL_SPI_GetError                                  build/stm32f3xx_hal_spi.o
HAL_SPI_GetState                                  build/stm32f3xx_hal_spi.o
HAL_SPI_IRQHandler                                build/stm32f3xx_hal_spi.o
                                                  build/stm32f3xx_it.o
HAL_SPI_Init                                      build/stm32f3xx_hal_spi.o
HAL_SPI_MspDeInit                                 build/spi.o
HAL_SPI_MspInit                                   build/spi.o
HAL_SPI_Receive                                   build/stm32f3xx_hal_spi.o
HAL_SPI_Receive_DMA                               build/stm32f3xx_hal_spi.o
HAL_SPI_Receive_IT                                build/stm32f3xx_hal_spi.o
HAL_SPI_RxCpltCallback                            build/stm32f3xx_hal_spi.o
HAL_SPI_RxHalfCpltCallback                        build/stm32f3xx_hal_spi.o
HAL_SPI_Transmit                                  build/stm32f3xx_hal_spi.o
HAL_SPI_TransmitReceive                           build/stm32f3xx_hal_spi.o
HAL_SPI_TransmitReceive_DMA                       build/stm32f3xx_hal_spi.o
HAL_SPI_TransmitReceive_IT                        build/stm32f3xx_hal_spi.o
HAL_SPI_Transmit_DMA                              build/stm32f3xx_hal_spi.o
HAL_SPI_Transmit_IT                               build/stm32f3xx_hal_spi.o
HAL_SPI_TxCpltCallback                            build/stm32f3xx_hal_spi.o
HAL_SPI_TxHalfCpltCallback                        build/stm32f3xx_hal_spi.o
HAL_SPI_TxRxCpltCallback                          build/stm32f3xx_hal_spi.o
HAL_SPI_TxRxHalfCpltCallback                      build/stm32f3xx_hal_spi.o
HAL_SYSTICK_CLKSourceConfig                       build/stm32f3xx_hal_cortex.o
                                                  build/main.o
HAL_SYSTICK_Callback                              build/stm32f3xx_hal_cortex.o
HAL_SYSTICK_Config                                build/stm32f3xx_hal_cortex.o
                                                  build/stm32f3xx_hal.o
                                                  build/main.o
HAL_SYSTICK_IRQHandler                            build/stm32f3xx_hal_cortex.o
                                                  build/stm32f3xx_it.o
HAL_SetTickFreq                                   build/stm32f3xx_hal.o
HAL_SuspendTick                                   build/stm32f3xx_hal.o
HAL_UARTEx_DisableStopMode                        build/stm32f3xx_hal_uart_ex.o
HAL_UARTEx_EnableStopMode                         build/stm32f3xx_hal_uart_ex.o
HAL_UARTEx_StopModeWakeUpSourceConfig             build/stm32f3xx_hal_uart_ex.o
HAL_UARTEx_WakeupCallback                         build/stm32f3xx_hal_uart_ex.o
                                                  build/stm32f3xx_hal_uart.o
HAL_UART_Abort                                    build/stm32f3xx_hal_uart.o
HAL_UART_AbortCpltCallback                        build/stm32f3xx_hal_uart.o
HAL_UART_AbortReceive                             build/stm32f3xx_hal_uart.o
HAL_UART_AbortReceiveCpltCallback                 build/stm32f3xx_hal_uart.o
HAL_UART_AbortReceive_IT                          build/stm32f3xx_hal_uart.o
HAL_UART_AbortTransmit                            build/stm32f3xx_hal_uart.o
HAL_UART_AbortTransmitCpltCallback                build/stm32f3xx_hal_uart.o
HAL_UART_AbortTransmit_IT                         build/stm32f3xx_hal_uart.o
HAL_UART_Abort_IT                                 build/stm32f3xx_hal_uart.o
HAL_UART_DMAPause                                 build/stm32f3xx_hal_uart.o
HAL_UART_DMAResume                                build/stm32f3xx_hal_uart.o
HAL_UART_DMAStop                                  build/stm32f3xx_hal_uart.o
HAL_UART_DeInit                                   build/stm32f3xx_hal_uart.o
HAL_UART_ErrorCallback                            build/stm32f3xx_hal_uart.o
HAL_UART_GetError                                 build/stm32f3xx_hal_uart.o
HAL_UART_GetState                                 build/stm32f3xx_hal_uart.o
HAL_UART_IRQHandler                               build/stm32f3xx_hal_uart.o
                                                  build/stm32f3xx_it.o
HAL_UART_Init                                     build/stm32f3xx_hal_uart.o
                                                  build/usart.o
HAL_UART_MspDeInit                                build/usart.o
HAL_UART_MspInit                                  build/usart.o
                                                  build/stm32f3xx_hal_uart_ex.o
HAL_UART_Receive                                  build/stm32f3xx_hal_uart.o
HAL_UART_Receive_DMA                              build/stm32f3xx_hal_uart.o
HAL_UART_Receive_IT                               build/stm32f3xx_hal_uart.o
                                                  build/usart.o
HAL_UART_RxCpltCallback                           build/usart.o
HAL_UART_RxHalfCpltCallback                       build/stm32f3xx_hal_uart.o
HAL_UART_Transmit                                 build/stm32f3xx_hal_uart.o
                                                  build/usart.o
HAL_UART_Transmit_DMA                             build/stm32f3xx_hal_uart.o
HAL_UART_Transmit_IT                              build/stm32f3xx_hal_uart.o
                                                  build/usart.o
HAL_UART_TxCpltCallback                           build/stm32f3xx_hal_uart.o
HAL_UART_TxHalfCpltCallback                       build/stm32f3xx_hal_uart.o
HardFault_Handler                                 build/startup_stm32f303xc.o
I2C1_ER_IRQHandler                                build/stm32f3xx_it.o
I2C1_EV_IRQHandler                                build/stm32f3xx_it.o
I2C2_ER_IRQHandler                                build/startup_stm32f303xc.o
I2C2_EV_IRQHandler                                build/startup_stm32f303xc.o
MX_GPIO_Init                                      build/gpio.o
                                                  build/main.o
MX_GPIO_blink                                     build/gpio.o
                                                  build/main.o
MX_GPIO_circle                                    build/gpio.o
                                                  build/main.o
MX_GPIO_diod                                      build/gpio.o
                                                  build/usart.o
MX_GPIO_diods                                     build/gpio.o
                                                  build/main.o
MX_I2C1_Init                                      build/i2c.o
                                                  build/main.o
MX_SPI1_Init                                      build/spi.o
                                                  build/main.o
MX_USART1_UART_Init                               build/usart.o
                                                  build/main.o
MemManage_Handler                                 build/startup_stm32f303xc.o
NMI_Handler                                       build/startup_stm32f303xc.o
PVD_IRQHandler                                    build/startup_stm32f303xc.o
PendSV_Handler                                    build/startup_stm32f303xc.o
RCC_IRQHandler                                    build/startup_stm32f303xc.o
RTC_Alarm_IRQHandler                              build/startup_stm32f303xc.o
RTC_WKUP_IRQHandler                               build/startup_stm32f303xc.o
Reset_Handler                                     build/startup_stm32f303xc.o
SPI1_IRQHandler                                   build/stm32f3xx_it.o
SPI2_IRQHandler                                   build/startup_stm32f303xc.o
SPI3_IRQHandler                                   build/startup_stm32f303xc.o
SVC_Handler                                       build/startup_stm32f303xc.o
SysTick_Handler                                   build/stm32f3xx_it.o
SystemClock_Config                                build/main.o
SystemCoreClock                                   build/system_stm32f3xx.o
                                                  build/stm32f3xx_hal_rcc_ex.o
                                                  build/stm32f3xx_hal_rcc.o
                                                  build/stm32f3xx_hal.o
                                                  build/stm32f3xx_hal_spi.o
SystemCoreClockUpdate                             build/system_stm32f3xx.o
SystemInit                                        build/system_stm32f3xx.o
                                                  build/startup_stm32f303xc.o
TAMP_STAMP_IRQHandler                             build/startup_stm32f303xc.o
TIM1_BRK_TIM15_IRQHandler                         build/startup_stm32f303xc.o
TIM1_CC_IRQHandler                                build/startup_stm32f303xc.o
TIM1_TRG_COM_TIM17_IRQHandler                     build/startup_stm32f303xc.o
TIM1_UP_TIM16_IRQHandler                          build/startup_stm32f303xc.o
TIM2_IRQHandler                                   build/startup_stm32f303xc.o
TIM3_IRQHandler                                   build/startup_stm32f303xc.o
TIM4_IRQHandler                                   build/startup_stm32f303xc.o
TIM6_DAC_IRQHandler                               build/startup_stm32f303xc.o
TIM7_IRQHandler                                   build/startup_stm32f303xc.o
TIM8_BRK_IRQHandler                               build/startup_stm32f303xc.o
TIM8_CC_IRQHandler                                build/startup_stm32f303xc.o
TIM8_TRG_COM_IRQHandler                           build/startup_stm32f303xc.o
TIM8_UP_IRQHandler                                build/startup_stm32f303xc.o
UART4_IRQHandler                                  build/startup_stm32f303xc.o
UART5_IRQHandler                                  build/startup_stm32f303xc.o
UART_AdvFeatureConfig                             build/stm32f3xx_hal_uart.o
                                                  build/stm32f3xx_hal_uart_ex.o
UART_CheckIdleState                               build/stm32f3xx_hal_uart.o
                                                  build/stm32f3xx_hal_uart_ex.o
UART_EndTransmit_IT                               build/stm32f3xx_hal_uart.o
UART_Receive_IT                                   build/stm32f3xx_hal_uart.o
UART_SetConfig                                    build/stm32f3xx_hal_uart.o
                                                  build/stm32f3xx_hal_uart_ex.o
UART_Transmit_IT                                  build/stm32f3xx_hal_uart.o
UART_WaitOnFlagUntilTimeout                       build/stm32f3xx_hal_uart.o
                                                  build/stm32f3xx_hal_uart_ex.o
UART_Wakeup_AddressConfig                         build/stm32f3xx_hal_uart.o
                                                  build/stm32f3xx_hal_uart_ex.o
USART1_IRQHandler                                 build/stm32f3xx_it.o
USART2_IRQHandler                                 build/startup_stm32f303xc.o
USART3_IRQHandler                                 build/startup_stm32f303xc.o
USBWakeUp_IRQHandler                              build/startup_stm32f303xc.o
USBWakeUp_RMP_IRQHandler                          build/startup_stm32f303xc.o
USB_HP_CAN_TX_IRQHandler                          build/startup_stm32f303xc.o
USB_HP_IRQHandler                                 build/startup_stm32f303xc.o
USB_LP_CAN_RX0_IRQHandler                         build/startup_stm32f303xc.o
USB_LP_IRQHandler                                 build/startup_stm32f303xc.o
UsageFault_Handler                                build/startup_stm32f303xc.o
WWDG_IRQHandler                                   build/startup_stm32f303xc.o
_Balloc                                           /home/stm/tools/stm/gcc-arm-none-eabi/gcc-arm-none-eabi-4_9-2015q3/bin/../lib/gcc/arm-none-eabi/4.9.3/../../../../arm-none-eabi/lib/armv7e-m/fpu/libc_nano.a(lib_a-mprec.o)
                                                  /home/stm/tools/stm/gcc-arm-none-eabi/gcc-arm-none-eabi-4_9-2015q3/bin/../lib/gcc/arm-none-eabi/4.9.3/../../../../arm-none-eabi/lib/armv7e-m/fpu/libc_nano.a(lib_a-dtoa.o)
_Bfree                                            /home/stm/tools/stm/gcc-arm-none-eabi/gcc-arm-none-eabi-4_9-2015q3/bin/../lib/gcc/arm-none-eabi/4.9.3/../../../../arm-none-eabi/lib/armv7e-m/fpu/libc_nano.a(lib_a-mprec.o)
                                                  /home/stm/tools/stm/gcc-arm-none-eabi/gcc-arm-none-eabi-4_9-2015q3/bin/../lib/gcc/arm-none-eabi/4.9.3/../../../../arm-none-eabi/lib/armv7e-m/fpu/libc_nano.a(lib_a-dtoa.o)
_Error_Handler                                    build/main.o
_Jv_RegisterClasses                               /home/stm/tools/stm/gcc-arm-none-eabi/gcc-arm-none-eabi-4_9-2015q3/bin/../lib/gcc/arm-none-eabi/4.9.3/armv7e-m/fpu/crtbegin.o
_PathLocale                                       /home/stm/tools/stm/gcc-arm-none-eabi/gcc-arm-none-eabi-4_9-2015q3/bin/../lib/gcc/arm-none-eabi/4.9.3/../../../../arm-none-eabi/lib/armv7e-m/fpu/libc_nano.a(lib_a-locale.o)
__adddf3                                          /home/stm/tools/stm/gcc-arm-none-eabi/gcc-arm-none-eabi-4_9-2015q3/bin/../lib/gcc/arm-none-eabi/4.9.3/armv7e-m/fpu/libgcc.a(_arm_addsubdf3.o)
__aeabi_cdcmpeq                                   /home/stm/tools/stm/gcc-arm-none-eabi/gcc-arm-none-eabi-4_9-2015q3/bin/../lib/gcc/arm-none-eabi/4.9.3/armv7e-m/fpu/libgcc.a(_arm_cmpdf2.o)
__aeabi_cdcmple                                   /home/stm/tools/stm/gcc-arm-none-eabi/gcc-arm-none-eabi-4_9-2015q3/bin/../lib/gcc/arm-none-eabi/4.9.3/armv7e-m/fpu/libgcc.a(_arm_cmpdf2.o)
__aeabi_cdrcmple                                  /home/stm/tools/stm/gcc-arm-none-eabi/gcc-arm-none-eabi-4_9-2015q3/bin/../lib/gcc/arm-none-eabi/4.9.3/armv7e-m/fpu/libgcc.a(_arm_cmpdf2.o)
__aeabi_d2iz                                      /home/stm/tools/stm/gcc-arm-none-eabi/gcc-arm-none-eabi-4_9-2015q3/bin/../lib/gcc/arm-none-eabi/4.9.3/armv7e-m/fpu/libgcc.a(_arm_fixdfsi.o)
                                                  /home/stm/tools/stm/gcc-arm-none-eabi/gcc-arm-none-eabi-4_9-2015q3/bin/../lib/gcc/arm-none-eabi/4.9.3/../../../../arm-none-eabi/lib/armv7e-m/fpu/libc_nano.a(lib_a-dtoa.o)
__aeabi_dadd                                      /home/stm/tools/stm/gcc-arm-none-eabi/gcc-arm-none-eabi-4_9-2015q3/bin/../lib/gcc/arm-none-eabi/4.9.3/armv7e-m/fpu/libgcc.a(_arm_addsubdf3.o)
                                                  /home/stm/tools/stm/gcc-arm-none-eabi/gcc-arm-none-eabi-4_9-2015q3/bin/../lib/gcc/arm-none-eabi/4.9.3/../../../../arm-none-eabi/lib/armv7e-m/fpu/libc_nano.a(lib_a-dtoa.o)
__aeabi_dcmpeq                                    /home/stm/tools/stm/gcc-arm-none-eabi/gcc-arm-none-eabi-4_9-2015q3/bin/../lib/gcc/arm-none-eabi/4.9.3/armv7e-m/fpu/libgcc.a(_arm_cmpdf2.o)
                                                  /home/stm/tools/stm/gcc-arm-none-eabi/gcc-arm-none-eabi-4_9-2015q3/bin/../lib/gcc/arm-none-eabi/4.9.3/../../../../arm-none-eabi/lib/armv7e-m/fpu/libc_nano.a(lib_a-dtoa.o)
                                                  /home/stm/tools/stm/gcc-arm-none-eabi/gcc-arm-none-eabi-4_9-2015q3/bin/../lib/gcc/arm-none-eabi/4.9.3/../../../../arm-none-eabi/lib/armv7e-m/fpu/libc_nano.a(lib_a-nano-vfprintf_float.o)
__aeabi_dcmpge                                    /home/stm/tools/stm/gcc-arm-none-eabi/gcc-arm-none-eabi-4_9-2015q3/bin/../lib/gcc/arm-none-eabi/4.9.3/armv7e-m/fpu/libgcc.a(_arm_cmpdf2.o)
                                                  /home/stm/tools/stm/gcc-arm-none-eabi/gcc-arm-none-eabi-4_9-2015q3/bin/../lib/gcc/arm-none-eabi/4.9.3/../../../../arm-none-eabi/lib/armv7e-m/fpu/libc_nano.a(lib_a-dtoa.o)
__aeabi_dcmpgt                                    /home/stm/tools/stm/gcc-arm-none-eabi/gcc-arm-none-eabi-4_9-2015q3/bin/../lib/gcc/arm-none-eabi/4.9.3/armv7e-m/fpu/libgcc.a(_arm_cmpdf2.o)
                                                  /home/stm/tools/stm/gcc-arm-none-eabi/gcc-arm-none-eabi-4_9-2015q3/bin/../lib/gcc/arm-none-eabi/4.9.3/../../../../arm-none-eabi/lib/armv7e-m/fpu/libc_nano.a(lib_a-dtoa.o)
__aeabi_dcmple                                    /home/stm/tools/stm/gcc-arm-none-eabi/gcc-arm-none-eabi-4_9-2015q3/bin/../lib/gcc/arm-none-eabi/4.9.3/armv7e-m/fpu/libgcc.a(_arm_cmpdf2.o)
__aeabi_dcmplt                                    /home/stm/tools/stm/gcc-arm-none-eabi/gcc-arm-none-eabi-4_9-2015q3/bin/../lib/gcc/arm-none-eabi/4.9.3/armv7e-m/fpu/libgcc.a(_arm_cmpdf2.o)
                                                  /home/stm/tools/stm/gcc-arm-none-eabi/gcc-arm-none-eabi-4_9-2015q3/bin/../lib/gcc/arm-none-eabi/4.9.3/../../../../arm-none-eabi/lib/armv7e-m/fpu/libc_nano.a(lib_a-dtoa.o)
                                                  /home/stm/tools/stm/gcc-arm-none-eabi/gcc-arm-none-eabi-4_9-2015q3/bin/../lib/gcc/arm-none-eabi/4.9.3/../../../../arm-none-eabi/lib/armv7e-m/fpu/libc_nano.a(lib_a-nano-vfprintf_float.o)
__aeabi_ddiv                                      /home/stm/tools/stm/gcc-arm-none-eabi/gcc-arm-none-eabi-4_9-2015q3/bin/../lib/gcc/arm-none-eabi/4.9.3/armv7e-m/fpu/libgcc.a(_arm_muldivdf3.o)
                                                  /home/stm/tools/stm/gcc-arm-none-eabi/gcc-arm-none-eabi-4_9-2015q3/bin/../lib/gcc/arm-none-eabi/4.9.3/../../../../arm-none-eabi/lib/armv7e-m/fpu/libc_nano.a(lib_a-mprec.o)
                                                  /home/stm/tools/stm/gcc-arm-none-eabi/gcc-arm-none-eabi-4_9-2015q3/bin/../lib/gcc/arm-none-eabi/4.9.3/../../../../arm-none-eabi/lib/armv7e-m/fpu/libc_nano.a(lib_a-dtoa.o)
__aeabi_dmul                                      /home/stm/tools/stm/gcc-arm-none-eabi/gcc-arm-none-eabi-4_9-2015q3/bin/../lib/gcc/arm-none-eabi/4.9.3/armv7e-m/fpu/libgcc.a(_arm_muldivdf3.o)
                                                  /home/stm/tools/stm/gcc-arm-none-eabi/gcc-arm-none-eabi-4_9-2015q3/bin/../lib/gcc/arm-none-eabi/4.9.3/../../../../arm-none-eabi/lib/armv7e-m/fpu/libc_nano.a(lib_a-mprec.o)
                                                  /home/stm/tools/stm/gcc-arm-none-eabi/gcc-arm-none-eabi-4_9-2015q3/bin/../lib/gcc/arm-none-eabi/4.9.3/../../../../arm-none-eabi/lib/armv7e-m/fpu/libc_nano.a(lib_a-dtoa.o)
__aeabi_drsub                                     /home/stm/tools/stm/gcc-arm-none-eabi/gcc-arm-none-eabi-4_9-2015q3/bin/../lib/gcc/arm-none-eabi/4.9.3/armv7e-m/fpu/libgcc.a(_arm_addsubdf3.o)
__aeabi_dsub                                      /home/stm/tools/stm/gcc-arm-none-eabi/gcc-arm-none-eabi-4_9-2015q3/bin/../lib/gcc/arm-none-eabi/4.9.3/armv7e-m/fpu/libgcc.a(_arm_addsubdf3.o)
                                                  /home/stm/tools/stm/gcc-arm-none-eabi/gcc-arm-none-eabi-4_9-2015q3/bin/../lib/gcc/arm-none-eabi/4.9.3/../../../../arm-none-eabi/lib/armv7e-m/fpu/libc_nano.a(lib_a-dtoa.o)
__aeabi_f2d                                       /home/stm/tools/stm/gcc-arm-none-eabi/gcc-arm-none-eabi-4_9-2015q3/bin/../lib/gcc/arm-none-eabi/4.9.3/armv7e-m/fpu/libgcc.a(_arm_addsubdf3.o)
__aeabi_i2d                                       /home/stm/tools/stm/gcc-arm-none-eabi/gcc-arm-none-eabi-4_9-2015q3/bin/../lib/gcc/arm-none-eabi/4.9.3/armv7e-m/fpu/libgcc.a(_arm_addsubdf3.o)
                                                  /home/stm/tools/stm/gcc-arm-none-eabi/gcc-arm-none-eabi-4_9-2015q3/bin/../lib/gcc/arm-none-eabi/4.9.3/../../../../arm-none-eabi/lib/armv7e-m/fpu/libc_nano.a(lib_a-dtoa.o)
__aeabi_l2d                                       /home/stm/tools/stm/gcc-arm-none-eabi/gcc-arm-none-eabi-4_9-2015q3/bin/../lib/gcc/arm-none-eabi/4.9.3/armv7e-m/fpu/libgcc.a(_arm_addsubdf3.o)
__aeabi_ui2d                                      /home/stm/tools/stm/gcc-arm-none-eabi/gcc-arm-none-eabi-4_9-2015q3/bin/../lib/gcc/arm-none-eabi/4.9.3/armv7e-m/fpu/libgcc.a(_arm_addsubdf3.o)
                                                  /home/stm/tools/stm/gcc-arm-none-eabi/gcc-arm-none-eabi-4_9-2015q3/bin/../lib/gcc/arm-none-eabi/4.9.3/../../../../arm-none-eabi/lib/armv7e-m/fpu/libc_nano.a(lib_a-dtoa.o)
__aeabi_ul2d                                      /home/stm/tools/stm/gcc-arm-none-eabi/gcc-arm-none-eabi-4_9-2015q3/bin/../lib/gcc/arm-none-eabi/4.9.3/armv7e-m/fpu/libgcc.a(_arm_addsubdf3.o)
__any_on                                          /home/stm/tools/stm/gcc-arm-none-eabi/gcc-arm-none-eabi-4_9-2015q3/bin/../lib/gcc/arm-none-eabi/4.9.3/../../../../arm-none-eabi/lib/armv7e-m/fpu/libc_nano.a(lib_a-mprec.o)
__b2d                                             /home/stm/tools/stm/gcc-arm-none-eabi/gcc-arm-none-eabi-4_9-2015q3/bin/../lib/gcc/arm-none-eabi/4.9.3/../../../../arm-none-eabi/lib/armv7e-m/fpu/libc_nano.a(lib_a-mprec.o)
__bss_end__                                       /home/stm/tools/stm/gcc-arm-none-eabi/gcc-arm-none-eabi-4_9-2015q3/bin/../lib/gcc/arm-none-eabi/4.9.3/../../../../arm-none-eabi/lib/armv7e-m/fpu/crt0.o
__bss_start__                                     /home/stm/tools/stm/gcc-arm-none-eabi/gcc-arm-none-eabi-4_9-2015q3/bin/../lib/gcc/arm-none-eabi/4.9.3/../../../../arm-none-eabi/lib/armv7e-m/fpu/crt0.o
__call_exitprocs                                  /home/stm/tools/stm/gcc-arm-none-eabi/gcc-arm-none-eabi-4_9-2015q3/bin/../lib/gcc/arm-none-eabi/4.9.3/../../../../arm-none-eabi/lib/armv7e-m/fpu/libc_nano.a(lib_a-exit.o)
__cmpdf2                                          /home/stm/tools/stm/gcc-arm-none-eabi/gcc-arm-none-eabi-4_9-2015q3/bin/../lib/gcc/arm-none-eabi/4.9.3/armv7e-m/fpu/libgcc.a(_arm_cmpdf2.o)
__copybits                                        /home/stm/tools/stm/gcc-arm-none-eabi/gcc-arm-none-eabi-4_9-2015q3/bin/../lib/gcc/arm-none-eabi/4.9.3/../../../../arm-none-eabi/lib/armv7e-m/fpu/libc_nano.a(lib_a-mprec.o)
__ctype_ptr__                                     /home/stm/tools/stm/gcc-arm-none-eabi/gcc-arm-none-eabi-4_9-2015q3/bin/../lib/gcc/arm-none-eabi/4.9.3/../../../../arm-none-eabi/lib/armv7e-m/fpu/libc_nano.a(lib_a-ctype_.o)
                                                  /home/stm/tools/stm/gcc-arm-none-eabi/gcc-arm-none-eabi-4_9-2015q3/bin/../lib/gcc/arm-none-eabi/4.9.3/../../../../arm-none-eabi/lib/armv7e-m/fpu/libc_nano.a(lib_a-strtol.o)
__cvt                                             /home/stm/tools/stm/gcc-arm-none-eabi/gcc-arm-none-eabi-4_9-2015q3/bin/../lib/gcc/arm-none-eabi/4.9.3/../../../../arm-none-eabi/lib/armv7e-m/fpu/libc_nano.a(lib_a-nano-vfprintf_float.o)
__d2b                                             /home/stm/tools/stm/gcc-arm-none-eabi/gcc-arm-none-eabi-4_9-2015q3/bin/../lib/gcc/arm-none-eabi/4.9.3/../../../../arm-none-eabi/lib/armv7e-m/fpu/libc_nano.a(lib_a-mprec.o)
                                                  /home/stm/tools/stm/gcc-arm-none-eabi/gcc-arm-none-eabi-4_9-2015q3/bin/../lib/gcc/arm-none-eabi/4.9.3/../../../../arm-none-eabi/lib/armv7e-m/fpu/libc_nano.a(lib_a-dtoa.o)
__deregister_frame_info                           /home/stm/tools/stm/gcc-arm-none-eabi/gcc-arm-none-eabi-4_9-2015q3/bin/../lib/gcc/arm-none-eabi/4.9.3/armv7e-m/fpu/crtbegin.o
__divdf3                                          /home/stm/tools/stm/gcc-arm-none-eabi/gcc-arm-none-eabi-4_9-2015q3/bin/../lib/gcc/arm-none-eabi/4.9.3/armv7e-m/fpu/libgcc.a(_arm_muldivdf3.o)
__dso_handle                                      /home/stm/tools/stm/gcc-arm-none-eabi/gcc-arm-none-eabi-4_9-2015q3/bin/../lib/gcc/arm-none-eabi/4.9.3/armv7e-m/fpu/crtbegin.o
__eqdf2                                           /home/stm/tools/stm/gcc-arm-none-eabi/gcc-arm-none-eabi-4_9-2015q3/bin/../lib/gcc/arm-none-eabi/4.9.3/armv7e-m/fpu/libgcc.a(_arm_cmpdf2.o)
__errno                                           /home/stm/tools/stm/gcc-arm-none-eabi/gcc-arm-none-eabi-4_9-2015q3/bin/../lib/gcc/arm-none-eabi/4.9.3/../../../../arm-none-eabi/lib/armv7e-m/fpu/libc_nano.a(lib_a-errno.o)
                                                  build/syscalls.o
__exponent                                        /home/stm/tools/stm/gcc-arm-none-eabi/gcc-arm-none-eabi-4_9-2015q3/bin/../lib/gcc/arm-none-eabi/4.9.3/../../../../arm-none-eabi/lib/armv7e-m/fpu/libc_nano.a(lib_a-nano-vfprintf_float.o)
__extendsfdf2                                     /home/stm/tools/stm/gcc-arm-none-eabi/gcc-arm-none-eabi-4_9-2015q3/bin/../lib/gcc/arm-none-eabi/4.9.3/armv7e-m/fpu/libgcc.a(_arm_addsubdf3.o)
__fixdfsi                                         /home/stm/tools/stm/gcc-arm-none-eabi/gcc-arm-none-eabi-4_9-2015q3/bin/../lib/gcc/arm-none-eabi/4.9.3/armv7e-m/fpu/libgcc.a(_arm_fixdfsi.o)
__floatdidf                                       /home/stm/tools/stm/gcc-arm-none-eabi/gcc-arm-none-eabi-4_9-2015q3/bin/../lib/gcc/arm-none-eabi/4.9.3/armv7e-m/fpu/libgcc.a(_arm_addsubdf3.o)
__floatsidf                                       /home/stm/tools/stm/gcc-arm-none-eabi/gcc-arm-none-eabi-4_9-2015q3/bin/../lib/gcc/arm-none-eabi/4.9.3/armv7e-m/fpu/libgcc.a(_arm_addsubdf3.o)
__floatundidf                                     /home/stm/tools/stm/gcc-arm-none-eabi/gcc-arm-none-eabi-4_9-2015q3/bin/../lib/gcc/arm-none-eabi/4.9.3/armv7e-m/fpu/libgcc.a(_arm_addsubdf3.o)
__floatunsidf                                     /home/stm/tools/stm/gcc-arm-none-eabi/gcc-arm-none-eabi-4_9-2015q3/bin/../lib/gcc/arm-none-eabi/4.9.3/armv7e-m/fpu/libgcc.a(_arm_addsubdf3.o)
__fpclassifyd                                     /home/stm/tools/stm/gcc-arm-none-eabi/gcc-arm-none-eabi-4_9-2015q3/bin/../lib/gcc/arm-none-eabi/4.9.3/../../../../arm-none-eabi/lib/armv7e-m/fpu/libc_nano.a(lib_a-s_fpclassify.o)
                                                  /home/stm/tools/stm/gcc-arm-none-eabi/gcc-arm-none-eabi-4_9-2015q3/bin/../lib/gcc/arm-none-eabi/4.9.3/../../../../arm-none-eabi/lib/armv7e-m/fpu/libc_nano.a(lib_a-nano-vfprintf_float.o)
__gedf2                                           /home/stm/tools/stm/gcc-arm-none-eabi/gcc-arm-none-eabi-4_9-2015q3/bin/../lib/gcc/arm-none-eabi/4.9.3/armv7e-m/fpu/libgcc.a(_arm_cmpdf2.o)
__gtdf2                                           /home/stm/tools/stm/gcc-arm-none-eabi/gcc-arm-none-eabi-4_9-2015q3/bin/../lib/gcc/arm-none-eabi/4.9.3/armv7e-m/fpu/libgcc.a(_arm_cmpdf2.o)
__hi0bits                                         /home/stm/tools/stm/gcc-arm-none-eabi/gcc-arm-none-eabi-4_9-2015q3/bin/../lib/gcc/arm-none-eabi/4.9.3/../../../../arm-none-eabi/lib/armv7e-m/fpu/libc_nano.a(lib_a-mprec.o)
                                                  /home/stm/tools/stm/gcc-arm-none-eabi/gcc-arm-none-eabi-4_9-2015q3/bin/../lib/gcc/arm-none-eabi/4.9.3/../../../../arm-none-eabi/lib/armv7e-m/fpu/libc_nano.a(lib_a-dtoa.o)
__i2b                                             /home/stm/tools/stm/gcc-arm-none-eabi/gcc-arm-none-eabi-4_9-2015q3/bin/../lib/gcc/arm-none-eabi/4.9.3/../../../../arm-none-eabi/lib/armv7e-m/fpu/libc_nano.a(lib_a-mprec.o)
                                                  /home/stm/tools/stm/gcc-arm-none-eabi/gcc-arm-none-eabi-4_9-2015q3/bin/../lib/gcc/arm-none-eabi/4.9.3/../../../../arm-none-eabi/lib/armv7e-m/fpu/libc_nano.a(lib_a-dtoa.o)
__init_array_end                                  /home/stm/tools/stm/gcc-arm-none-eabi/gcc-arm-none-eabi-4_9-2015q3/bin/../lib/gcc/arm-none-eabi/4.9.3/../../../../arm-none-eabi/lib/armv7e-m/fpu/libc_nano.a(lib_a-init.o)
__init_array_start                                /home/stm/tools/stm/gcc-arm-none-eabi/gcc-arm-none-eabi-4_9-2015q3/bin/../lib/gcc/arm-none-eabi/4.9.3/../../../../arm-none-eabi/lib/armv7e-m/fpu/libc_nano.a(lib_a-init.o)
__io_getchar                                      build/syscalls.o
__io_putchar                                      build/syscalls.o
__itoa                                            /home/stm/tools/stm/gcc-arm-none-eabi/gcc-arm-none-eabi-4_9-2015q3/bin/../lib/gcc/arm-none-eabi/4.9.3/../../../../arm-none-eabi/lib/armv7e-m/fpu/libc_nano.a(lib_a-itoa.o)
__ledf2                                           /home/stm/tools/stm/gcc-arm-none-eabi/gcc-arm-none-eabi-4_9-2015q3/bin/../lib/gcc/arm-none-eabi/4.9.3/armv7e-m/fpu/libgcc.a(_arm_cmpdf2.o)
__libc_fini_array                                 /home/stm/tools/stm/gcc-arm-none-eabi/gcc-arm-none-eabi-4_9-2015q3/bin/../lib/gcc/arm-none-eabi/4.9.3/../../../../arm-none-eabi/lib/armv7e-m/fpu/crt0.o
__libc_init_array                                 /home/stm/tools/stm/gcc-arm-none-eabi/gcc-arm-none-eabi-4_9-2015q3/bin/../lib/gcc/arm-none-eabi/4.9.3/../../../../arm-none-eabi/lib/armv7e-m/fpu/libc_nano.a(lib_a-init.o)
                                                  build/startup_stm32f303xc.o
                                                  /home/stm/tools/stm/gcc-arm-none-eabi/gcc-arm-none-eabi-4_9-2015q3/bin/../lib/gcc/arm-none-eabi/4.9.3/../../../../arm-none-eabi/lib/armv7e-m/fpu/crt0.o
__lo0bits                                         /home/stm/tools/stm/gcc-arm-none-eabi/gcc-arm-none-eabi-4_9-2015q3/bin/../lib/gcc/arm-none-eabi/4.9.3/../../../../arm-none-eabi/lib/armv7e-m/fpu/libc_nano.a(lib_a-mprec.o)
__locale_charset                                  /home/stm/tools/stm/gcc-arm-none-eabi/gcc-arm-none-eabi-4_9-2015q3/bin/../lib/gcc/arm-none-eabi/4.9.3/../../../../arm-none-eabi/lib/armv7e-m/fpu/libc_nano.a(lib_a-locale.o)
__locale_cjk_lang                                 /home/stm/tools/stm/gcc-arm-none-eabi/gcc-arm-none-eabi-4_9-2015q3/bin/../lib/gcc/arm-none-eabi/4.9.3/../../../../arm-none-eabi/lib/armv7e-m/fpu/libc_nano.a(lib_a-locale.o)
__locale_mb_cur_max                               /home/stm/tools/stm/gcc-arm-none-eabi/gcc-arm-none-eabi-4_9-2015q3/bin/../lib/gcc/arm-none-eabi/4.9.3/../../../../arm-none-eabi/lib/armv7e-m/fpu/libc_nano.a(lib_a-locale.o)
__locale_msgcharset                               /home/stm/tools/stm/gcc-arm-none-eabi/gcc-arm-none-eabi-4_9-2015q3/bin/../lib/gcc/arm-none-eabi/4.9.3/../../../../arm-none-eabi/lib/armv7e-m/fpu/libc_nano.a(lib_a-locale.o)
__lshift                                          /home/stm/tools/stm/gcc-arm-none-eabi/gcc-arm-none-eabi-4_9-2015q3/bin/../lib/gcc/arm-none-eabi/4.9.3/../../../../arm-none-eabi/lib/armv7e-m/fpu/libc_nano.a(lib_a-mprec.o)
                                                  /home/stm/tools/stm/gcc-arm-none-eabi/gcc-arm-none-eabi-4_9-2015q3/bin/../lib/gcc/arm-none-eabi/4.9.3/../../../../arm-none-eabi/lib/armv7e-m/fpu/libc_nano.a(lib_a-dtoa.o)
__ltdf2                                           /home/stm/tools/stm/gcc-arm-none-eabi/gcc-arm-none-eabi-4_9-2015q3/bin/../lib/gcc/arm-none-eabi/4.9.3/armv7e-m/fpu/libgcc.a(_arm_cmpdf2.o)
__malloc_free_list                                /home/stm/tools/stm/gcc-arm-none-eabi/gcc-arm-none-eabi-4_9-2015q3/bin/../lib/gcc/arm-none-eabi/4.9.3/../../../../arm-none-eabi/lib/armv7e-m/fpu/libc_nano.a(lib_a-nano-mallocr.o)
                                                  /home/stm/tools/stm/gcc-arm-none-eabi/gcc-arm-none-eabi-4_9-2015q3/bin/../lib/gcc/arm-none-eabi/4.9.3/../../../../arm-none-eabi/lib/armv7e-m/fpu/libc_nano.a(lib_a-nano-freer.o)
__malloc_sbrk_start                               /home/stm/tools/stm/gcc-arm-none-eabi/gcc-arm-none-eabi-4_9-2015q3/bin/../lib/gcc/arm-none-eabi/4.9.3/../../../../arm-none-eabi/lib/armv7e-m/fpu/libc_nano.a(lib_a-nano-mallocr.o)
__mb_cur_max                                      /home/stm/tools/stm/gcc-arm-none-eabi/gcc-arm-none-eabi-4_9-2015q3/bin/../lib/gcc/arm-none-eabi/4.9.3/../../../../arm-none-eabi/lib/armv7e-m/fpu/libc_nano.a(lib_a-locale.o)
__mcmp                                            /home/stm/tools/stm/gcc-arm-none-eabi/gcc-arm-none-eabi-4_9-2015q3/bin/../lib/gcc/arm-none-eabi/4.9.3/../../../../arm-none-eabi/lib/armv7e-m/fpu/libc_nano.a(lib_a-mprec.o)
                                                  /home/stm/tools/stm/gcc-arm-none-eabi/gcc-arm-none-eabi-4_9-2015q3/bin/../lib/gcc/arm-none-eabi/4.9.3/../../../../arm-none-eabi/lib/armv7e-m/fpu/libc_nano.a(lib_a-dtoa.o)
__mdiff                                           /home/stm/tools/stm/gcc-arm-none-eabi/gcc-arm-none-eabi-4_9-2015q3/bin/../lib/gcc/arm-none-eabi/4.9.3/../../../../arm-none-eabi/lib/armv7e-m/fpu/libc_nano.a(lib_a-mprec.o)
                                                  /home/stm/tools/stm/gcc-arm-none-eabi/gcc-arm-none-eabi-4_9-2015q3/bin/../lib/gcc/arm-none-eabi/4.9.3/../../../../arm-none-eabi/lib/armv7e-m/fpu/libc_nano.a(lib_a-dtoa.o)
__mlocale_changed                                 /home/stm/tools/stm/gcc-arm-none-eabi/gcc-arm-none-eabi-4_9-2015q3/bin/../lib/gcc/arm-none-eabi/4.9.3/../../../../arm-none-eabi/lib/armv7e-m/fpu/libc_nano.a(lib_a-locale.o)
__mprec_bigtens                                   /home/stm/tools/stm/gcc-arm-none-eabi/gcc-arm-none-eabi-4_9-2015q3/bin/../lib/gcc/arm-none-eabi/4.9.3/../../../../arm-none-eabi/lib/armv7e-m/fpu/libc_nano.a(lib_a-mprec.o)
                                                  /home/stm/tools/stm/gcc-arm-none-eabi/gcc-arm-none-eabi-4_9-2015q3/bin/../lib/gcc/arm-none-eabi/4.9.3/../../../../arm-none-eabi/lib/armv7e-m/fpu/libc_nano.a(lib_a-dtoa.o)
__mprec_tens                                      /home/stm/tools/stm/gcc-arm-none-eabi/gcc-arm-none-eabi-4_9-2015q3/bin/../lib/gcc/arm-none-eabi/4.9.3/../../../../arm-none-eabi/lib/armv7e-m/fpu/libc_nano.a(lib_a-mprec.o)
                                                  /home/stm/tools/stm/gcc-arm-none-eabi/gcc-arm-none-eabi-4_9-2015q3/bin/../lib/gcc/arm-none-eabi/4.9.3/../../../../arm-none-eabi/lib/armv7e-m/fpu/libc_nano.a(lib_a-dtoa.o)
__mprec_tinytens                                  /home/stm/tools/stm/gcc-arm-none-eabi/gcc-arm-none-eabi-4_9-2015q3/bin/../lib/gcc/arm-none-eabi/4.9.3/../../../../arm-none-eabi/lib/armv7e-m/fpu/libc_nano.a(lib_a-mprec.o)
__muldf3                                          /home/stm/tools/stm/gcc-arm-none-eabi/gcc-arm-none-eabi-4_9-2015q3/bin/../lib/gcc/arm-none-eabi/4.9.3/armv7e-m/fpu/libgcc.a(_arm_muldivdf3.o)
__multadd                                         /home/stm/tools/stm/gcc-arm-none-eabi/gcc-arm-none-eabi-4_9-2015q3/bin/../lib/gcc/arm-none-eabi/4.9.3/../../../../arm-none-eabi/lib/armv7e-m/fpu/libc_nano.a(lib_a-mprec.o)
                                                  /home/stm/tools/stm/gcc-arm-none-eabi/gcc-arm-none-eabi-4_9-2015q3/bin/../lib/gcc/arm-none-eabi/4.9.3/../../../../arm-none-eabi/lib/armv7e-m/fpu/libc_nano.a(lib_a-dtoa.o)
__multiply                                        /home/stm/tools/stm/gcc-arm-none-eabi/gcc-arm-none-eabi-4_9-2015q3/bin/../lib/gcc/arm-none-eabi/4.9.3/../../../../arm-none-eabi/lib/armv7e-m/fpu/libc_nano.a(lib_a-mprec.o)
                                                  /home/stm/tools/stm/gcc-arm-none-eabi/gcc-arm-none-eabi-4_9-2015q3/bin/../lib/gcc/arm-none-eabi/4.9.3/../../../../arm-none-eabi/lib/armv7e-m/fpu/libc_nano.a(lib_a-dtoa.o)
__nedf2                                           /home/stm/tools/stm/gcc-arm-none-eabi/gcc-arm-none-eabi-4_9-2015q3/bin/../lib/gcc/arm-none-eabi/4.9.3/armv7e-m/fpu/libgcc.a(_arm_cmpdf2.o)
__nlocale_changed                                 /home/stm/tools/stm/gcc-arm-none-eabi/gcc-arm-none-eabi-4_9-2015q3/bin/../lib/gcc/arm-none-eabi/4.9.3/../../../../arm-none-eabi/lib/armv7e-m/fpu/libc_nano.a(lib_a-locale.o)
__pow5mult                                        /home/stm/tools/stm/gcc-arm-none-eabi/gcc-arm-none-eabi-4_9-2015q3/bin/../lib/gcc/arm-none-eabi/4.9.3/../../../../arm-none-eabi/lib/armv7e-m/fpu/libc_nano.a(lib_a-mprec.o)
                                                  /home/stm/tools/stm/gcc-arm-none-eabi/gcc-arm-none-eabi-4_9-2015q3/bin/../lib/gcc/arm-none-eabi/4.9.3/../../../../arm-none-eabi/lib/armv7e-m/fpu/libc_nano.a(lib_a-dtoa.o)
__preinit_array_end                               /home/stm/tools/stm/gcc-arm-none-eabi/gcc-arm-none-eabi-4_9-2015q3/bin/../lib/gcc/arm-none-eabi/4.9.3/../../../../arm-none-eabi/lib/armv7e-m/fpu/libc_nano.a(lib_a-init.o)
__preinit_array_start                             /home/stm/tools/stm/gcc-arm-none-eabi/gcc-arm-none-eabi-4_9-2015q3/bin/../lib/gcc/arm-none-eabi/4.9.3/../../../../arm-none-eabi/lib/armv7e-m/fpu/libc_nano.a(lib_a-init.o)
__ratio                                           /home/stm/tools/stm/gcc-arm-none-eabi/gcc-arm-none-eabi-4_9-2015q3/bin/../lib/gcc/arm-none-eabi/4.9.3/../../../../arm-none-eabi/lib/armv7e-m/fpu/libc_nano.a(lib_a-mprec.o)
__register_frame_info                             /home/stm/tools/stm/gcc-arm-none-eabi/gcc-arm-none-eabi-4_9-2015q3/bin/../lib/gcc/arm-none-eabi/4.9.3/armv7e-m/fpu/crtbegin.o
__s2b                                             /home/stm/tools/stm/gcc-arm-none-eabi/gcc-arm-none-eabi-4_9-2015q3/bin/../lib/gcc/arm-none-eabi/4.9.3/../../../../arm-none-eabi/lib/armv7e-m/fpu/libc_nano.a(lib_a-mprec.o)
__sf_fake_stderr                                  /home/stm/tools/stm/gcc-arm-none-eabi/gcc-arm-none-eabi-4_9-2015q3/bin/../lib/gcc/arm-none-eabi/4.9.3/../../../../arm-none-eabi/lib/armv7e-m/fpu/libc_nano.a(lib_a-impure.o)
__sf_fake_stdin                                   /home/stm/tools/stm/gcc-arm-none-eabi/gcc-arm-none-eabi-4_9-2015q3/bin/../lib/gcc/arm-none-eabi/4.9.3/../../../../arm-none-eabi/lib/armv7e-m/fpu/libc_nano.a(lib_a-impure.o)
__sf_fake_stdout                                  /home/stm/tools/stm/gcc-arm-none-eabi/gcc-arm-none-eabi-4_9-2015q3/bin/../lib/gcc/arm-none-eabi/4.9.3/../../../../arm-none-eabi/lib/armv7e-m/fpu/libc_nano.a(lib_a-impure.o)
__stack                                           /home/stm/tools/stm/gcc-arm-none-eabi/gcc-arm-none-eabi-4_9-2015q3/bin/../lib/gcc/arm-none-eabi/4.9.3/../../../../arm-none-eabi/lib/armv7e-m/fpu/crt0.o
__strtok_r                                        /home/stm/tools/stm/gcc-arm-none-eabi/gcc-arm-none-eabi-4_9-2015q3/bin/../lib/gcc/arm-none-eabi/4.9.3/../../../../arm-none-eabi/lib/armv7e-m/fpu/libc_nano.a(lib_a-strtok_r.o)
                                                  /home/stm/tools/stm/gcc-arm-none-eabi/gcc-arm-none-eabi-4_9-2015q3/bin/../lib/gcc/arm-none-eabi/4.9.3/../../../../arm-none-eabi/lib/armv7e-m/fpu/libc_nano.a(lib_a-strtok.o)
__subdf3                                          /home/stm/tools/stm/gcc-arm-none-eabi/gcc-arm-none-eabi-4_9-2015q3/bin/../lib/gcc/arm-none-eabi/4.9.3/armv7e-m/fpu/libgcc.a(_arm_addsubdf3.o)
__ulp                                             /home/stm/tools/stm/gcc-arm-none-eabi/gcc-arm-none-eabi-4_9-2015q3/bin/../lib/gcc/arm-none-eabi/4.9.3/../../../../arm-none-eabi/lib/armv7e-m/fpu/libc_nano.a(lib_a-mprec.o)
__utoa                                            /home/stm/tools/stm/gcc-arm-none-eabi/gcc-arm-none-eabi-4_9-2015q3/bin/../lib/gcc/arm-none-eabi/4.9.3/../../../../arm-none-eabi/lib/armv7e-m/fpu/libc_nano.a(lib_a-utoa.o)
                                                  /home/stm/tools/stm/gcc-arm-none-eabi/gcc-arm-none-eabi-4_9-2015q3/bin/../lib/gcc/arm-none-eabi/4.9.3/../../../../arm-none-eabi/lib/armv7e-m/fpu/libc_nano.a(lib_a-itoa.o)
_atoi_r                                           /home/stm/tools/stm/gcc-arm-none-eabi/gcc-arm-none-eabi-4_9-2015q3/bin/../lib/gcc/arm-none-eabi/4.9.3/../../../../arm-none-eabi/lib/armv7e-m/fpu/libc_nano.a(lib_a-atoi.o)
_calloc_r                                         /home/stm/tools/stm/gcc-arm-none-eabi/gcc-arm-none-eabi-4_9-2015q3/bin/../lib/gcc/arm-none-eabi/4.9.3/../../../../arm-none-eabi/lib/armv7e-m/fpu/libc_nano.a(lib_a-nano-callocr.o)
                                                  /home/stm/tools/stm/gcc-arm-none-eabi/gcc-arm-none-eabi-4_9-2015q3/bin/../lib/gcc/arm-none-eabi/4.9.3/../../../../arm-none-eabi/lib/armv7e-m/fpu/libc_nano.a(lib_a-mprec.o)
_close                                            build/syscalls.o
_ctype_                                           /home/stm/tools/stm/gcc-arm-none-eabi/gcc-arm-none-eabi-4_9-2015q3/bin/../lib/gcc/arm-none-eabi/4.9.3/../../../../arm-none-eabi/lib/armv7e-m/fpu/libc_nano.a(lib_a-ctype_.o)
_dtoa_r                                           /home/stm/tools/stm/gcc-arm-none-eabi/gcc-arm-none-eabi-4_9-2015q3/bin/../lib/gcc/arm-none-eabi/4.9.3/../../../../arm-none-eabi/lib/armv7e-m/fpu/libc_nano.a(lib_a-dtoa.o)
                                                  /home/stm/tools/stm/gcc-arm-none-eabi/gcc-arm-none-eabi-4_9-2015q3/bin/../lib/gcc/arm-none-eabi/4.9.3/../../../../arm-none-eabi/lib/armv7e-m/fpu/libc_nano.a(lib_a-nano-vfprintf_float.o)
_ebss                                             build/startup_stm32f303xc.o
_edata                                            build/startup_stm32f303xc.o
_estack                                           build/startup_stm32f303xc.o
_execve                                           build/syscalls.o
_exit                                             build/syscalls.o
                                                  /home/stm/tools/stm/gcc-arm-none-eabi/gcc-arm-none-eabi-4_9-2015q3/bin/../lib/gcc/arm-none-eabi/4.9.3/../../../../arm-none-eabi/lib/armv7e-m/fpu/libc_nano.a(lib_a-exit.o)
_fini                                             /home/stm/tools/stm/gcc-arm-none-eabi/gcc-arm-none-eabi-4_9-2015q3/bin/../lib/gcc/arm-none-eabi/4.9.3/armv7e-m/fpu/crti.o
_fork                                             build/syscalls.o
_free_r                                           /home/stm/tools/stm/gcc-arm-none-eabi/gcc-arm-none-eabi-4_9-2015q3/bin/../lib/gcc/arm-none-eabi/4.9.3/../../../../arm-none-eabi/lib/armv7e-m/fpu/libc_nano.a(lib_a-nano-freer.o)
                                                  /home/stm/tools/stm/gcc-arm-none-eabi/gcc-arm-none-eabi-4_9-2015q3/bin/../lib/gcc/arm-none-eabi/4.9.3/../../../../arm-none-eabi/lib/armv7e-m/fpu/libc_nano.a(lib_a-reent.o)
                                                  /home/stm/tools/stm/gcc-arm-none-eabi/gcc-arm-none-eabi-4_9-2015q3/bin/../lib/gcc/arm-none-eabi/4.9.3/../../../../arm-none-eabi/lib/armv7e-m/fpu/libc_nano.a(lib_a-malloc.o)
_fstat                                            build/syscalls.o
_getpid                                           build/syscalls.o
_gettimeofday                                     build/syscalls.o
_global_impure_ptr                                /home/stm/tools/stm/gcc-arm-none-eabi/gcc-arm-none-eabi-4_9-2015q3/bin/../lib/gcc/arm-none-eabi/4.9.3/../../../../arm-none-eabi/lib/armv7e-m/fpu/libc_nano.a(lib_a-impure.o)
                                                  /home/stm/tools/stm/gcc-arm-none-eabi/gcc-arm-none-eabi-4_9-2015q3/bin/../lib/gcc/arm-none-eabi/4.9.3/../../../../arm-none-eabi/lib/armv7e-m/fpu/libc_nano.a(lib_a-exit.o)
_impure_ptr                                       /home/stm/tools/stm/gcc-arm-none-eabi/gcc-arm-none-eabi-4_9-2015q3/bin/../lib/gcc/arm-none-eabi/4.9.3/../../../../arm-none-eabi/lib/armv7e-m/fpu/libc_nano.a(lib_a-impure.o)
                                                  /home/stm/tools/stm/gcc-arm-none-eabi/gcc-arm-none-eabi-4_9-2015q3/bin/../lib/gcc/arm-none-eabi/4.9.3/../../../../arm-none-eabi/lib/armv7e-m/fpu/libc_nano.a(lib_a-reent.o)
                                                  /home/stm/tools/stm/gcc-arm-none-eabi/gcc-arm-none-eabi-4_9-2015q3/bin/../lib/gcc/arm-none-eabi/4.9.3/../../../../arm-none-eabi/lib/armv7e-m/fpu/libc_nano.a(lib_a-locale.o)
                                                  /home/stm/tools/stm/gcc-arm-none-eabi/gcc-arm-none-eabi-4_9-2015q3/bin/../lib/gcc/arm-none-eabi/4.9.3/../../../../arm-none-eabi/lib/armv7e-m/fpu/libc_nano.a(lib_a-strtol.o)
                                                  /home/stm/tools/stm/gcc-arm-none-eabi/gcc-arm-none-eabi-4_9-2015q3/bin/../lib/gcc/arm-none-eabi/4.9.3/../../../../arm-none-eabi/lib/armv7e-m/fpu/libc_nano.a(lib_a-strtok.o)
                                                  /home/stm/tools/stm/gcc-arm-none-eabi/gcc-arm-none-eabi-4_9-2015q3/bin/../lib/gcc/arm-none-eabi/4.9.3/../../../../arm-none-eabi/lib/armv7e-m/fpu/libc_nano.a(lib_a-malloc.o)
                                                  /home/stm/tools/stm/gcc-arm-none-eabi/gcc-arm-none-eabi-4_9-2015q3/bin/../lib/gcc/arm-none-eabi/4.9.3/../../../../arm-none-eabi/lib/armv7e-m/fpu/libc_nano.a(lib_a-errno.o)
_init                                             /home/stm/tools/stm/gcc-arm-none-eabi/gcc-arm-none-eabi-4_9-2015q3/bin/../lib/gcc/arm-none-eabi/4.9.3/armv7e-m/fpu/crti.o
                                                  /home/stm/tools/stm/gcc-arm-none-eabi/gcc-arm-none-eabi-4_9-2015q3/bin/../lib/gcc/arm-none-eabi/4.9.3/../../../../arm-none-eabi/lib/armv7e-m/fpu/libc_nano.a(lib_a-init.o)
_isatty                                           build/syscalls.o
_kill                                             build/syscalls.o
_link                                             build/syscalls.o
_localeconv_r                                     /home/stm/tools/stm/gcc-arm-none-eabi/gcc-arm-none-eabi-4_9-2015q3/bin/../lib/gcc/arm-none-eabi/4.9.3/../../../../arm-none-eabi/lib/armv7e-m/fpu/libc_nano.a(lib_a-locale.o)
                                                  /home/stm/tools/stm/gcc-arm-none-eabi/gcc-arm-none-eabi-4_9-2015q3/bin/../lib/gcc/arm-none-eabi/4.9.3/../../../../arm-none-eabi/lib/armv7e-m/fpu/libc_nano.a(lib_a-nano-vfprintf_float.o)
_lseek                                            build/syscalls.o
_mainCRTStartup                                   /home/stm/tools/stm/gcc-arm-none-eabi/gcc-arm-none-eabi-4_9-2015q3/bin/../lib/gcc/arm-none-eabi/4.9.3/../../../../arm-none-eabi/lib/armv7e-m/fpu/crt0.o
_malloc_r                                         /home/stm/tools/stm/gcc-arm-none-eabi/gcc-arm-none-eabi-4_9-2015q3/bin/../lib/gcc/arm-none-eabi/4.9.3/../../../../arm-none-eabi/lib/armv7e-m/fpu/libc_nano.a(lib_a-nano-mallocr.o)
                                                  /home/stm/tools/stm/gcc-arm-none-eabi/gcc-arm-none-eabi-4_9-2015q3/bin/../lib/gcc/arm-none-eabi/4.9.3/../../../../arm-none-eabi/lib/armv7e-m/fpu/libc_nano.a(lib_a-nano-callocr.o)
                                                  /home/stm/tools/stm/gcc-arm-none-eabi/gcc-arm-none-eabi-4_9-2015q3/bin/../lib/gcc/arm-none-eabi/4.9.3/../../../../arm-none-eabi/lib/armv7e-m/fpu/libc_nano.a(lib_a-malloc.o)
_mprec_log10                                      /home/stm/tools/stm/gcc-arm-none-eabi/gcc-arm-none-eabi-4_9-2015q3/bin/../lib/gcc/arm-none-eabi/4.9.3/../../../../arm-none-eabi/lib/armv7e-m/fpu/libc_nano.a(lib_a-mprec.o)
_open                                             build/syscalls.o
_printf_common                                    /home/stm/tools/stm/gcc-arm-none-eabi/gcc-arm-none-eabi-4_9-2015q3/bin/../lib/gcc/arm-none-eabi/4.9.3/../../../../arm-none-eabi/lib/armv7e-m/fpu/libc_nano.a(lib_a-nano-vfprintf_i.o)
                                                  /home/stm/tools/stm/gcc-arm-none-eabi/gcc-arm-none-eabi-4_9-2015q3/bin/../lib/gcc/arm-none-eabi/4.9.3/../../../../arm-none-eabi/lib/armv7e-m/fpu/libc_nano.a(lib_a-nano-vfprintf_float.o)
_printf_float                                     /home/stm/tools/stm/gcc-arm-none-eabi/gcc-arm-none-eabi-4_9-2015q3/bin/../lib/gcc/arm-none-eabi/4.9.3/../../../../arm-none-eabi/lib/armv7e-m/fpu/libc_nano.a(lib_a-nano-vfprintf_float.o)
_printf_i                                         /home/stm/tools/stm/gcc-arm-none-eabi/gcc-arm-none-eabi-4_9-2015q3/bin/../lib/gcc/arm-none-eabi/4.9.3/../../../../arm-none-eabi/lib/armv7e-m/fpu/libc_nano.a(lib_a-nano-vfprintf_i.o)
_read                                             build/syscalls.o
_reclaim_reent                                    /home/stm/tools/stm/gcc-arm-none-eabi/gcc-arm-none-eabi-4_9-2015q3/bin/../lib/gcc/arm-none-eabi/4.9.3/../../../../arm-none-eabi/lib/armv7e-m/fpu/libc_nano.a(lib_a-reent.o)
_sbrk                                             build/syscalls.o
                                                  /home/stm/tools/stm/gcc-arm-none-eabi/gcc-arm-none-eabi-4_9-2015q3/bin/../lib/gcc/arm-none-eabi/4.9.3/../../../../arm-none-eabi/lib/armv7e-m/fpu/libc_nano.a(lib_a-sbrkr.o)
_sbrk_r                                           /home/stm/tools/stm/gcc-arm-none-eabi/gcc-arm-none-eabi-4_9-2015q3/bin/../lib/gcc/arm-none-eabi/4.9.3/../../../../arm-none-eabi/lib/armv7e-m/fpu/libc_nano.a(lib_a-sbrkr.o)
                                                  /home/stm/tools/stm/gcc-arm-none-eabi/gcc-arm-none-eabi-4_9-2015q3/bin/../lib/gcc/arm-none-eabi/4.9.3/../../../../arm-none-eabi/lib/armv7e-m/fpu/libc_nano.a(lib_a-nano-mallocr.o)
_sbss                                             build/startup_stm32f303xc.o
_sdata                                            build/startup_stm32f303xc.o
_setlocale_r                                      /home/stm/tools/stm/gcc-arm-none-eabi/gcc-arm-none-eabi-4_9-2015q3/bin/../lib/gcc/arm-none-eabi/4.9.3/../../../../arm-none-eabi/lib/armv7e-m/fpu/libc_nano.a(lib_a-locale.o)
_sidata                                           build/startup_stm32f303xc.o
_start                                            /home/stm/tools/stm/gcc-arm-none-eabi/gcc-arm-none-eabi-4_9-2015q3/bin/../lib/gcc/arm-none-eabi/4.9.3/../../../../arm-none-eabi/lib/armv7e-m/fpu/crt0.o
_stat                                             build/syscalls.o
_strtol_r                                         /home/stm/tools/stm/gcc-arm-none-eabi/gcc-arm-none-eabi-4_9-2015q3/bin/../lib/gcc/arm-none-eabi/4.9.3/../../../../arm-none-eabi/lib/armv7e-m/fpu/libc_nano.a(lib_a-strtol.o)
                                                  /home/stm/tools/stm/gcc-arm-none-eabi/gcc-arm-none-eabi-4_9-2015q3/bin/../lib/gcc/arm-none-eabi/4.9.3/../../../../arm-none-eabi/lib/armv7e-m/fpu/libc_nano.a(lib_a-atoi.o)
_times                                            build/syscalls.o
_unlink                                           build/syscalls.o
_wait                                             build/syscalls.o
_write                                            build/syscalls.o
aPLLMULFactorTable                                build/stm32f3xx_hal_rcc.o
aPredivFactorTable                                build/stm32f3xx_hal_rcc.o
atexit                                            /home/stm/tools/stm/gcc-arm-none-eabi/gcc-arm-none-eabi-4_9-2015q3/bin/../lib/gcc/arm-none-eabi/4.9.3/../../../../arm-none-eabi/lib/armv7e-m/fpu/crt0.o
atoi                                              /home/stm/tools/stm/gcc-arm-none-eabi/gcc-arm-none-eabi-4_9-2015q3/bin/../lib/gcc/arm-none-eabi/4.9.3/../../../../arm-none-eabi/lib/armv7e-m/fpu/libc_nano.a(lib_a-atoi.o)
                                                  build/usart.o
buffer                                            build/usart.o
cleanup_glue                                      /home/stm/tools/stm/gcc-arm-none-eabi/gcc-arm-none-eabi-4_9-2015q3/bin/../lib/gcc/arm-none-eabi/4.9.3/../../../../arm-none-eabi/lib/armv7e-m/fpu/libc_nano.a(lib_a-reent.o)
compare                                           build/usart.o
counter                                           build/usart.o
end                                               build/syscalls.o
errno                                             /home/stm/tools/stm/gcc-arm-none-eabi/gcc-arm-none-eabi-4_9-2015q3/bin/../lib/gcc/arm-none-eabi/4.9.3/../../../../arm-none-eabi/lib/armv7e-m/fpu/libc_nano.a(lib_a-reent.o)
                                                  /home/stm/tools/stm/gcc-arm-none-eabi/gcc-arm-none-eabi-4_9-2015q3/bin/../lib/gcc/arm-none-eabi/4.9.3/../../../../arm-none-eabi/lib/armv7e-m/fpu/libc_nano.a(lib_a-sbrkr.o)
exit                                              /home/stm/tools/stm/gcc-arm-none-eabi/gcc-arm-none-eabi-4_9-2015q3/bin/../lib/gcc/arm-none-eabi/4.9.3/../../../../arm-none-eabi/lib/armv7e-m/fpu/libc_nano.a(lib_a-exit.o)
                                                  /home/stm/tools/stm/gcc-arm-none-eabi/gcc-arm-none-eabi-4_9-2015q3/bin/../lib/gcc/arm-none-eabi/4.9.3/../../../../arm-none-eabi/lib/armv7e-m/fpu/crt0.o
flag                                              build/usart.o
                                                  build/main.o
free                                              /home/stm/tools/stm/gcc-arm-none-eabi/gcc-arm-none-eabi-4_9-2015q3/bin/../lib/gcc/arm-none-eabi/4.9.3/../../../../arm-none-eabi/lib/armv7e-m/fpu/libc_nano.a(lib_a-malloc.o)
g_pfnVectors                                      build/startup_stm32f303xc.o
handleDiods                                       build/usart.o
hardware_init_hook                                /home/stm/tools/stm/gcc-arm-none-eabi/gcc-arm-none-eabi-4_9-2015q3/bin/../lib/gcc/arm-none-eabi/4.9.3/../../../../arm-none-eabi/lib/armv7e-m/fpu/crt0.o
hi2c1                                             build/i2c.o
                                                  build/stm32f3xx_it.o
hspi1                                             build/spi.o
                                                  build/stm32f3xx_it.o
huart1                                            build/usart.o
                                                  build/stm32f3xx_it.o
info                                              build/usart.o
info2                                             build/usart.o
initialise_monitor_handles                        build/syscalls.o
itoa                                              /home/stm/tools/stm/gcc-arm-none-eabi/gcc-arm-none-eabi-4_9-2015q3/bin/../lib/gcc/arm-none-eabi/4.9.3/../../../../arm-none-eabi/lib/armv7e-m/fpu/libc_nano.a(lib_a-itoa.o)
                                                  build/usart.o
localeconv                                        /home/stm/tools/stm/gcc-arm-none-eabi/gcc-arm-none-eabi-4_9-2015q3/bin/../lib/gcc/arm-none-eabi/4.9.3/../../../../arm-none-eabi/lib/armv7e-m/fpu/libc_nano.a(lib_a-locale.o)
main                                              build/main.o
                                                  build/startup_stm32f303xc.o
                                                  /home/stm/tools/stm/gcc-arm-none-eabi/gcc-arm-none-eabi-4_9-2015q3/bin/../lib/gcc/arm-none-eabi/4.9.3/../../../../arm-none-eabi/lib/armv7e-m/fpu/crt0.o
malloc                                            /home/stm/tools/stm/gcc-arm-none-eabi/gcc-arm-none-eabi-4_9-2015q3/bin/../lib/gcc/arm-none-eabi/4.9.3/../../../../arm-none-eabi/lib/armv7e-m/fpu/libc_nano.a(lib_a-malloc.o)
                                                  /home/stm/tools/stm/gcc-arm-none-eabi/gcc-arm-none-eabi-4_9-2015q3/bin/../lib/gcc/arm-none-eabi/4.9.3/../../../../arm-none-eabi/lib/armv7e-m/fpu/libc_nano.a(lib_a-mprec.o)
                                                  /home/stm/tools/stm/gcc-arm-none-eabi/gcc-arm-none-eabi-4_9-2015q3/bin/../lib/gcc/arm-none-eabi/4.9.3/../../../../arm-none-eabi/lib/armv7e-m/fpu/libc_nano.a(lib_a-dtoa.o)
                                                  /home/stm/tools/stm/gcc-arm-none-eabi/gcc-arm-none-eabi-4_9-2015q3/bin/../lib/gcc/arm-none-eabi/4.9.3/../../../../arm-none-eabi/lib/armv7e-m/fpu/libc_nano.a(lib_a-strtok.o)
                                                  build/usart.o
memchr                                            /home/stm/tools/stm/gcc-arm-none-eabi/gcc-arm-none-eabi-4_9-2015q3/bin/../lib/gcc/arm-none-eabi/4.9.3/../../../../arm-none-eabi/lib/armv7e-m/fpu/libc_nano.a(lib_a-memchr.o)
                                                  /home/stm/tools/stm/gcc-arm-none-eabi/gcc-arm-none-eabi-4_9-2015q3/bin/../lib/gcc/arm-none-eabi/4.9.3/../../../../arm-none-eabi/lib/armv7e-m/fpu/libc_nano.a(lib_a-nano-vfprintf_i.o)
memcpy                                            /home/stm/tools/stm/gcc-arm-none-eabi/gcc-arm-none-eabi-4_9-2015q3/bin/../lib/gcc/arm-none-eabi/4.9.3/../../../../arm-none-eabi/lib/armv7e-m/fpu/libc_nano.a(lib_a-memcpy.o)
                                                  /home/stm/tools/stm/gcc-arm-none-eabi/gcc-arm-none-eabi-4_9-2015q3/bin/../lib/gcc/arm-none-eabi/4.9.3/../../../../arm-none-eabi/lib/armv7e-m/fpu/libc_nano.a(lib_a-mprec.o)
                                                  /home/stm/tools/stm/gcc-arm-none-eabi/gcc-arm-none-eabi-4_9-2015q3/bin/../lib/gcc/arm-none-eabi/4.9.3/../../../../arm-none-eabi/lib/armv7e-m/fpu/libc_nano.a(lib_a-dtoa.o)
memset                                            /home/stm/tools/stm/gcc-arm-none-eabi/gcc-arm-none-eabi-4_9-2015q3/bin/../lib/gcc/arm-none-eabi/4.9.3/../../../../arm-none-eabi/lib/armv7e-m/fpu/libc_nano.a(lib_a-memset.o)
                                                  /home/stm/tools/stm/gcc-arm-none-eabi/gcc-arm-none-eabi-4_9-2015q3/bin/../lib/gcc/arm-none-eabi/4.9.3/../../../../arm-none-eabi/lib/armv7e-m/fpu/libc_nano.a(lib_a-nano-callocr.o)
                                                  /home/stm/tools/stm/gcc-arm-none-eabi/gcc-arm-none-eabi-4_9-2015q3/bin/../lib/gcc/arm-none-eabi/4.9.3/../../../../arm-none-eabi/lib/armv7e-m/fpu/crt0.o
pFlash                                            build/stm32f3xx_hal_flash.o
                                                  build/stm32f3xx_hal_flash_ex.o
setlocale                                         /home/stm/tools/stm/gcc-arm-none-eabi/gcc-arm-none-eabi-4_9-2015q3/bin/../lib/gcc/arm-none-eabi/4.9.3/../../../../arm-none-eabi/lib/armv7e-m/fpu/libc_nano.a(lib_a-locale.o)
software_init_hook                                /home/stm/tools/stm/gcc-arm-none-eabi/gcc-arm-none-eabi-4_9-2015q3/bin/../lib/gcc/arm-none-eabi/4.9.3/../../../../arm-none-eabi/lib/armv7e-m/fpu/crt0.o
strcmp                                            /home/stm/tools/stm/gcc-arm-none-eabi/gcc-arm-none-eabi-4_9-2015q3/bin/../lib/gcc/arm-none-eabi/4.9.3/../../../../arm-none-eabi/lib/armv7e-m/fpu/libc_nano.a(lib_a-strcmp.o)
                                                  /home/stm/tools/stm/gcc-arm-none-eabi/gcc-arm-none-eabi-4_9-2015q3/bin/../lib/gcc/arm-none-eabi/4.9.3/../../../../arm-none-eabi/lib/armv7e-m/fpu/libc_nano.a(lib_a-locale.o)
strlen                                            /home/stm/tools/stm/gcc-arm-none-eabi/gcc-arm-none-eabi-4_9-2015q3/bin/../lib/gcc/arm-none-eabi/4.9.3/../../../../arm-none-eabi/lib/armv7e-m/fpu/libc_nano.a(lib_a-strlen.o)
                                                  /home/stm/tools/stm/gcc-arm-none-eabi/gcc-arm-none-eabi-4_9-2015q3/bin/../lib/gcc/arm-none-eabi/4.9.3/../../../../arm-none-eabi/lib/armv7e-m/fpu/libc_nano.a(lib_a-nano-vfprintf_float.o)
                                                  build/usart.o
strstr                                            /home/stm/tools/stm/gcc-arm-none-eabi/gcc-arm-none-eabi-4_9-2015q3/bin/../lib/gcc/arm-none-eabi/4.9.3/../../../../arm-none-eabi/lib/armv7e-m/fpu/libc_nano.a(lib_a-strstr.o)
                                                  build/usart.o
strtok                                            /home/stm/tools/stm/gcc-arm-none-eabi/gcc-arm-none-eabi-4_9-2015q3/bin/../lib/gcc/arm-none-eabi/4.9.3/../../../../arm-none-eabi/lib/armv7e-m/fpu/libc_nano.a(lib_a-strtok.o)
                                                  build/usart.o
strtok_r                                          /home/stm/tools/stm/gcc-arm-none-eabi/gcc-arm-none-eabi-4_9-2015q3/bin/../lib/gcc/arm-none-eabi/4.9.3/../../../../arm-none-eabi/lib/armv7e-m/fpu/libc_nano.a(lib_a-strtok_r.o)
strtol                                            /home/stm/tools/stm/gcc-arm-none-eabi/gcc-arm-none-eabi-4_9-2015q3/bin/../lib/gcc/arm-none-eabi/4.9.3/../../../../arm-none-eabi/lib/armv7e-m/fpu/libc_nano.a(lib_a-strtol.o)
                                                  /home/stm/tools/stm/gcc-arm-none-eabi/gcc-arm-none-eabi-4_9-2015q3/bin/../lib/gcc/arm-none-eabi/4.9.3/../../../../arm-none-eabi/lib/armv7e-m/fpu/libc_nano.a(lib_a-atoi.o)
utoa                                              /home/stm/tools/stm/gcc-arm-none-eabi/gcc-arm-none-eabi-4_9-2015q3/bin/../lib/gcc/arm-none-eabi/4.9.3/../../../../arm-none-eabi/lib/armv7e-m/fpu/libc_nano.a(lib_a-utoa.o)
uwTick                                            build/stm32f3xx_hal.o
uwTickFreq                                        build/stm32f3xx_hal.o
uwTickPrio                                        build/stm32f3xx_hal.o
