ARM GAS  /tmp/cc0nYQGF.s 			page 1


   1              		.syntax unified
   2              		.cpu cortex-m4
   3              		.eabi_attribute 27, 1
   4              		.eabi_attribute 28, 1
   5              		.fpu fpv4-sp-d16
   6              		.eabi_attribute 20, 1
   7              		.eabi_attribute 21, 1
   8              		.eabi_attribute 23, 3
   9              		.eabi_attribute 24, 1
  10              		.eabi_attribute 25, 1
  11              		.eabi_attribute 26, 1
  12              		.eabi_attribute 30, 1
  13              		.eabi_attribute 34, 1
  14              		.eabi_attribute 18, 4
  15              		.thumb
  16              		.file	"usart.c"
  17              		.text
  18              	.Ltext0:
  19              		.cfi_sections	.debug_frame
  20              		.section	.text.MX_USART1_UART_Init,"ax",%progbits
  21              		.align	2
  22              		.global	MX_USART1_UART_Init
  23              		.thumb
  24              		.thumb_func
  26              	MX_USART1_UART_Init:
  27              	.LFB123:
  28              		.file 1 "Src/usart.c"
   1:Src/usart.c   **** /**
   2:Src/usart.c   ****   ******************************************************************************
   3:Src/usart.c   ****   * File Name          : USART.c
   4:Src/usart.c   ****   * Description        : This file provides code for the configuration
   5:Src/usart.c   ****   *                      of the USART instances.
   6:Src/usart.c   ****   ******************************************************************************
   7:Src/usart.c   ****   ** This notice applies to any and all portions of this file
   8:Src/usart.c   ****   * that are not between comment pairs USER CODE BEGIN and
   9:Src/usart.c   ****   * USER CODE END. Other portions of this file, whether 
  10:Src/usart.c   ****   * inserted by the user or by software development tools
  11:Src/usart.c   ****   * are owned by their respective copyright owners.
  12:Src/usart.c   ****   *
  13:Src/usart.c   ****   * COPYRIGHT(c) 2018 STMicroelectronics
  14:Src/usart.c   ****   *
  15:Src/usart.c   ****   * Redistribution and use in source and binary forms, with or without modification,
  16:Src/usart.c   ****   * are permitted provided that the following conditions are met:
  17:Src/usart.c   ****   *   1. Redistributions of source code must retain the above copyright notice,
  18:Src/usart.c   ****   *      this list of conditions and the following disclaimer.
  19:Src/usart.c   ****   *   2. Redistributions in binary form must reproduce the above copyright notice,
  20:Src/usart.c   ****   *      this list of conditions and the following disclaimer in the documentation
  21:Src/usart.c   ****   *      and/or other materials provided with the distribution.
  22:Src/usart.c   ****   *   3. Neither the name of STMicroelectronics nor the names of its contributors
  23:Src/usart.c   ****   *      may be used to endorse or promote products derived from this software
  24:Src/usart.c   ****   *      without specific prior written permission.
  25:Src/usart.c   ****   *
  26:Src/usart.c   ****   * THIS SOFTWARE IS PROVIDED BY THE COPYRIGHT HOLDERS AND CONTRIBUTORS "AS IS"
  27:Src/usart.c   ****   * AND ANY EXPRESS OR IMPLIED WARRANTIES, INCLUDING, BUT NOT LIMITED TO, THE
  28:Src/usart.c   ****   * IMPLIED WARRANTIES OF MERCHANTABILITY AND FITNESS FOR A PARTICULAR PURPOSE ARE
  29:Src/usart.c   ****   * DISCLAIMED. IN NO EVENT SHALL THE COPYRIGHT HOLDER OR CONTRIBUTORS BE LIABLE
  30:Src/usart.c   ****   * FOR ANY DIRECT, INDIRECT, INCIDENTAL, SPECIAL, EXEMPLARY, OR CONSEQUENTIAL
ARM GAS  /tmp/cc0nYQGF.s 			page 2


  31:Src/usart.c   ****   * DAMAGES (INCLUDING, BUT NOT LIMITED TO, PROCUREMENT OF SUBSTITUTE GOODS OR
  32:Src/usart.c   ****   * SERVICES; LOSS OF USE, DATA, OR PROFITS; OR BUSINESS INTERRUPTION) HOWEVER
  33:Src/usart.c   ****   * CAUSED AND ON ANY THEORY OF LIABILITY, WHETHER IN CONTRACT, STRICT LIABILITY,
  34:Src/usart.c   ****   * OR TORT (INCLUDING NEGLIGENCE OR OTHERWISE) ARISING IN ANY WAY OUT OF THE USE
  35:Src/usart.c   ****   * OF THIS SOFTWARE, EVEN IF ADVISED OF THE POSSIBILITY OF SUCH DAMAGE.
  36:Src/usart.c   ****   *
  37:Src/usart.c   ****   ******************************************************************************
  38:Src/usart.c   ****   */
  39:Src/usart.c   **** 
  40:Src/usart.c   **** /* Includes ------------------------------------------------------------------*/
  41:Src/usart.c   **** #include "usart.h"
  42:Src/usart.c   **** #include <string.h>
  43:Src/usart.c   **** #include <stdlib.h>
  44:Src/usart.c   **** #include <stdio.h>
  45:Src/usart.c   **** 
  46:Src/usart.c   **** #define BUFFER_SIZE 32
  47:Src/usart.c   **** char* buffer;
  48:Src/usart.c   **** uint8_t counter = 0;
  49:Src/usart.c   **** UART_HandleTypeDef huart1;
  50:Src/usart.c   **** 
  51:Src/usart.c   **** char* info;
  52:Src/usart.c   **** char info2[256];
  53:Src/usart.c   **** //void (*slave)(uint8_t, uint8_t) = &MX_GPIO_diod;
  54:Src/usart.c   **** 
  55:Src/usart.c   **** void MX_USART1_UART_Init(void)
  56:Src/usart.c   **** {
  29              		.loc 1 56 0
  30              		.cfi_startproc
  31              		@ args = 0, pretend = 0, frame = 0
  32              		@ frame_needed = 0, uses_anonymous_args = 0
  33 0000 10B5     		push	{r4, lr}
  34              	.LCFI0:
  35              		.cfi_def_cfa_offset 8
  36              		.cfi_offset 4, -8
  37              		.cfi_offset 14, -4
  57:Src/usart.c   ****   huart1.Instance = USART1;
  38              		.loc 1 57 0
  39 0002 104C     		ldr	r4, .L3
  40 0004 104B     		ldr	r3, .L3+4
  41 0006 2360     		str	r3, [r4]
  58:Src/usart.c   ****   huart1.Init.BaudRate = 115200;
  42              		.loc 1 58 0
  43 0008 4FF4E133 		mov	r3, #115200
  44 000c 6360     		str	r3, [r4, #4]
  59:Src/usart.c   ****   huart1.Init.WordLength = UART_WORDLENGTH_8B;
  45              		.loc 1 59 0
  46 000e 0022     		movs	r2, #0
  47 0010 A260     		str	r2, [r4, #8]
  60:Src/usart.c   ****   huart1.Init.StopBits = UART_STOPBITS_1;
  48              		.loc 1 60 0
  49 0012 E260     		str	r2, [r4, #12]
  61:Src/usart.c   ****   huart1.Init.Parity = UART_PARITY_NONE;
  50              		.loc 1 61 0
  51 0014 2261     		str	r2, [r4, #16]
  62:Src/usart.c   ****   huart1.Init.Mode = UART_MODE_TX_RX;
  52              		.loc 1 62 0
  53 0016 0C23     		movs	r3, #12
ARM GAS  /tmp/cc0nYQGF.s 			page 3


  54 0018 6361     		str	r3, [r4, #20]
  63:Src/usart.c   **** 
  64:Src/usart.c   ****   HAL_NVIC_SetPriority(USART1_IRQn, 0, 0);
  55              		.loc 1 64 0
  56 001a 2520     		movs	r0, #37
  57 001c 1146     		mov	r1, r2
  58 001e FFF7FEFF 		bl	HAL_NVIC_SetPriority
  59              	.LVL0:
  65:Src/usart.c   ****   HAL_NVIC_EnableIRQ(USART1_IRQn);
  60              		.loc 1 65 0
  61 0022 2520     		movs	r0, #37
  62 0024 FFF7FEFF 		bl	HAL_NVIC_EnableIRQ
  63              	.LVL1:
  66:Src/usart.c   **** 
  67:Src/usart.c   ****   HAL_UART_Init( & huart1);
  64              		.loc 1 67 0
  65 0028 2046     		mov	r0, r4
  66 002a FFF7FEFF 		bl	HAL_UART_Init
  67              	.LVL2:
  68:Src/usart.c   ****   buffer = malloc(BUFFER_SIZE);
  68              		.loc 1 68 0
  69 002e 2020     		movs	r0, #32
  70 0030 FFF7FEFF 		bl	malloc
  71              	.LVL3:
  72 0034 0146     		mov	r1, r0
  73 0036 054B     		ldr	r3, .L3+8
  74 0038 1860     		str	r0, [r3]
  69:Src/usart.c   ****   HAL_UART_Receive_IT(&huart1, (uint8_t*)buffer, 1);
  75              		.loc 1 69 0
  76 003a 2046     		mov	r0, r4
  77 003c 0122     		movs	r2, #1
  78 003e FFF7FEFF 		bl	HAL_UART_Receive_IT
  79              	.LVL4:
  80 0042 10BD     		pop	{r4, pc}
  81              	.L4:
  82              		.align	2
  83              	.L3:
  84 0044 00000000 		.word	huart1
  85 0048 00380140 		.word	1073821696
  86 004c 00000000 		.word	buffer
  87              		.cfi_endproc
  88              	.LFE123:
  90              		.section	.text.HAL_UART_MspInit,"ax",%progbits
  91              		.align	2
  92              		.global	HAL_UART_MspInit
  93              		.thumb
  94              		.thumb_func
  96              	HAL_UART_MspInit:
  97              	.LFB124:
  70:Src/usart.c   **** }
  71:Src/usart.c   **** 
  72:Src/usart.c   **** 
  73:Src/usart.c   **** void HAL_UART_MspInit(UART_HandleTypeDef * uartHandle)
  74:Src/usart.c   **** {
  98              		.loc 1 74 0
  99              		.cfi_startproc
 100              		@ args = 0, pretend = 0, frame = 32
ARM GAS  /tmp/cc0nYQGF.s 			page 4


 101              		@ frame_needed = 0, uses_anonymous_args = 0
 102              	.LVL5:
 103 0000 00B5     		push	{lr}
 104              	.LCFI1:
 105              		.cfi_def_cfa_offset 4
 106              		.cfi_offset 14, -4
 107 0002 89B0     		sub	sp, sp, #36
 108              	.LCFI2:
 109              		.cfi_def_cfa_offset 40
 110              	.LBB2:
  75:Src/usart.c   ****   __HAL_RCC_USART1_CLK_ENABLE();
 111              		.loc 1 75 0
 112 0004 114B     		ldr	r3, .L7
 113 0006 9A69     		ldr	r2, [r3, #24]
 114 0008 42F48042 		orr	r2, r2, #16384
 115 000c 9A61     		str	r2, [r3, #24]
 116 000e 9A69     		ldr	r2, [r3, #24]
 117 0010 02F48042 		and	r2, r2, #16384
 118 0014 0192     		str	r2, [sp, #4]
 119 0016 019A     		ldr	r2, [sp, #4]
 120              	.LBE2:
 121              	.LBB3:
  76:Src/usart.c   ****   __HAL_RCC_GPIOC_CLK_ENABLE();
 122              		.loc 1 76 0
 123 0018 5A69     		ldr	r2, [r3, #20]
 124 001a 42F40022 		orr	r2, r2, #524288
 125 001e 5A61     		str	r2, [r3, #20]
 126 0020 5B69     		ldr	r3, [r3, #20]
 127 0022 03F40023 		and	r3, r3, #524288
 128 0026 0293     		str	r3, [sp, #8]
 129 0028 029B     		ldr	r3, [sp, #8]
 130              	.LBE3:
  77:Src/usart.c   ****   GPIO_InitTypeDef gpio;
  78:Src/usart.c   ****   gpio.Pin = GPIO_PIN_4 | GPIO_PIN_5;
 131              		.loc 1 78 0
 132 002a 3023     		movs	r3, #48
 133 002c 0393     		str	r3, [sp, #12]
  79:Src/usart.c   ****   gpio.Pull = GPIO_PULLUP;
 134              		.loc 1 79 0
 135 002e 0123     		movs	r3, #1
 136 0030 0593     		str	r3, [sp, #20]
  80:Src/usart.c   ****   gpio.Mode = GPIO_MODE_AF_OD;
 137              		.loc 1 80 0
 138 0032 1223     		movs	r3, #18
 139 0034 0493     		str	r3, [sp, #16]
  81:Src/usart.c   ****   gpio.Alternate = GPIO_AF7_USART1;
 140              		.loc 1 81 0
 141 0036 0723     		movs	r3, #7
 142 0038 0793     		str	r3, [sp, #28]
  82:Src/usart.c   ****   gpio.Speed = GPIO_SPEED_FREQ_HIGH;
 143              		.loc 1 82 0
 144 003a 0323     		movs	r3, #3
 145 003c 0693     		str	r3, [sp, #24]
  83:Src/usart.c   ****   HAL_GPIO_Init(GPIOC, & gpio);
 146              		.loc 1 83 0
 147 003e 0448     		ldr	r0, .L7+4
 148              	.LVL6:
ARM GAS  /tmp/cc0nYQGF.s 			page 5


 149 0040 03A9     		add	r1, sp, #12
 150 0042 FFF7FEFF 		bl	HAL_GPIO_Init
 151              	.LVL7:
  84:Src/usart.c   **** }
 152              		.loc 1 84 0
 153 0046 09B0     		add	sp, sp, #36
 154              	.LCFI3:
 155              		.cfi_def_cfa_offset 4
 156              		@ sp needed
 157 0048 5DF804FB 		ldr	pc, [sp], #4
 158              	.L8:
 159              		.align	2
 160              	.L7:
 161 004c 00100240 		.word	1073876992
 162 0050 00080048 		.word	1207961600
 163              		.cfi_endproc
 164              	.LFE124:
 166              		.section	.text.compare,"ax",%progbits
 167              		.align	2
 168              		.global	compare
 169              		.thumb
 170              		.thumb_func
 172              	compare:
 173              	.LFB125:
  85:Src/usart.c   **** 
  86:Src/usart.c   **** uint8_t compare(const char* tab, uint8_t size)
  87:Src/usart.c   **** {
 174              		.loc 1 87 0
 175              		.cfi_startproc
 176              		@ args = 0, pretend = 0, frame = 0
 177              		@ frame_needed = 0, uses_anonymous_args = 0
 178              		@ link register save eliminated.
 179              	.LVL8:
 180 0000 10B4     		push	{r4}
 181              	.LCFI4:
 182              		.cfi_def_cfa_offset 4
 183              		.cfi_offset 4, -4
 184              	.LVL9:
  88:Src/usart.c   ****     int i = 0;
  89:Src/usart.c   ****     for(i = 0; i < size; i++)
 185              		.loc 1 89 0
 186 0002 0023     		movs	r3, #0
 187 0004 07E0     		b	.L10
 188              	.LVL10:
 189              	.L12:
  90:Src/usart.c   ****     {
  91:Src/usart.c   ****         if(buffer[i+1]!=tab[i])
 190              		.loc 1 91 0
 191 0006 5A1C     		adds	r2, r3, #1
 192 0008 074C     		ldr	r4, .L15
 193 000a 2468     		ldr	r4, [r4]
 194 000c A45C     		ldrb	r4, [r4, r2]	@ zero_extendqisi2
 195 000e C25C     		ldrb	r2, [r0, r3]	@ zero_extendqisi2
 196 0010 9442     		cmp	r4, r2
 197 0012 04D1     		bne	.L13
  89:Src/usart.c   ****     {
 198              		.loc 1 89 0 discriminator 2
ARM GAS  /tmp/cc0nYQGF.s 			page 6


 199 0014 0133     		adds	r3, r3, #1
 200              	.LVL11:
 201              	.L10:
  89:Src/usart.c   ****     {
 202              		.loc 1 89 0 is_stmt 0 discriminator 1
 203 0016 9942     		cmp	r1, r3
 204 0018 F5DC     		bgt	.L12
  92:Src/usart.c   ****         {
  93:Src/usart.c   ****             return 1;
  94:Src/usart.c   ****         }
  95:Src/usart.c   ****     }
  96:Src/usart.c   ****     return 0;
 205              		.loc 1 96 0 is_stmt 1
 206 001a 0020     		movs	r0, #0
 207              	.LVL12:
 208 001c 00E0     		b	.L11
 209              	.LVL13:
 210              	.L13:
  93:Src/usart.c   ****         }
 211              		.loc 1 93 0
 212 001e 0120     		movs	r0, #1
 213              	.LVL14:
 214              	.L11:
  97:Src/usart.c   **** }
 215              		.loc 1 97 0
 216 0020 5DF8044B 		ldr	r4, [sp], #4
 217              	.LCFI5:
 218              		.cfi_restore 4
 219              		.cfi_def_cfa_offset 0
 220 0024 7047     		bx	lr
 221              	.L16:
 222 0026 00BF     		.align	2
 223              	.L15:
 224 0028 00000000 		.word	buffer
 225              		.cfi_endproc
 226              	.LFE125:
 228              		.section	.text.handleDiods,"ax",%progbits
 229              		.align	2
 230              		.global	handleDiods
 231              		.thumb
 232              		.thumb_func
 234              	handleDiods:
 235              	.LFB126:
  98:Src/usart.c   **** 
  99:Src/usart.c   **** void handleDiods()
 100:Src/usart.c   **** {
 236              		.loc 1 100 0
 237              		.cfi_startproc
 238              		@ args = 0, pretend = 0, frame = 0
 239              		@ frame_needed = 0, uses_anonymous_args = 0
 240 0000 08B5     		push	{r3, lr}
 241              	.LCFI6:
 242              		.cfi_def_cfa_offset 8
 243              		.cfi_offset 3, -8
 244              		.cfi_offset 14, -4
 101:Src/usart.c   ****     if(compare("diod on", 7)==0)
 245              		.loc 1 101 0
ARM GAS  /tmp/cc0nYQGF.s 			page 7


 246 0002 7648     		ldr	r0, .L41
 247 0004 0721     		movs	r1, #7
 248 0006 FFF7FEFF 		bl	compare
 249              	.LVL15:
 250 000a 0028     		cmp	r0, #0
 251 000c 5CD1     		bne	.L18
 102:Src/usart.c   ****     {
 103:Src/usart.c   ****         if(buffer[counter-1]=='1')
 252              		.loc 1 103 0
 253 000e 744B     		ldr	r3, .L41+4
 254 0010 1B78     		ldrb	r3, [r3]	@ zero_extendqisi2
 255 0012 013B     		subs	r3, r3, #1
 256 0014 734A     		ldr	r2, .L41+8
 257 0016 1268     		ldr	r2, [r2]
 258 0018 D35C     		ldrb	r3, [r2, r3]	@ zero_extendqisi2
 259 001a 312B     		cmp	r3, #49
 260 001c 07D1     		bne	.L19
 261              	.LBB4:
 104:Src/usart.c   ****         {
 105:Src/usart.c   ****           info = "\r\nenabling diod 1\r\n";
 262              		.loc 1 105 0
 263 001e 724A     		ldr	r2, .L41+12
 264 0020 724B     		ldr	r3, .L41+16
 265 0022 1A60     		str	r2, [r3]
 106:Src/usart.c   ****           MX_GPIO_diod(1, 8);
 266              		.loc 1 106 0
 267 0024 0120     		movs	r0, #1
 268 0026 0821     		movs	r1, #8
 269 0028 FFF7FEFF 		bl	MX_GPIO_diod
 270              	.LVL16:
 271              	.LBE4:
 272 002c 08BD     		pop	{r3, pc}
 273              	.L19:
 107:Src/usart.c   ****         }
 108:Src/usart.c   ****         else if(buffer[counter-1]=='2')
 274              		.loc 1 108 0
 275 002e 322B     		cmp	r3, #50
 276 0030 07D1     		bne	.L21
 277              	.LBB5:
 109:Src/usart.c   ****         {
 110:Src/usart.c   ****           info = "\r\nenabling diod 2\r\n";
 278              		.loc 1 110 0
 279 0032 6F4A     		ldr	r2, .L41+20
 280 0034 6D4B     		ldr	r3, .L41+16
 281 0036 1A60     		str	r2, [r3]
 111:Src/usart.c   ****           MX_GPIO_diod(1,9);
 282              		.loc 1 111 0
 283 0038 0120     		movs	r0, #1
 284 003a 0921     		movs	r1, #9
 285 003c FFF7FEFF 		bl	MX_GPIO_diod
 286              	.LVL17:
 287              	.LBE5:
 288 0040 08BD     		pop	{r3, pc}
 289              	.L21:
 112:Src/usart.c   ****         }
 113:Src/usart.c   ****         else if(buffer[counter-1]=='3')
 290              		.loc 1 113 0
ARM GAS  /tmp/cc0nYQGF.s 			page 8


 291 0042 332B     		cmp	r3, #51
 292 0044 07D1     		bne	.L22
 293              	.LBB6:
 114:Src/usart.c   ****         {
 115:Src/usart.c   ****           info = "\r\nenabling diod 3\r\n";
 294              		.loc 1 115 0
 295 0046 6B4A     		ldr	r2, .L41+24
 296 0048 684B     		ldr	r3, .L41+16
 297 004a 1A60     		str	r2, [r3]
 116:Src/usart.c   ****           MX_GPIO_diod(1,10);
 298              		.loc 1 116 0
 299 004c 0120     		movs	r0, #1
 300 004e 0A21     		movs	r1, #10
 301 0050 FFF7FEFF 		bl	MX_GPIO_diod
 302              	.LVL18:
 303              	.LBE6:
 304 0054 08BD     		pop	{r3, pc}
 305              	.L22:
 117:Src/usart.c   ****         }
 118:Src/usart.c   ****         else if(buffer[counter-1]=='4')
 306              		.loc 1 118 0
 307 0056 342B     		cmp	r3, #52
 308 0058 07D1     		bne	.L23
 309              	.LBB7:
 119:Src/usart.c   ****         {
 120:Src/usart.c   ****           info = "\r\nenabling diod 4\r\n";
 310              		.loc 1 120 0
 311 005a 674A     		ldr	r2, .L41+28
 312 005c 634B     		ldr	r3, .L41+16
 313 005e 1A60     		str	r2, [r3]
 121:Src/usart.c   ****           MX_GPIO_diod(1,11);
 314              		.loc 1 121 0
 315 0060 0120     		movs	r0, #1
 316 0062 0B21     		movs	r1, #11
 317 0064 FFF7FEFF 		bl	MX_GPIO_diod
 318              	.LVL19:
 319              	.LBE7:
 320 0068 08BD     		pop	{r3, pc}
 321              	.L23:
 122:Src/usart.c   ****         }
 123:Src/usart.c   ****         else if(buffer[counter-1]=='5')
 322              		.loc 1 123 0
 323 006a 352B     		cmp	r3, #53
 324 006c 07D1     		bne	.L24
 325              	.LBB8:
 124:Src/usart.c   ****         {
 125:Src/usart.c   ****           info = "\r\nenabling diod 5\r\n";
 326              		.loc 1 125 0
 327 006e 634A     		ldr	r2, .L41+32
 328 0070 5E4B     		ldr	r3, .L41+16
 329 0072 1A60     		str	r2, [r3]
 126:Src/usart.c   ****           MX_GPIO_diod(1,12);
 330              		.loc 1 126 0
 331 0074 0120     		movs	r0, #1
 332 0076 0C21     		movs	r1, #12
 333 0078 FFF7FEFF 		bl	MX_GPIO_diod
 334              	.LVL20:
ARM GAS  /tmp/cc0nYQGF.s 			page 9


 335              	.LBE8:
 336 007c 08BD     		pop	{r3, pc}
 337              	.L24:
 127:Src/usart.c   ****         }
 128:Src/usart.c   ****         else if(buffer[counter-1]=='6')
 338              		.loc 1 128 0
 339 007e 362B     		cmp	r3, #54
 340 0080 07D1     		bne	.L25
 341              	.LBB9:
 129:Src/usart.c   ****         {
 130:Src/usart.c   ****           info = "\r\nenabling diod 6\r\n";
 342              		.loc 1 130 0
 343 0082 5F4A     		ldr	r2, .L41+36
 344 0084 594B     		ldr	r3, .L41+16
 345 0086 1A60     		str	r2, [r3]
 131:Src/usart.c   ****           MX_GPIO_diod(1,13);
 346              		.loc 1 131 0
 347 0088 0120     		movs	r0, #1
 348 008a 0D21     		movs	r1, #13
 349 008c FFF7FEFF 		bl	MX_GPIO_diod
 350              	.LVL21:
 351              	.LBE9:
 352 0090 08BD     		pop	{r3, pc}
 353              	.L25:
 132:Src/usart.c   ****         }
 133:Src/usart.c   ****         else if(buffer[counter-1]=='7')
 354              		.loc 1 133 0
 355 0092 372B     		cmp	r3, #55
 356 0094 07D1     		bne	.L26
 357              	.LBB10:
 134:Src/usart.c   ****         {
 135:Src/usart.c   ****           info = "\r\nenabling diod 7\r\n";
 358              		.loc 1 135 0
 359 0096 5B4A     		ldr	r2, .L41+40
 360 0098 544B     		ldr	r3, .L41+16
 361 009a 1A60     		str	r2, [r3]
 136:Src/usart.c   ****           MX_GPIO_diod(1,14);
 362              		.loc 1 136 0
 363 009c 0120     		movs	r0, #1
 364 009e 0E21     		movs	r1, #14
 365 00a0 FFF7FEFF 		bl	MX_GPIO_diod
 366              	.LVL22:
 367              	.LBE10:
 368 00a4 08BD     		pop	{r3, pc}
 369              	.L26:
 137:Src/usart.c   ****         }
 138:Src/usart.c   ****         else if(buffer[counter-1]=='8')
 370              		.loc 1 138 0
 371 00a6 382B     		cmp	r3, #56
 372 00a8 07D1     		bne	.L27
 373              	.LBB11:
 139:Src/usart.c   ****         {
 140:Src/usart.c   ****           info = "\r\nenabling diod 8\r\n";
 374              		.loc 1 140 0
 375 00aa 574A     		ldr	r2, .L41+44
 376 00ac 4F4B     		ldr	r3, .L41+16
 377 00ae 1A60     		str	r2, [r3]
ARM GAS  /tmp/cc0nYQGF.s 			page 10


 141:Src/usart.c   ****           MX_GPIO_diod(1,15);
 378              		.loc 1 141 0
 379 00b0 0120     		movs	r0, #1
 380 00b2 0F21     		movs	r1, #15
 381 00b4 FFF7FEFF 		bl	MX_GPIO_diod
 382              	.LVL23:
 383              	.LBE11:
 384 00b8 08BD     		pop	{r3, pc}
 385              	.L27:
 142:Src/usart.c   ****         }
 143:Src/usart.c   ****         else
 144:Src/usart.c   ****         {
 145:Src/usart.c   ****            info = "\r\nenabling all diods\r\n";
 386              		.loc 1 145 0
 387 00ba 544A     		ldr	r2, .L41+48
 388 00bc 4B4B     		ldr	r3, .L41+16
 389 00be 1A60     		str	r2, [r3]
 146:Src/usart.c   ****            flag=1;
 390              		.loc 1 146 0
 391 00c0 0122     		movs	r2, #1
 392 00c2 534B     		ldr	r3, .L41+52
 393 00c4 1A70     		strb	r2, [r3]
 394 00c6 08BD     		pop	{r3, pc}
 395              	.L18:
 147:Src/usart.c   ****         }
 148:Src/usart.c   **** 
 149:Src/usart.c   **** 
 150:Src/usart.c   ****     }
 151:Src/usart.c   ****     else if(compare("diod off", 8) == 0)
 396              		.loc 1 151 0
 397 00c8 5248     		ldr	r0, .L41+56
 398 00ca 0821     		movs	r1, #8
 399 00cc FFF7FEFF 		bl	compare
 400              	.LVL24:
 401 00d0 0028     		cmp	r0, #0
 402 00d2 5BD1     		bne	.L28
 152:Src/usart.c   ****     {
 153:Src/usart.c   ****         if(buffer[counter-1]=='1')
 403              		.loc 1 153 0
 404 00d4 424B     		ldr	r3, .L41+4
 405 00d6 1B78     		ldrb	r3, [r3]	@ zero_extendqisi2
 406 00d8 013B     		subs	r3, r3, #1
 407 00da 424A     		ldr	r2, .L41+8
 408 00dc 1268     		ldr	r2, [r2]
 409 00de D35C     		ldrb	r3, [r2, r3]	@ zero_extendqisi2
 410 00e0 312B     		cmp	r3, #49
 411 00e2 06D1     		bne	.L29
 412              	.LBB12:
 154:Src/usart.c   ****         {
 155:Src/usart.c   ****           info = "\r\ndisabling diod 1\r\n";
 413              		.loc 1 155 0
 414 00e4 4C4A     		ldr	r2, .L41+60
 415 00e6 414B     		ldr	r3, .L41+16
 416 00e8 1A60     		str	r2, [r3]
 156:Src/usart.c   ****           MX_GPIO_diod(0, 8);
 417              		.loc 1 156 0
 418 00ea 0821     		movs	r1, #8
ARM GAS  /tmp/cc0nYQGF.s 			page 11


 419 00ec FFF7FEFF 		bl	MX_GPIO_diod
 420              	.LVL25:
 421              	.LBE12:
 422 00f0 08BD     		pop	{r3, pc}
 423              	.L29:
 157:Src/usart.c   ****         }
 158:Src/usart.c   ****         else if(buffer[counter-1]=='2')
 424              		.loc 1 158 0
 425 00f2 322B     		cmp	r3, #50
 426 00f4 07D1     		bne	.L30
 427              	.LBB13:
 159:Src/usart.c   ****         {
 160:Src/usart.c   ****           info = "\r\ndisabling diod 2\r\n";
 428              		.loc 1 160 0
 429 00f6 494A     		ldr	r2, .L41+64
 430 00f8 3C4B     		ldr	r3, .L41+16
 431 00fa 1A60     		str	r2, [r3]
 161:Src/usart.c   ****           MX_GPIO_diod(0, 9);
 432              		.loc 1 161 0
 433 00fc 0020     		movs	r0, #0
 434 00fe 0921     		movs	r1, #9
 435 0100 FFF7FEFF 		bl	MX_GPIO_diod
 436              	.LVL26:
 437              	.LBE13:
 438 0104 08BD     		pop	{r3, pc}
 439              	.L30:
 162:Src/usart.c   ****         }
 163:Src/usart.c   ****         else if(buffer[counter-1]=='3')
 440              		.loc 1 163 0
 441 0106 332B     		cmp	r3, #51
 442 0108 07D1     		bne	.L31
 443              	.LBB14:
 164:Src/usart.c   ****         {
 165:Src/usart.c   ****           info = "\r\ndisabling diod 3\r\n";
 444              		.loc 1 165 0
 445 010a 454A     		ldr	r2, .L41+68
 446 010c 374B     		ldr	r3, .L41+16
 447 010e 1A60     		str	r2, [r3]
 166:Src/usart.c   ****           MX_GPIO_diod(0, 10);
 448              		.loc 1 166 0
 449 0110 0020     		movs	r0, #0
 450 0112 0A21     		movs	r1, #10
 451 0114 FFF7FEFF 		bl	MX_GPIO_diod
 452              	.LVL27:
 453              	.LBE14:
 454 0118 08BD     		pop	{r3, pc}
 455              	.L31:
 167:Src/usart.c   ****         }
 168:Src/usart.c   ****         else if(buffer[counter-1]=='4')
 456              		.loc 1 168 0
 457 011a 342B     		cmp	r3, #52
 458 011c 07D1     		bne	.L32
 459              	.LBB15:
 169:Src/usart.c   ****         {
 170:Src/usart.c   ****           info = "\r\ndisabling diod 4\r\n";
 460              		.loc 1 170 0
 461 011e 414A     		ldr	r2, .L41+72
ARM GAS  /tmp/cc0nYQGF.s 			page 12


 462 0120 324B     		ldr	r3, .L41+16
 463 0122 1A60     		str	r2, [r3]
 171:Src/usart.c   ****           MX_GPIO_diod(0,11);
 464              		.loc 1 171 0
 465 0124 0020     		movs	r0, #0
 466 0126 0B21     		movs	r1, #11
 467 0128 FFF7FEFF 		bl	MX_GPIO_diod
 468              	.LVL28:
 469              	.LBE15:
 470 012c 08BD     		pop	{r3, pc}
 471              	.L32:
 172:Src/usart.c   ****         }
 173:Src/usart.c   ****         else if(buffer[counter-1]=='5')
 472              		.loc 1 173 0
 473 012e 352B     		cmp	r3, #53
 474 0130 07D1     		bne	.L33
 475              	.LBB16:
 174:Src/usart.c   ****         {
 175:Src/usart.c   ****           info = "\r\ndisabling diod 5\r\n";
 476              		.loc 1 175 0
 477 0132 3D4A     		ldr	r2, .L41+76
 478 0134 2D4B     		ldr	r3, .L41+16
 479 0136 1A60     		str	r2, [r3]
 176:Src/usart.c   ****           MX_GPIO_diod(0,12);
 480              		.loc 1 176 0
 481 0138 0020     		movs	r0, #0
 482 013a 0C21     		movs	r1, #12
 483 013c FFF7FEFF 		bl	MX_GPIO_diod
 484              	.LVL29:
 485              	.LBE16:
 486 0140 08BD     		pop	{r3, pc}
 487              	.L33:
 177:Src/usart.c   ****         }
 178:Src/usart.c   ****         else if(buffer[counter-1]=='6')
 488              		.loc 1 178 0
 489 0142 362B     		cmp	r3, #54
 490 0144 07D1     		bne	.L34
 491              	.LBB17:
 179:Src/usart.c   ****         {
 180:Src/usart.c   ****           info = "\r\ndisabling diod 6\r\n";
 492              		.loc 1 180 0
 493 0146 394A     		ldr	r2, .L41+80
 494 0148 284B     		ldr	r3, .L41+16
 495 014a 1A60     		str	r2, [r3]
 181:Src/usart.c   ****           MX_GPIO_diod(0,13);
 496              		.loc 1 181 0
 497 014c 0020     		movs	r0, #0
 498 014e 0D21     		movs	r1, #13
 499 0150 FFF7FEFF 		bl	MX_GPIO_diod
 500              	.LVL30:
 501              	.LBE17:
 502 0154 08BD     		pop	{r3, pc}
 503              	.L34:
 182:Src/usart.c   ****         }
 183:Src/usart.c   ****         else if(buffer[counter-1]=='7')
 504              		.loc 1 183 0
 505 0156 372B     		cmp	r3, #55
ARM GAS  /tmp/cc0nYQGF.s 			page 13


 506 0158 07D1     		bne	.L35
 507              	.LBB18:
 184:Src/usart.c   ****         {
 185:Src/usart.c   ****           info = "\r\ndisabling diod 7\r\n";
 508              		.loc 1 185 0
 509 015a 354A     		ldr	r2, .L41+84
 510 015c 234B     		ldr	r3, .L41+16
 511 015e 1A60     		str	r2, [r3]
 186:Src/usart.c   ****           MX_GPIO_diod(0,14);
 512              		.loc 1 186 0
 513 0160 0020     		movs	r0, #0
 514 0162 0E21     		movs	r1, #14
 515 0164 FFF7FEFF 		bl	MX_GPIO_diod
 516              	.LVL31:
 517              	.LBE18:
 518 0168 08BD     		pop	{r3, pc}
 519              	.L35:
 187:Src/usart.c   ****         }
 188:Src/usart.c   ****         else if(buffer[counter-1]=='8')
 520              		.loc 1 188 0
 521 016a 382B     		cmp	r3, #56
 522 016c 07D1     		bne	.L36
 523              	.LBB19:
 189:Src/usart.c   ****         {
 190:Src/usart.c   ****           info = "\r\ndisabling diod 8\r\n";
 524              		.loc 1 190 0
 525 016e 314A     		ldr	r2, .L41+88
 526 0170 1E4B     		ldr	r3, .L41+16
 527 0172 1A60     		str	r2, [r3]
 191:Src/usart.c   ****           MX_GPIO_diod(0,15);
 528              		.loc 1 191 0
 529 0174 0020     		movs	r0, #0
 530 0176 0F21     		movs	r1, #15
 531 0178 FFF7FEFF 		bl	MX_GPIO_diod
 532              	.LVL32:
 533              	.LBE19:
 534 017c 08BD     		pop	{r3, pc}
 535              	.L36:
 192:Src/usart.c   ****         }
 193:Src/usart.c   ****         else
 194:Src/usart.c   ****         {
 195:Src/usart.c   ****            info = "\r\ndisabling all diods\r\n";
 536              		.loc 1 195 0
 537 017e 2E4A     		ldr	r2, .L41+92
 538 0180 1A4B     		ldr	r3, .L41+16
 539 0182 1A60     		str	r2, [r3]
 196:Src/usart.c   ****            flag = 2;
 540              		.loc 1 196 0
 541 0184 0222     		movs	r2, #2
 542 0186 224B     		ldr	r3, .L41+52
 543 0188 1A70     		strb	r2, [r3]
 544 018a 08BD     		pop	{r3, pc}
 545              	.L28:
 197:Src/usart.c   ****         }
 198:Src/usart.c   ****     }
 199:Src/usart.c   ****     else if(compare("diod blink",10) == 0)
 546              		.loc 1 199 0
ARM GAS  /tmp/cc0nYQGF.s 			page 14


 547 018c 2B48     		ldr	r0, .L41+96
 548 018e 0A21     		movs	r1, #10
 549 0190 FFF7FEFF 		bl	compare
 550              	.LVL33:
 551 0194 30B9     		cbnz	r0, .L37
 200:Src/usart.c   ****     {
 201:Src/usart.c   ****         info = "\r\nenabling blinking\r\n";
 552              		.loc 1 201 0
 553 0196 2A4A     		ldr	r2, .L41+100
 554 0198 144B     		ldr	r3, .L41+16
 555 019a 1A60     		str	r2, [r3]
 202:Src/usart.c   ****         flag = 3;
 556              		.loc 1 202 0
 557 019c 0322     		movs	r2, #3
 558 019e 1C4B     		ldr	r3, .L41+52
 559 01a0 1A70     		strb	r2, [r3]
 560 01a2 08BD     		pop	{r3, pc}
 561              	.L37:
 203:Src/usart.c   ****     }
 204:Src/usart.c   ****     else if(compare("diod stop", 9) == 0)
 562              		.loc 1 204 0
 563 01a4 2748     		ldr	r0, .L41+104
 564 01a6 0921     		movs	r1, #9
 565 01a8 FFF7FEFF 		bl	compare
 566              	.LVL34:
 567 01ac 30B9     		cbnz	r0, .L38
 205:Src/usart.c   ****     {
 206:Src/usart.c   ****         info = "\r\nstoping all actions\r\n";
 568              		.loc 1 206 0
 569 01ae 264A     		ldr	r2, .L41+108
 570 01b0 0E4B     		ldr	r3, .L41+16
 571 01b2 1A60     		str	r2, [r3]
 207:Src/usart.c   ****         flag = 0;
 572              		.loc 1 207 0
 573 01b4 0022     		movs	r2, #0
 574 01b6 164B     		ldr	r3, .L41+52
 575 01b8 1A70     		strb	r2, [r3]
 576 01ba 08BD     		pop	{r3, pc}
 577              	.L38:
 208:Src/usart.c   ****     }
 209:Src/usart.c   ****     else if(compare("diod circle", 11) == 0)
 578              		.loc 1 209 0
 579 01bc 2348     		ldr	r0, .L41+112
 580 01be 0B21     		movs	r1, #11
 581 01c0 FFF7FEFF 		bl	compare
 582              	.LVL35:
 583 01c4 30B9     		cbnz	r0, .L39
 210:Src/usart.c   ****     {
 211:Src/usart.c   ****         info = "\r\nenabling diod circle\r\n";
 584              		.loc 1 211 0
 585 01c6 224A     		ldr	r2, .L41+116
 586 01c8 084B     		ldr	r3, .L41+16
 587 01ca 1A60     		str	r2, [r3]
 212:Src/usart.c   ****         flag = 4;
 588              		.loc 1 212 0
 589 01cc 0422     		movs	r2, #4
 590 01ce 104B     		ldr	r3, .L41+52
ARM GAS  /tmp/cc0nYQGF.s 			page 15


 591 01d0 1A70     		strb	r2, [r3]
 592 01d2 08BD     		pop	{r3, pc}
 593              	.L39:
 213:Src/usart.c   ****     }
 214:Src/usart.c   ****     else
 215:Src/usart.c   ****     {
 216:Src/usart.c   ****         info = "\r\n\npossible commands:"
 594              		.loc 1 216 0
 595 01d4 1F4A     		ldr	r2, .L41+120
 596 01d6 054B     		ldr	r3, .L41+16
 597 01d8 1A60     		str	r2, [r3]
 598 01da 08BD     		pop	{r3, pc}
 599              	.L42:
 600              		.align	2
 601              	.L41:
 602 01dc 00000000 		.word	.LC0
 603 01e0 00000000 		.word	.LANCHOR0
 604 01e4 00000000 		.word	buffer
 605 01e8 08000000 		.word	.LC1
 606 01ec 00000000 		.word	info
 607 01f0 1C000000 		.word	.LC2
 608 01f4 30000000 		.word	.LC3
 609 01f8 44000000 		.word	.LC4
 610 01fc 58000000 		.word	.LC5
 611 0200 6C000000 		.word	.LC6
 612 0204 80000000 		.word	.LC7
 613 0208 94000000 		.word	.LC8
 614 020c A8000000 		.word	.LC9
 615 0210 00000000 		.word	flag
 616 0214 C0000000 		.word	.LC10
 617 0218 CC000000 		.word	.LC11
 618 021c E4000000 		.word	.LC12
 619 0220 FC000000 		.word	.LC13
 620 0224 14010000 		.word	.LC14
 621 0228 2C010000 		.word	.LC15
 622 022c 44010000 		.word	.LC16
 623 0230 5C010000 		.word	.LC17
 624 0234 74010000 		.word	.LC18
 625 0238 8C010000 		.word	.LC19
 626 023c A4010000 		.word	.LC20
 627 0240 B0010000 		.word	.LC21
 628 0244 C8010000 		.word	.LC22
 629 0248 D4010000 		.word	.LC23
 630 024c EC010000 		.word	.LC24
 631 0250 F8010000 		.word	.LC25
 632 0254 14020000 		.word	.LC26
 633              		.cfi_endproc
 634              	.LFE126:
 636              		.section	.text.HAL_UART_RxCpltCallback,"ax",%progbits
 637              		.align	2
 638              		.global	HAL_UART_RxCpltCallback
 639              		.thumb
 640              		.thumb_func
 642              	HAL_UART_RxCpltCallback:
 643              	.LFB127:
 217:Src/usart.c   ****                "\r\ndiod on\t\t\t- enable all diods"
 218:Src/usart.c   ****                "\r\ndiod on [1-8]\t\t- enable specyfic diod"
ARM GAS  /tmp/cc0nYQGF.s 			page 16


 219:Src/usart.c   ****                "\r\ndiod off\t\t- disable all diods"
 220:Src/usart.c   ****                "\r\ndiod off [1-8]\t\t- disable specyfic diod"
 221:Src/usart.c   ****                "\r\ndiod blink\t\t- all diods blinking"
 222:Src/usart.c   ****                "\r\ndiod stop\t\t- stopping all actions"
 223:Src/usart.c   ****                "\r\ndiod circle\t\t- diods are going around"
 224:Src/usart.c   ****                "\r\n";
 225:Src/usart.c   ****     }
 226:Src/usart.c   **** }
 227:Src/usart.c   **** 
 228:Src/usart.c   **** void HAL_UART_RxCpltCallback(UART_HandleTypeDef * huart1)
 229:Src/usart.c   **** {
 644              		.loc 1 229 0
 645              		.cfi_startproc
 646              		@ args = 0, pretend = 0, frame = 16
 647              		@ frame_needed = 0, uses_anonymous_args = 0
 648              	.LVL36:
 649 0000 F0B5     		push	{r4, r5, r6, r7, lr}
 650              	.LCFI7:
 651              		.cfi_def_cfa_offset 20
 652              		.cfi_offset 4, -20
 653              		.cfi_offset 5, -16
 654              		.cfi_offset 6, -12
 655              		.cfi_offset 7, -8
 656              		.cfi_offset 14, -4
 657 0002 85B0     		sub	sp, sp, #20
 658              	.LCFI8:
 659              		.cfi_def_cfa_offset 40
 660 0004 0546     		mov	r5, r0
 230:Src/usart.c   **** 
 231:Src/usart.c   ****     if(buffer[counter] == 13)
 661              		.loc 1 231 0
 662 0006 4C4B     		ldr	r3, .L55
 663 0008 1C68     		ldr	r4, [r3]
 664 000a 4C4B     		ldr	r3, .L55+4
 665 000c 1B78     		ldrb	r3, [r3]	@ zero_extendqisi2
 666 000e E35C     		ldrb	r3, [r4, r3]	@ zero_extendqisi2
 667 0010 0D2B     		cmp	r3, #13
 668 0012 7CD1     		bne	.L44
 232:Src/usart.c   ****     {
 233:Src/usart.c   ****        if(compare("diod",4) == 0)
 669              		.loc 1 233 0
 670 0014 4A48     		ldr	r0, .L55+8
 671              	.LVL37:
 672 0016 0421     		movs	r1, #4
 673 0018 FFF7FEFF 		bl	compare
 674              	.LVL38:
 675 001c 10B9     		cbnz	r0, .L45
 234:Src/usart.c   ****        {
 235:Src/usart.c   ****             handleDiods();
 676              		.loc 1 235 0
 677 001e FFF7FEFF 		bl	handleDiods
 678              	.LVL39:
 679 0022 65E0     		b	.L46
 680              	.L45:
 236:Src/usart.c   ****        }
 237:Src/usart.c   ****        else if(compare("help", 4) == 0)
 681              		.loc 1 237 0
ARM GAS  /tmp/cc0nYQGF.s 			page 17


 682 0024 4748     		ldr	r0, .L55+12
 683 0026 0421     		movs	r1, #4
 684 0028 FFF7FEFF 		bl	compare
 685              	.LVL40:
 686 002c 18B9     		cbnz	r0, .L47
 238:Src/usart.c   ****        {
 239:Src/usart.c   ****            info = "\r\n\npossible commands:\r\ndiod [args]  \t\t- write diod to see all options\r\n
 687              		.loc 1 239 0
 688 002e 464A     		ldr	r2, .L55+16
 689 0030 464B     		ldr	r3, .L55+20
 690 0032 1A60     		str	r2, [r3]
 691 0034 5CE0     		b	.L46
 692              	.L47:
 240:Src/usart.c   **** 
 241:Src/usart.c   ****        }
 242:Src/usart.c   ****        else if(compare("math",4) == 0)
 693              		.loc 1 242 0
 694 0036 4648     		ldr	r0, .L55+24
 695 0038 0421     		movs	r1, #4
 696 003a FFF7FEFF 		bl	compare
 697              	.LVL41:
 698 003e 0028     		cmp	r0, #0
 699 0040 53D1     		bne	.L48
 700              	.LVL42:
 701              	.LBB20:
 243:Src/usart.c   ****        {
 244:Src/usart.c   ****            int result=0;
 245:Src/usart.c   ****            char delimiter[] = " ";
 702              		.loc 1 245 0
 703 0042 04AE     		add	r6, sp, #16
 704 0044 2023     		movs	r3, #32
 705 0046 26F8103D 		strh	r3, [r6, #-16]!	@ movhi
 246:Src/usart.c   ****            char* ptr;
 247:Src/usart.c   ****            int num1;
 248:Src/usart.c   ****            int num2;
 249:Src/usart.c   ****            ptr = strtok(buffer, delimiter);
 706              		.loc 1 249 0
 707 004a 2046     		mov	r0, r4
 708 004c 3146     		mov	r1, r6
 709 004e FFF7FEFF 		bl	strtok
 710              	.LVL43:
 250:Src/usart.c   ****            ptr = strtok(NULL,delimiter);
 711              		.loc 1 250 0
 712 0052 0020     		movs	r0, #0
 713 0054 3146     		mov	r1, r6
 714 0056 FFF7FEFF 		bl	strtok
 715              	.LVL44:
 251:Src/usart.c   ****            num1 = atoi(ptr);
 716              		.loc 1 251 0
 717 005a FFF7FEFF 		bl	atoi
 718              	.LVL45:
 719 005e 0446     		mov	r4, r0
 720              	.LVL46:
 252:Src/usart.c   ****            ptr = strtok(NULL, delimiter);
 721              		.loc 1 252 0
 722 0060 0020     		movs	r0, #0
 723              	.LVL47:
ARM GAS  /tmp/cc0nYQGF.s 			page 18


 724 0062 3146     		mov	r1, r6
 725 0064 FFF7FEFF 		bl	strtok
 726              	.LVL48:
 253:Src/usart.c   ****            num2 = atoi(ptr);
 727              		.loc 1 253 0
 728 0068 FFF7FEFF 		bl	atoi
 729              	.LVL49:
 730 006c 0746     		mov	r7, r0
 731              	.LVL50:
 254:Src/usart.c   ****            ptr = strtok(NULL, delimiter);
 732              		.loc 1 254 0
 733 006e 0020     		movs	r0, #0
 734              	.LVL51:
 735 0070 3146     		mov	r1, r6
 736 0072 FFF7FEFF 		bl	strtok
 737              	.LVL52:
 738 0076 0646     		mov	r6, r0
 739              	.LVL53:
 255:Src/usart.c   ****            char* operation = ptr;
 256:Src/usart.c   ****            char arr[10] = "";
 740              		.loc 1 256 0
 741 0078 0023     		movs	r3, #0
 742 007a 0193     		str	r3, [sp, #4]
 743 007c 0293     		str	r3, [sp, #8]
 744 007e ADF80C30 		strh	r3, [sp, #12]	@ movhi
 257:Src/usart.c   ****            if(strstr(operation, "add") != NULL)
 745              		.loc 1 257 0
 746 0082 3449     		ldr	r1, .L55+28
 747 0084 FFF7FEFF 		bl	strstr
 748              	.LVL54:
 749 0088 08B1     		cbz	r0, .L49
 258:Src/usart.c   ****            {
 259:Src/usart.c   ****                result = num1 + num2;
 750              		.loc 1 259 0
 751 008a E019     		adds	r0, r4, r7
 752              	.LVL55:
 753 008c 17E0     		b	.L50
 754              	.LVL56:
 755              	.L49:
 260:Src/usart.c   ****            }
 261:Src/usart.c   ****            else if(strstr(operation, "sub") != NULL)
 756              		.loc 1 261 0
 757 008e 3046     		mov	r0, r6
 758 0090 3149     		ldr	r1, .L55+32
 759 0092 FFF7FEFF 		bl	strstr
 760              	.LVL57:
 761 0096 08B1     		cbz	r0, .L51
 262:Src/usart.c   ****            {
 263:Src/usart.c   ****                result = num1 - num2;
 762              		.loc 1 263 0
 763 0098 E01B     		subs	r0, r4, r7
 764              	.LVL58:
 765 009a 10E0     		b	.L50
 766              	.LVL59:
 767              	.L51:
 264:Src/usart.c   **** 
 265:Src/usart.c   ****            }
ARM GAS  /tmp/cc0nYQGF.s 			page 19


 266:Src/usart.c   ****            else if(strstr(operation, "multi") != NULL)
 768              		.loc 1 266 0
 769 009c 3046     		mov	r0, r6
 770 009e 2F49     		ldr	r1, .L55+36
 771 00a0 FFF7FEFF 		bl	strstr
 772              	.LVL60:
 773 00a4 10B1     		cbz	r0, .L52
 267:Src/usart.c   ****            {
 268:Src/usart.c   ****                result = num1 * num2;
 774              		.loc 1 268 0
 775 00a6 07FB04F0 		mul	r0, r7, r4
 776              	.LVL61:
 777 00aa 08E0     		b	.L50
 778              	.LVL62:
 779              	.L52:
 269:Src/usart.c   ****            }
 270:Src/usart.c   ****            else if(strstr(operation, "div") != NULL)
 780              		.loc 1 270 0
 781 00ac 3046     		mov	r0, r6
 782 00ae 2C49     		ldr	r1, .L55+40
 783 00b0 FFF7FEFF 		bl	strstr
 784              	.LVL63:
 785 00b4 10B1     		cbz	r0, .L53
 271:Src/usart.c   ****            {
 272:Src/usart.c   ****                result = num1 / num2;
 786              		.loc 1 272 0
 787 00b6 94FBF7F0 		sdiv	r0, r4, r7
 788              	.LVL64:
 789 00ba 00E0     		b	.L50
 790              	.LVL65:
 791              	.L53:
 244:Src/usart.c   ****            char delimiter[] = " ";
 792              		.loc 1 244 0
 793 00bc 0020     		movs	r0, #0
 794              	.LVL66:
 795              	.L50:
 273:Src/usart.c   ****            }
 274:Src/usart.c   ****            itoa(result,arr,10);
 796              		.loc 1 274 0
 797 00be 01A9     		add	r1, sp, #4
 798 00c0 0A22     		movs	r2, #10
 799 00c2 FFF7FEFF 		bl	itoa
 800              	.LVL67:
 275:Src/usart.c   ****            char* a = "\r\nYour result is:";
 276:Src/usart.c   ****            HAL_UART_Transmit(huart1, (uint8_t*)a, strlen(a), 1000);
 801              		.loc 1 276 0
 802 00c6 2846     		mov	r0, r5
 803 00c8 2649     		ldr	r1, .L55+44
 804 00ca 1122     		movs	r2, #17
 805 00cc 4FF47A73 		mov	r3, #1000
 806 00d0 FFF7FEFF 		bl	HAL_UART_Transmit
 807              	.LVL68:
 277:Src/usart.c   ****            HAL_UART_Transmit(huart1, (uint8_t*)arr, 10, 1000);
 808              		.loc 1 277 0
 809 00d4 2846     		mov	r0, r5
 810 00d6 01A9     		add	r1, sp, #4
 811 00d8 0A22     		movs	r2, #10
ARM GAS  /tmp/cc0nYQGF.s 			page 20


 812 00da 4FF47A73 		mov	r3, #1000
 813 00de FFF7FEFF 		bl	HAL_UART_Transmit
 814              	.LVL69:
 278:Src/usart.c   ****            info= "\r\nHope i helped You\r\n";
 815              		.loc 1 278 0
 816 00e2 214A     		ldr	r2, .L55+48
 817 00e4 194B     		ldr	r3, .L55+20
 818 00e6 1A60     		str	r2, [r3]
 819              	.LBE20:
 820 00e8 02E0     		b	.L46
 821              	.LVL70:
 822              	.L48:
 279:Src/usart.c   ****        }
 280:Src/usart.c   ****        else
 281:Src/usart.c   ****        {
 282:Src/usart.c   ****            info = "\r\nunknown command\r\n";
 823              		.loc 1 282 0
 824 00ea 204A     		ldr	r2, .L55+52
 825 00ec 174B     		ldr	r3, .L55+20
 826 00ee 1A60     		str	r2, [r3]
 827              	.L46:
 283:Src/usart.c   ****        }
 284:Src/usart.c   ****        HAL_UART_Transmit_IT(huart1, (uint8_t*)info, strlen(info));
 828              		.loc 1 284 0
 829 00f0 164C     		ldr	r4, .L55+20
 830 00f2 2668     		ldr	r6, [r4]
 831 00f4 3046     		mov	r0, r6
 832 00f6 FFF7FEFF 		bl	strlen
 833              	.LVL71:
 834 00fa 82B2     		uxth	r2, r0
 835 00fc 2846     		mov	r0, r5
 836 00fe 3146     		mov	r1, r6
 837 0100 FFF7FEFF 		bl	HAL_UART_Transmit_IT
 838              	.LVL72:
 285:Src/usart.c   ****        info = "";
 839              		.loc 1 285 0
 840 0104 1A4B     		ldr	r3, .L55+56
 841 0106 2360     		str	r3, [r4]
 286:Src/usart.c   ****        counter = 0;
 842              		.loc 1 286 0
 843 0108 0022     		movs	r2, #0
 844 010a 0C4B     		ldr	r3, .L55+4
 845 010c 1A70     		strb	r2, [r3]
 846              	.L44:
 287:Src/usart.c   ****     }
 288:Src/usart.c   ****     HAL_UART_Transmit_IT(huart1, (uint8_t*)&buffer[counter], 1);
 847              		.loc 1 288 0
 848 010e 0A4E     		ldr	r6, .L55
 849 0110 3168     		ldr	r1, [r6]
 850 0112 0A4C     		ldr	r4, .L55+4
 851 0114 2378     		ldrb	r3, [r4]	@ zero_extendqisi2
 852 0116 2846     		mov	r0, r5
 853 0118 1944     		add	r1, r1, r3
 854 011a 0122     		movs	r2, #1
 855 011c FFF7FEFF 		bl	HAL_UART_Transmit_IT
 856              	.LVL73:
 289:Src/usart.c   ****     counter++;
ARM GAS  /tmp/cc0nYQGF.s 			page 21


 857              		.loc 1 289 0
 858 0120 2378     		ldrb	r3, [r4]	@ zero_extendqisi2
 859 0122 0133     		adds	r3, r3, #1
 860 0124 DBB2     		uxtb	r3, r3
 861 0126 2370     		strb	r3, [r4]
 290:Src/usart.c   ****     HAL_UART_Receive_IT(huart1,  (uint8_t*)&buffer[counter], 1);
 862              		.loc 1 290 0
 863 0128 3168     		ldr	r1, [r6]
 864 012a 2846     		mov	r0, r5
 865 012c 1944     		add	r1, r1, r3
 866 012e 0122     		movs	r2, #1
 867 0130 FFF7FEFF 		bl	HAL_UART_Receive_IT
 868              	.LVL74:
 291:Src/usart.c   **** 
 292:Src/usart.c   **** }
 869              		.loc 1 292 0
 870 0134 05B0     		add	sp, sp, #20
 871              	.LCFI9:
 872              		.cfi_def_cfa_offset 20
 873              		@ sp needed
 874 0136 F0BD     		pop	{r4, r5, r6, r7, pc}
 875              	.LVL75:
 876              	.L56:
 877              		.align	2
 878              	.L55:
 879 0138 00000000 		.word	buffer
 880 013c 00000000 		.word	.LANCHOR0
 881 0140 28030000 		.word	.LC27
 882 0144 30030000 		.word	.LC28
 883 0148 38030000 		.word	.LC29
 884 014c 00000000 		.word	info
 885 0150 80030000 		.word	.LC30
 886 0154 88030000 		.word	.LC31
 887 0158 8C030000 		.word	.LC32
 888 015c 90030000 		.word	.LC33
 889 0160 98030000 		.word	.LC34
 890 0164 9C030000 		.word	.LC35
 891 0168 B0030000 		.word	.LC36
 892 016c C8030000 		.word	.LC37
 893 0170 DC030000 		.word	.LC38
 894              		.cfi_endproc
 895              	.LFE127:
 897              		.section	.text.HAL_UART_MspDeInit,"ax",%progbits
 898              		.align	2
 899              		.global	HAL_UART_MspDeInit
 900              		.thumb
 901              		.thumb_func
 903              	HAL_UART_MspDeInit:
 904              	.LFB128:
 293:Src/usart.c   **** 
 294:Src/usart.c   **** void HAL_UART_MspDeInit(UART_HandleTypeDef * uartHandle)
 295:Src/usart.c   **** {
 905              		.loc 1 295 0
 906              		.cfi_startproc
 907              		@ args = 0, pretend = 0, frame = 0
 908              		@ frame_needed = 0, uses_anonymous_args = 0
 909              		@ link register save eliminated.
ARM GAS  /tmp/cc0nYQGF.s 			page 22


 910              	.LVL76:
 911 0000 7047     		bx	lr
 912              		.cfi_endproc
 913              	.LFE128:
 915              		.comm	info2,256,4
 916              		.comm	info,4,4
 917              		.comm	huart1,112,4
 918              		.global	counter
 919              		.comm	buffer,4,4
 920              		.comm	flag,1,1
 921 0002 00BF     		.section	.rodata.str1.4,"aMS",%progbits,1
 922              		.align	2
 923              	.LC0:
 924 0000 64696F64 		.ascii	"diod on\000"
 924      206F6E00 
 925              	.LC1:
 926 0008 0D0A656E 		.ascii	"\015\012enabling diod 1\015\012\000"
 926      61626C69 
 926      6E672064 
 926      696F6420 
 926      310D0A00 
 927              	.LC2:
 928 001c 0D0A656E 		.ascii	"\015\012enabling diod 2\015\012\000"
 928      61626C69 
 928      6E672064 
 928      696F6420 
 928      320D0A00 
 929              	.LC3:
 930 0030 0D0A656E 		.ascii	"\015\012enabling diod 3\015\012\000"
 930      61626C69 
 930      6E672064 
 930      696F6420 
 930      330D0A00 
 931              	.LC4:
 932 0044 0D0A656E 		.ascii	"\015\012enabling diod 4\015\012\000"
 932      61626C69 
 932      6E672064 
 932      696F6420 
 932      340D0A00 
 933              	.LC5:
 934 0058 0D0A656E 		.ascii	"\015\012enabling diod 5\015\012\000"
 934      61626C69 
 934      6E672064 
 934      696F6420 
 934      350D0A00 
 935              	.LC6:
 936 006c 0D0A656E 		.ascii	"\015\012enabling diod 6\015\012\000"
 936      61626C69 
 936      6E672064 
 936      696F6420 
 936      360D0A00 
 937              	.LC7:
 938 0080 0D0A656E 		.ascii	"\015\012enabling diod 7\015\012\000"
 938      61626C69 
 938      6E672064 
 938      696F6420 
 938      370D0A00 
ARM GAS  /tmp/cc0nYQGF.s 			page 23


 939              	.LC8:
 940 0094 0D0A656E 		.ascii	"\015\012enabling diod 8\015\012\000"
 940      61626C69 
 940      6E672064 
 940      696F6420 
 940      380D0A00 
 941              	.LC9:
 942 00a8 0D0A656E 		.ascii	"\015\012enabling all diods\015\012\000"
 942      61626C69 
 942      6E672061 
 942      6C6C2064 
 942      696F6473 
 943 00bf 00       		.space	1
 944              	.LC10:
 945 00c0 64696F64 		.ascii	"diod off\000"
 945      206F6666 
 945      00
 946 00c9 000000   		.space	3
 947              	.LC11:
 948 00cc 0D0A6469 		.ascii	"\015\012disabling diod 1\015\012\000"
 948      7361626C 
 948      696E6720 
 948      64696F64 
 948      20310D0A 
 949 00e1 000000   		.space	3
 950              	.LC12:
 951 00e4 0D0A6469 		.ascii	"\015\012disabling diod 2\015\012\000"
 951      7361626C 
 951      696E6720 
 951      64696F64 
 951      20320D0A 
 952 00f9 000000   		.space	3
 953              	.LC13:
 954 00fc 0D0A6469 		.ascii	"\015\012disabling diod 3\015\012\000"
 954      7361626C 
 954      696E6720 
 954      64696F64 
 954      20330D0A 
 955 0111 000000   		.space	3
 956              	.LC14:
 957 0114 0D0A6469 		.ascii	"\015\012disabling diod 4\015\012\000"
 957      7361626C 
 957      696E6720 
 957      64696F64 
 957      20340D0A 
 958 0129 000000   		.space	3
 959              	.LC15:
 960 012c 0D0A6469 		.ascii	"\015\012disabling diod 5\015\012\000"
 960      7361626C 
 960      696E6720 
 960      64696F64 
 960      20350D0A 
 961 0141 000000   		.space	3
 962              	.LC16:
 963 0144 0D0A6469 		.ascii	"\015\012disabling diod 6\015\012\000"
 963      7361626C 
 963      696E6720 
ARM GAS  /tmp/cc0nYQGF.s 			page 24


 963      64696F64 
 963      20360D0A 
 964 0159 000000   		.space	3
 965              	.LC17:
 966 015c 0D0A6469 		.ascii	"\015\012disabling diod 7\015\012\000"
 966      7361626C 
 966      696E6720 
 966      64696F64 
 966      20370D0A 
 967 0171 000000   		.space	3
 968              	.LC18:
 969 0174 0D0A6469 		.ascii	"\015\012disabling diod 8\015\012\000"
 969      7361626C 
 969      696E6720 
 969      64696F64 
 969      20380D0A 
 970 0189 000000   		.space	3
 971              	.LC19:
 972 018c 0D0A6469 		.ascii	"\015\012disabling all diods\015\012\000"
 972      7361626C 
 972      696E6720 
 972      616C6C20 
 972      64696F64 
 973              	.LC20:
 974 01a4 64696F64 		.ascii	"diod blink\000"
 974      20626C69 
 974      6E6B00
 975 01af 00       		.space	1
 976              	.LC21:
 977 01b0 0D0A656E 		.ascii	"\015\012enabling blinking\015\012\000"
 977      61626C69 
 977      6E672062 
 977      6C696E6B 
 977      696E670D 
 978 01c6 0000     		.space	2
 979              	.LC22:
 980 01c8 64696F64 		.ascii	"diod stop\000"
 980      2073746F 
 980      7000
 981 01d2 0000     		.space	2
 982              	.LC23:
 983 01d4 0D0A7374 		.ascii	"\015\012stoping all actions\015\012\000"
 983      6F70696E 
 983      6720616C 
 983      6C206163 
 983      74696F6E 
 984              	.LC24:
 985 01ec 64696F64 		.ascii	"diod circle\000"
 985      20636972 
 985      636C6500 
 986              	.LC25:
 987 01f8 0D0A656E 		.ascii	"\015\012enabling diod circle\015\012\000"
 987      61626C69 
 987      6E672064 
 987      696F6420 
 987      63697263 
 988 0211 000000   		.space	3
ARM GAS  /tmp/cc0nYQGF.s 			page 25


 989              	.LC26:
 990 0214 0D0A0A70 		.ascii	"\015\012\012possible commands:\015\012diod on\011\011"
 990      6F737369 
 990      626C6520 
 990      636F6D6D 
 990      616E6473 
 991 0234 092D2065 		.ascii	"\011- enable all diods\015\012diod on [1-8]\011\011"
 991      6E61626C 
 991      6520616C 
 991      6C206469 
 991      6F64730D 
 992 0258 2D20656E 		.ascii	"- enable specyfic diod\015\012diod off\011\011- dis"
 992      61626C65 
 992      20737065 
 992      63796669 
 992      63206469 
 993 027f 61626C65 		.ascii	"able all diods\015\012diod off [1-8]\011\011- disab"
 993      20616C6C 
 993      2064696F 
 993      64730D0A 
 993      64696F64 
 994 02a6 6C652073 		.ascii	"le specyfic diod\015\012diod blink\011\011- all dio"
 994      70656379 
 994      66696320 
 994      64696F64 
 994      0D0A6469 
 995 02cd 64732062 		.ascii	"ds blinking\015\012diod stop\011\011- stopping all "
 995      6C696E6B 
 995      696E670D 
 995      0A64696F 
 995      64207374 
 996 02f4 61637469 		.ascii	"actions\015\012diod circle\011\011- diods are going"
 996      6F6E730D 
 996      0A64696F 
 996      64206369 
 996      72636C65 
 997 031b 2061726F 		.ascii	" around\015\012\000"
 997      756E640D 
 997      0A00
 998 0325 000000   		.space	3
 999              	.LC27:
 1000 0328 64696F64 		.ascii	"diod\000"
 1000      00
 1001 032d 000000   		.space	3
 1002              	.LC28:
 1003 0330 68656C70 		.ascii	"help\000"
 1003      00
 1004 0335 000000   		.space	3
 1005              	.LC29:
 1006 0338 0D0A0A70 		.ascii	"\015\012\012possible commands:\015\012diod [args]  "
 1006      6F737369 
 1006      626C6520 
 1006      636F6D6D 
 1006      616E6473 
 1007 035c 09092D20 		.ascii	"\011\011- write diod to see all options\015\012\000"
 1007      77726974 
 1007      65206469 
ARM GAS  /tmp/cc0nYQGF.s 			page 26


 1007      6F642074 
 1007      6F207365 
 1008              	.LC30:
 1009 0380 6D617468 		.ascii	"math\000"
 1009      00
 1010 0385 000000   		.space	3
 1011              	.LC31:
 1012 0388 61646400 		.ascii	"add\000"
 1013              	.LC32:
 1014 038c 73756200 		.ascii	"sub\000"
 1015              	.LC33:
 1016 0390 6D756C74 		.ascii	"multi\000"
 1016      6900
 1017 0396 0000     		.space	2
 1018              	.LC34:
 1019 0398 64697600 		.ascii	"div\000"
 1020              	.LC35:
 1021 039c 0D0A596F 		.ascii	"\015\012Your result is:\000"
 1021      75722072 
 1021      6573756C 
 1021      74206973 
 1021      3A00
 1022 03ae 0000     		.space	2
 1023              	.LC36:
 1024 03b0 0D0A486F 		.ascii	"\015\012Hope i helped You\015\012\000"
 1024      70652069 
 1024      2068656C 
 1024      70656420 
 1024      596F750D 
 1025 03c6 0000     		.space	2
 1026              	.LC37:
 1027 03c8 0D0A756E 		.ascii	"\015\012unknown command\015\012\000"
 1027      6B6E6F77 
 1027      6E20636F 
 1027      6D6D616E 
 1027      640D0A00 
 1028              	.LC38:
 1029 03dc 00       		.ascii	"\000"
 1030              		.section	.bss.counter,"aw",%nobits
 1031              		.set	.LANCHOR0,. + 0
 1034              	counter:
 1035 0000 00       		.space	1
 1036              		.text
 1037              	.Letext0:
 1038              		.file 2 "Drivers/CMSIS/Device/ST/STM32F3xx/Include/stm32f303xc.h"
 1039              		.file 3 "/home/stm/tools/stm/gcc-arm-none-eabi/gcc-arm-none-eabi-4_9-2015q3/arm-none-eabi/include/
 1040              		.file 4 "/home/stm/tools/stm/gcc-arm-none-eabi/gcc-arm-none-eabi-4_9-2015q3/arm-none-eabi/include/
 1041              		.file 5 "/home/stm/tools/stm/gcc-arm-none-eabi/gcc-arm-none-eabi-4_9-2015q3/lib/gcc/arm-none-eabi/
 1042              		.file 6 "Drivers/STM32F3xx_HAL_Driver/Inc/stm32f3xx_hal_def.h"
 1043              		.file 7 "Drivers/STM32F3xx_HAL_Driver/Inc/stm32f3xx_hal_gpio.h"
 1044              		.file 8 "Drivers/STM32F3xx_HAL_Driver/Inc/stm32f3xx_hal_dma.h"
 1045              		.file 9 "Drivers/STM32F3xx_HAL_Driver/Inc/stm32f3xx_hal_uart.h"
 1046              		.file 10 "Drivers/CMSIS/Include/core_cm4.h"
 1047              		.file 11 "Inc/usart.h"
 1048              		.file 12 "Drivers/STM32F3xx_HAL_Driver/Inc/stm32f3xx_hal_cortex.h"
 1049              		.file 13 "/home/stm/tools/stm/gcc-arm-none-eabi/gcc-arm-none-eabi-4_9-2015q3/arm-none-eabi/include
 1050              		.file 14 "/home/stm/tools/stm/gcc-arm-none-eabi/gcc-arm-none-eabi-4_9-2015q3/arm-none-eabi/include
ARM GAS  /tmp/cc0nYQGF.s 			page 27


ARM GAS  /tmp/cc0nYQGF.s 			page 28


DEFINED SYMBOLS
                            *ABS*:00000000 usart.c
     /tmp/cc0nYQGF.s:21     .text.MX_USART1_UART_Init:00000000 $t
     /tmp/cc0nYQGF.s:26     .text.MX_USART1_UART_Init:00000000 MX_USART1_UART_Init
     /tmp/cc0nYQGF.s:84     .text.MX_USART1_UART_Init:00000044 $d
                            *COM*:00000070 huart1
                            *COM*:00000004 buffer
     /tmp/cc0nYQGF.s:91     .text.HAL_UART_MspInit:00000000 $t
     /tmp/cc0nYQGF.s:96     .text.HAL_UART_MspInit:00000000 HAL_UART_MspInit
     /tmp/cc0nYQGF.s:161    .text.HAL_UART_MspInit:0000004c $d
     /tmp/cc0nYQGF.s:167    .text.compare:00000000 $t
     /tmp/cc0nYQGF.s:172    .text.compare:00000000 compare
     /tmp/cc0nYQGF.s:224    .text.compare:00000028 $d
     /tmp/cc0nYQGF.s:229    .text.handleDiods:00000000 $t
     /tmp/cc0nYQGF.s:234    .text.handleDiods:00000000 handleDiods
     /tmp/cc0nYQGF.s:602    .text.handleDiods:000001dc $d
                            *COM*:00000004 info
                            *COM*:00000001 flag
     /tmp/cc0nYQGF.s:637    .text.HAL_UART_RxCpltCallback:00000000 $t
     /tmp/cc0nYQGF.s:642    .text.HAL_UART_RxCpltCallback:00000000 HAL_UART_RxCpltCallback
     /tmp/cc0nYQGF.s:879    .text.HAL_UART_RxCpltCallback:00000138 $d
     /tmp/cc0nYQGF.s:898    .text.HAL_UART_MspDeInit:00000000 $t
     /tmp/cc0nYQGF.s:903    .text.HAL_UART_MspDeInit:00000000 HAL_UART_MspDeInit
                            *COM*:00000100 info2
     /tmp/cc0nYQGF.s:1034   .bss.counter:00000000 counter
     /tmp/cc0nYQGF.s:922    .rodata.str1.4:00000000 $d
     /tmp/cc0nYQGF.s:1035   .bss.counter:00000000 $d
                     .debug_frame:00000010 $d

UNDEFINED SYMBOLS
HAL_NVIC_SetPriority
HAL_NVIC_EnableIRQ
HAL_UART_Init
malloc
HAL_UART_Receive_IT
HAL_GPIO_Init
MX_GPIO_diod
strtok
atoi
strstr
itoa
HAL_UART_Transmit
strlen
HAL_UART_Transmit_IT
